:100000000C9434000C9451000C9451000C94510049
:100010000C9451000C9451000C9451000C945E000F
:100020000C9451000C9451000C9451000C94540009
:100030000C9451000C9451000C9451000C945100FC
:100040000C9451000C9451000C9451000C945100EC
:100050000C9451000C9451000C9451000C945100DC
:100060000C9451000C94510011241FBECFEFD8E026
:10007000DEBFCDBF11E0A0E0B1E0E6E1F1E002C0FB
:1000800005900D92A230B107D9F721E0A2E0B1E0CE
:1000900001C01D92AD30B207E1F70E9470000C94D0
:1000A00089000C94000008951F920F920FB60F92D2
:1000B00011240F900FBE0F901F9018951F920F9252
:1000C0000FB60F9211248F939F9395B182E08927E9
:1000D00085B99F918F910F900FBE0F901F9018952B
:1000E00084B18B6084B9299AA0EBB0E01C92E1EB5B
:1000F000F0E010821092B2008BE08093B30082E0B7
:100100008C9391E0908380937000789480E090E0ED
:060110000895F894FFCFF2
:020116001E0ABF
:04000005008001086E
:00000001FF
