:100000000C94CF0E0C94F70E0C94F70E0C94F70E84
:100010000C94891E0C94F70E0C94F70E0C949A1FF6
:100020000C94F70E0C94F70E0C94F70E0C94DF1F43
:100030000C94F70E0C94F70E0C94F70E0C94F70E2C
:100040000C94241D0C94F70E0C94F70E0C94F70EE0
:100050000C94F70E0C94F51E0C94F70E0C94F70EFE
:100060000C946E1D0C94F70EBF00030304050305EA
:10007000060F14FFFC0CFC0CFD01EB042D0CF02012
:100080000500184B2109C20C4D1C2C6904220A459D
:100090008A51485824A100231BC908D3498412A1BE
:1000A0004474881C4212A14474881C4212A1442842
:1000B00091012414E7FAD2052B0749841223728B8D
:1000C0005022074931062521CD085D4983B4A04857
:1000D000141449C2A43840148786E48010392212CF
:1000E000861463C4A808002616CA0A59518D22A195
:1000F000484A9E499A2AB2916C76888D0627074213
:100100008A495802280CF4DA4C49264AFA9B68249A
:10011000290EF4D84C88463291FE229988002A0B89
:1001200055784DA5A48C26B1002B0D880AD589D50C
:100130000E0799580D002C0952DA48502212002D52
:100140000724384B1C022E06220A49102F0FC40820
:10015000CB25896221512C248AA501300FC8085370
:10016000D12CA3221F4B131B0900310AC50A53C609
:100170000E35FD01320FC80853D12CA322513ADCB1
:10018000F170103312C80853D12CA3A2744624175F
:100190004B131B09003413C808530E69129944A469
:1001A0008B4C723848C52A003511C808533989A5C7
:1001B00035536C2C2E4D6C24003612C80853D12CAC
:1001C000A3B26474191589A5898D04370FC8085323
:1001D0003C48C552B154AC2A56043813C80853D110
:1001E0002CA3A24424A35946C5D2C446023912C83E
:1001F0000853D12CA322B134394DC4A5898D043ABA
:1002000008820C4BD021043B0BB2DC4AD0219488ED
:1002100004003C0D880A550B49A4E91C40260B3DFF
:100220000B681A553CC8910E07013E0D880A558887
:10023000D901D311A318003F10C70AD5540E329A22
:10024000543854954395004023EDEA605A8732397B
:100250002414AB906421594CA426528B89944821D4
:10026000519A482687CEE48022004119CB0859CE06
:1002700021734059229D0C65B225A9E82039D80187
:100280007480004214C90A579C0E11619578A01C15
:1002900022C22AF14039014317CA0AD9154FB3893E
:1002A000B40E9043E49039442A998D8E250044156C
:1002B000CA0A59180F21E1442A919659AB12E1E478
:1002C000103202450EC80A553C90952F17B1F2E145
:1002D00020460DC80A553C90952F17B1CE00471700
:1002E000CA0AD9154FB389B40E904384378A543261
:1002F0001B1D621401480CCA0A5988391F1EC67C8E
:10030000164907C20A497C184A0CC70AD3EA571A89
:10031000ED20A9004B19CB0A594827C2916C261A27
:100320004AA665AB68289B0947D28978004C0BC860
:100330000A5588F5CF8783004D19CB0A5B4C5D6F5A
:1003400087982516A1A8505448911069441AD16283
:10035000024E15CA0A594C8D468A8C22238948229E
:100360009A842621BA0E4F16CB0ADB556F4B52C921
:10037000B40EA003AA13A96836BBD6005014C90A4C
:10038000579C0E116195F14039C90172801C2007FC
:100390005119DBFADA556F4B52C9B40EA0036A212A
:1003A00089A834A25DEFA010005219CA0A591C4254
:1003B0000789542295082787D021249C48255289F3
:1003C000B43A5312C90A57D52EB3AAD95A07546B57
:1003D000935B09005419CA08553C18E51039440EBE
:1003E0009143E41039440E9143E4102100550DCAA5
:1003F0000A5988F9E7E2E41033015619CA08578808
:10040000C912A1482812CA444291502425D301722E
:10041000881000571ECE085F088544215145A62448
:1004200022299164925044482292A842B1502C94BF
:10043000015814C90A57486B13998AB03A9E162579
:1004400032955955005919CA0857888B13A14C2465
:100450001449C974801C2287C821728810005A0F61
:10046000C80A553C48A7AAC3A9EAF470105B0BF46C
:10047000DA4C1C46FA4F87005C0DC4084BC462B2CC
:1004800034599A2C035D0BF4D84C1C42FA4F870167
:100490005E0D785AD589A53491162151005F071950
:1004A000D8521C04600833AC4D8464016111980A71
:1004B000D3942E32E9C83292C824A7C9006211C869
:1004C0000A5588B58C2EA32263E930918C00630E07
:1004D000980A53D12CA3B2F268622301640FC80AB0
:1004E000556BB21C4645C6D2E43411650F980A55C7
:1004F000D12CC2C3C13C9AD84800660DC40A4D49EC
:1005000026924344A42F006713D8CA544D24875120
:1005100091B134394DC4A5898D04680DC80A558838
:10052000B5500E34221F056909C20A49900E070210
:100530006A0B03CBCA284AF42F17006B14C80A535E
:1005400088B595269251CD3411892632896C006C7C
:1005500007C20A497C186D169C0A5D482893C3217E
:1005600034A2C968329A8C26A3C9680A6E0C980A0C
:10057000554828071A918F026F0E980A55D12CA35F
:100580002263696223017012D8CA54484697519178
:10059000B17498484662CD007110D8CA544D248772
:1005A0005191B134394DC43A720B950A4D480E231E
:1005B00099DE00730E970AD3540E3263B5769054C9
:1005C00000740DB40ACD8824878848A79100750B64
:1005D000980A5508F9ED40A108760F980853088944
:1005E0001291DE8854B10C0077159C085BC8643406
:1005F0001591BE506487E0682A128B6400780F97CB
:100600000A53C86812A5DAAC2451A3097915D8C8D1
:100610005208891299442493C82432EA54AC38957C
:10062000027A0C9708513CCE86C2D9EC707B0EF44E
:10063000DA4C4926225D64229D46027C0701CB48A4
:100640003C087D0EF4DA4C88467A938874998800C9
:100650007E0A383AD5CC446A1300A00500184BA195
:100660000AC2DA4CD022918301A213B8F8D20669EB
:100670009689292691498294898D1805A313C80863
:10068000D30D4B32894C2207488B6271F87008A455
:100690000F772A534426918A8C4D52894C02A5111A
:1006A000C808530889129136AAD028348AD500A6E2
:1006B0000701CD4A9C0EA714F8D852D14C9A89163E
:1006C00059D1243192454A361200A80825A84D4830
:1006D0002802A920CC0859924733B128448A2849D6
:1006E000467180280E9888249210292407C44663F6
:1006F0002200AA0C755ACD889226A110B500AB0E27
:10070000682853A98824226D22994800AC085828EB
:10071000553C8835AD0724384B1C02AE1CCC08591B
:10072000924733B128528A2849469A88132549446A
:100730002924968DC64400AF0615A84D14B00B545D
:100740007ACF48424A110900B10FB80AD589D50EAF
:100750000799581D783808B20C7558CD4C2414915F
:10076000D26100B30C7558CD4CD444428A6402B4B3
:100770000833AA4D454600B50DC8DA5408F9ED70A6
:1007800090909501B620F8D8D21C481152841421BB
:100790004548A15130140C0543C15030140C054399
:1007A000C1500400B706224A4B10B80B45C84C058F
:1007B0002521C90400B908745A4D1D463ABA0B7573
:1007C00058CD4C24B389645CBB0F682A53886422DB
:1007D00099488B48221201BC1FCD0A5D0965C420CF
:1007E0004D2C8B03446AA2D04C2221872252896A65
:1007F000C82615862500BD1CCC085D096334192D5B
:100800002C128BE20089642689284A14836AD25804
:100810004956BE20CD08DD4C631299581696C90181
:10082000A29044CB6814214B22E288AAC418154A2E
:100830002500BF11C7DA5449E55045E1502AA31DF0
:10084000241500C01E0B09D9C56172601C790E9970
:1008500003CA12E96428932D494507C9C10EA003B4
:1008600004C11E0B0959C74172481CC31C320794AE
:1008700025D2C950265B928A0E92831D400708C27A
:100880001F0B09D9C64173402C8E3887CC0165896E
:10089000743294C996A4A283E46007D00102C31DF8
:1008A000FB08594EA29139E21C32079425D2C95057
:1008B000265B928A0E92831D400708C41DFB0859CF
:1008C000C9843239DA1C32079425D2C950265B928A
:1008D0008A0E92831D400708C5210B0959CA21A120
:1008E00038201487C84173C81C5096482743996C18
:1008F000492A3A480E76001D20C61DCE08DF1D6825
:10090000079A440E11C92122394474929DEE80B396
:10091000502C3C0C0F01C71D0ACBD8154FB389B41E
:100920000E9043E49039442A998D8E75401C240E14
:10093000896700C814080B55C50172481C783890A7
:10094000952F17B1F2E120C913080BD586A571E8E0
:10095000E14056BE5CC4CA878300CA14080B5586A2
:1009600087B138E870202B5F2E62E5C34100CB12BF
:10097000F80AD588B4830E07B2F2E522563E1C046D
:10098000CC0B03094984644189FE07CD0B030B4955
:1009900045A612FD2F00CE0D050949C526B1B04C64
:1009A000FF1300CF0DF606498848728850FF1300E8
:1009B000D019CC0859990F41E14C2A931E8487A085
:1009C000483A92CA84B343D008D11AFA0AD94D8260
:1009D0009139786A3452641419494412D124340983
:1009E000D17500D21B0B0B5BC66172601CB17A5BC8
:1009F000924AA675001D509D4845B3D9B506D31C33
:100A00000B0BDB03E22039248E5ABD2D4925D33A46
:100A1000800EA84EA4A2D9EC5A03D41C0B0BDBC643
:100A20004173402C8E56BD2D4925D33A800EA84ED9
:100A3000A4A2D9EC5A03D51BFB0A5B4EA291395AEA
:100A4000F5B624954CEB003AA03A918A66B36B0D4B
:100A500000D61BFB0ADB89A4223952F5B624954C3B
:100A6000EB003AA03A918A66B36B0D00D712990851
:100A7000D54423B3C95A755A9BAC4DA21100D81C5A
:100A8000CB0ADB954287D050249CCC2434114946B4
:100A9000914D8622E1E8100AD500D9130A0BD9C579
:100AA0004172581C41CC3F172787980900DA130A76
:100AB0000B59C72172401C45CC3F17278798090066
:100AC000DB120A0BD9C621E3581C2AE69F8B9343FD
:100AD000CC04DC11FA0A59298AE45031FF5C9C1CD1
:100AE000622600DD1E0A0957C72172401C455C9C26
:100AF000086522A1484AA603E41039440E914384B4
:100B000000DE14C90A57C801A7434458653C504E3B
:100B100072801C2007DF14C80AD5942E32894C221B
:100B2000194928425E28921100E016D80A53C501DF
:100B300072481C5ABAC8A423CB4822939C2603E1CE
:100B400014D80AD386A57170E922938E2C23894C80
:100B5000729A0CE215D80AD38587B138B0749149DE
:100B60004796914426394D06E315C80A534D4291E4
:100B700039B07491494796914426394D06E414C81A
:100B80000AD3A849E4C0D245261D59461299E43437
:100B900019E516D80AD34943C1505458BAC8A423FA
:100BA000CB4822939C2603E6179D0ADF5448878A88
:100BB0004C283C480E879058443A1C424C00E7139E
:100BC000D8CA52D12CA3B2F26862A3C601C29070F7
:100BD00006E814D80A55C50172481C4CB3080F0723
:100BE000F368622301E913D80AD586A571049A45F2
:100BF00078389847131B0900EA13D80A558687B13D
:100C0000389066111E0EE6D1C44602EB13C80A5591
:100C1000496412399066111E0EE6D1C44602EC0BEF
:100C2000D3084984644189FE00ED0BD30A4945A6E7
:100C300012FD0500EE0CD50849C526B1B04C7F0267
:100C4000EF0BC5084948286299FE04F011C80AD57F
:100C5000884BE5996554642C4D6C2400F110C80A4A
:100C6000554D4291394C4239D0887C14F213D80A40
:100C700055C50172481C4CB38C8A8CA5898D04F330
:100C800012D80A5586A571149A6554642C4D6C24AB
:100C900000F413D80AD58587B13894661915194B15
:100CA000131B0900F513C80A554D42913994661972
:100CB00015194B131B0900F612C80AD5A849E450B0
:100CC0009A6554642C4D6C2400F70E880AD589E58A
:100CD000C0C3410E14CB00F812980A555122875117
:100CE000C92231950E93080900F910D80A55C5019B
:100CF00072481C28E4B7038522FA0FD80A5586A546
:100D000071B090DF0E148A00FB10D80AD58587B128
:100D1000384CC86F070A4500FC0FC80AD5A849E43B
:100D20003021BF1D281401FD1918C9D286A571A84C
:100D3000902891494432894C22A34EC58A532900F8
:100D4000FE1308CB5488B58C2EA32263E930918C16
:100D5000C49A01FF1A08C95249641239484894C814
:100D600024229944269151A762C5A91400000000CD
:100D700004FFFF00001200050506060504072020F9
:100D800000002000200000500000037640501C08A6
:100D9000110C094C060942408210902004240801DD
:100DA0000942420421218290104108821012410818
:100DB000892084441042220821118490084248046A
:100DC00021648820244410122208091184840842D6
:100DD000408210902004240881C92100413B1C0757
:100DE000198C493320441C08F10A42B483102B218A
:100DF000445A08FE2304810851089110A210E420EF
:100E0000442911C210672084215240085334E21053
:100E10008D3805266521024228E00711FC844E6CBE
:100E2000232318B94A65A61321083DA951CB4A18B6
:100E3000C28E56B8E1850F041F1CF9C0FF010443A0
:100E400038200719DC8CCB4C2742CF30462B54B1CD
:100E50000A5628C2118A70442220810848200212B2
:100E60008880042220810848200212E58047402023
:100E7000FC079160482300440D1846190C1004FF2C
:100E8000FF7F080145281746190C023BD0421E304F
:100E9000710B6BD4832233914A7CE00385984864BC
:100EA0001ED4A88525EE80851C6860014622184660
:100EB000199C8CC72C2741472AD4B0842D7CE00F85
:100EC00050C112B64115E940C959CC33120047450B
:100ED0001F1619EC821734C1096C68832A56910CCD
:100EE00065A0231D263949518C4296B2886634C1CB
:100EF000115DF0C2131CE188663464294B518C6289
:100F00009293A0231DC950862A56C1863634C10942
:100F10002E7801483E1F06190C821738511BB1620A
:100F200015CA944E2839895195156946235CE10903
:100F30005EE884139AD188A52C44314A494E628ECA
:100F400074204319A958851ADAC00427B4E0050EA5
:100F50000049271C06190C9099480532CE69CF8AA2
:100F6000D2842863116C6461373282190B51695A3B
:100F7000517B9C0319A9CC004A281C06190C82A994
:100F800048063AEE69D19A12852C83916C6C610BFC
:100F9000D9C088652834A5683DCD710C54643211E0
:100FA0004B0B1846190CFEFF7F40024C35184811B8
:100FB000AC88694404A297848214211004FD578CE4
:100FC0004204A210A508842344C18A51A8A218C6CD
:100FD00038507216F38C495032C82C274108220031
:100FE0004D4A2008115C9717AD2A5D081F6A0E81D3
:100FF0000C47200212888004222081084820021217
:1010000088800422188208A520222D88480B4110D0
:101010002314C484053161415852029394C028447A
:10102000308C288A552EA2090C004E3E200811CC87
:1010300090EA40A951CB4AD8D10A4794108D454433
:1010400062218F588A139893214C59ABA62C849D0A
:10105000262CC5110B79C422A2A1848870453B5867
:10106000B216D524E85484014F55200811DC064EF1
:10107000DA8536C8300D62BC831C0D2108818E31A3
:10108000A054084815015A44808850880091A15006
:101090008420142108450842118250642814110A42
:1010A00011A045044815014A85808EB11082B48391
:1010B0001CCF200634C8400B4EEA03040050291808
:1010C0004811DC064A9A8534C50322083E22088866
:1010D0000C0122F4C81020220808C141241ED23479
:1010E0000B4AAA030200511A108811DC06465A85E1
:1010F00032A5037DE0FF0084907428D32A18A90D3F
:1011000000000004FFFF00001300050506060404AC
:10111000072020000020002000004A0000038A4031
:101120004A2088087E4227B69191AB58A516A2980E
:10113000052962618A57A0A215AA60852ACC07FEFC
:1011400000413084870AA188021104210422084248
:101150000844108410882008211041104220822069
:10116000844085504481F01100412420880856CCE9
:10117000742204214820021288800422208108F46D
:1011800081FF1F5882F7C1950FFC1F4000421E20AF
:10119000860C06FF00F1C1910FFC1F600841284238
:1011A000108A10842204F9C01FA000433720880849
:1011B0009E0656A813218810E2218670071A1A820B
:1011C00008862082218860892998428C55A94A592D
:1011D000C94A17BA52A5A805BDC8496D620C653F3A
:1011E0000A00441A18C8084E06541AB31C55902217
:1011F00015A640E428F9231FF8FF030C45651C8859
:10120000088E065522F39C66908219A650062292FB
:1012100091086428E2188B30C62A8AB18A622C832E
:10122000184238063104518C52086318A518C5308D
:101230000C318A61186214C338C420868188410841
:1012400023116311C121083206431463148628C494
:10125000304CA10C54202319C6585073A0420D07DE
:1012600000462B20880856C4363282D1B2A18D8820
:1012700021FC2708F1850FFC0344C0042114A2A01F
:10128000C42408FDA1C4242831090200472C208869
:1012900008EE811FB6914D18B9884DD585AEEA721A
:1012A000916C6C421666884711627295BA5E55EA77
:1012B0004297AAA2CB3530004835D8C708564325F7
:1012C000A61191A7348631CB4910828E5428420D45
:1012D0004BD8C2072C5111BAF204A23482408A289A
:1012E00050320C83946320074ACE5A0E00493520B1
:1012F000860C2E56C2100E11904004241001094491
:101300004002119040042410010944400211904011
:10131000042410010944408230080F7DE0079EE05C
:1013200005004A4F20880856886524F4A4769863FF
:1013300019CA48852B10018953C0C2109228852CE8
:101340000841094250821094200425084109425066
:101350008214B22884244C018B43400215CE40866F
:101360004AD06118944B98428872138CE443170159
:10137000004B1614C808063F6031F4FF3FF6014BDE
:1013800044042291F880044C1D1A98085E84257349
:101390004C6B98B39E7591BBF52C87358D71842568
:1013A000FFBF05004D49DC8709668445A62295C824
:1013B00040B62414A608A1200A6184228EA0110B35
:1013C000492B5292610413188211262C642908417A
:1013D0001042108410E42444190B59024330F20CDB
:1013E000831863380529DE608618A020014E4C1C46
:1013F000880846010FB6A0874C5CC31E143595B80B
:1014000040E63524504D09905304E398A1388618DE
:101410008E3144738ED01824300709CBA1CE1290A0
:10142000C304C434E1388D308C3308F390C138469E
:1014300028CF098A9302D20C004F1918C70C4E0608
:10144000541AB31C55902215A640E4FFC807FEFFAE
:101450000003501E2088080E5EF8C00F1C18FDFF08
:10146000F0077EE0085E43309AA496953084110020
:10147000511DDC87092653A21085A6C640F653D815
:10148000D0C207324660F27F59D0420300521A1C84
:101490008808067FE0A2E8FF7FF4031F5844463027
:1014A00092890F7CC0080000000004FFFF000000CC
:1014B000000000230026002900000000002400276F
:1014C000002A0000000000250028002B000404046E
:1014D00004040404040202020202020303030303DD
:1014E00003010204081020408001020408102001BA
:1014F000020408102000000008000201000003049C
:10150000070000000000000000BF00030204040206
:1015100004050B0DFFFE08FE08FE015502BF08760C
:10152000200500E604210681E3C4252207233B456C
:10153000A204231076A2559225D12025C920255931
:1015400012012410A59E55B654946C4BA244A96C6C
:101550001100251188628ED492293910E740A22506
:10156000514901260D86238E16B56951A225912970
:10157000270621BA8400280BA31A551225515B9423
:1015800005290CA31B451665514B9444002A0733CB
:101590003645D2012B0A55A655180D5218012C07B5
:1015A00032DA4CA2002D06132EC5002E0611E3449C
:1015B000002F0A83E254256A892200300A85A2CDD1
:1015C00092F9962C00310782A3CDD207320C85A266
:1015D000CD928525290B0701330C85A2CD928591EB
:1015E0001A6AC902340E85A25D262551524A062D7B
:1015F0004C00350C85A2CD9084E11A6AC902360CE4
:1016000085A2CD92894392D99205370B85A2C52038
:1016100066C52CAC01380C85A2CD9269C992D992CD
:1016200005390C85A2CD92D99221D492053A066152
:10163000E344183B0982DA4C0E250A003C0753A705
:1016400055522B3D08346AC5100E013E0853A7457C
:101650005629013F0C84A38D1265512D07220040AD
:10166000169ADEDE20A651A4245249C92225AA4496
:101670008A96638306410E87E25D9C2661929506F9
:10168000255503420D85E3C59064DAA064B6410197
:10169000430C8623CE90846AC7644800440D862399
:1016A000C6106549E82D192200450A85E3C5311C9D
:1016B000C6E220460A85A3C5311C92B011470C86AC
:1016C00023CE90846A6D149341480A862346681C91
:1016D00006D131490681E3C4414A0984625D6F52F3
:1016E000A2004B0D85E3452625A5A9122599164C88
:1016F0000884A345D6B7214D10876346BA0DD95249
:10170000512A52244552014E0F862386B629911242
:10171000498994689B004F0B8623CE90843E2643D4
:1017200002500C85E3C59064DAA0848D00511297B5
:101730001FCE1085499884499844494D1A74205207
:101740000C85E3C59064DAA0646E01530C85E3CD8B
:1017500092A9ABA6250B0054098562C520857D02A0
:10176000550A862346E8C7644800560F87E245AA13
:101770002659944559254CD20C57108962469669D2
:1017800095A82F6DC52CCC2200580D85E345A625C4
:10179000B54A94D4B400590E87E2459A645156096B
:1017A0009334AE015A0B85E3C52066C5AC38085B9F
:1017B00008A2DBC4D22F025C0A83E24494456D5137
:1017C000005D08A2DA84D22F035E0A55AE55982533
:1017D00051520B5F06169AC501600622FE44146141
:1017E0000C6562C51A2D5112454A00620C85A2454E
:1017F000583169DAA42800630A64628D1269A5442D
:1018000001640A85A265C5B4991425650B64628DCF
:10181000120D5B942800660A842295124D59270008
:10182000670C859A8D6933294A982C00680A85A22D
:10183000455831696E01690781A244320C6A09A2D8
:10184000994C96F4A2006B0C8462455652122929D9
:1018500049016C0681A2C4416D0E6722C6A2449163
:101860001449911449056E0965A24562D2DC026FE4
:101870000A65A2CD92B9250B00700C859A4562D2FB
:10188000B44951C210710A859A8D6933294A587238
:1018900009632245B2444D00730B64628D1225A288
:1018A000942800740A83224D942C51930075086487
:1018B0006245E42919760C65A245A625A5240B23CB
:1018C00000770E672246144995A6A49684490478A9
:1018D0000A65A24596D42A352D790E85594D944432
:1018E0004929C9B430D2007A0A6462C590456D4373
:1018F000007B0AA3DA541255B2A82D7C07A1DBC4E1
:1019000043007D0BA3DA4416D592A825027E072654
:10191000EE8D6401A00500E604A10781DB44320CD2
:10192000A20E859F5DB45494288992CA9401A30C99
:1019300085A29554C9B6B0A42800A40C6466459449
:10194000289194285100A50D85A245664B2A831441
:101950000D5204A608A1DBC4100D01A70FA59ACD56
:10196000928D4B3444C9B8250B00A80613FE4412CF
:10197000A90E7763D65689142593945A3601AA087E
:10198000532EC5A46403AB0A55A255D25B92250120
:10199000AC0735EBC52016AD06132EC500AE0D778E
:1019A00063D656491693D22D9B00AF0613FEC40092
:1019B000B00944328D12498902B10C75A255180D37
:1019C0005298038300B20743F2CC5219B30843F292
:1019D000C4922D00B40622FE8C02B50A845A45E456
:1019E00069D83200B615A69ACD3028C9922C9192AA
:1019F000255992255992250900B70612EE8400B8A0
:101A00000622DACC00B90642F2CC52BA09532EC5EE
:101A1000900CD900BB0B55A245922559D21300BC9E
:101A20001389624E966961944639908591160D51DD
:101A30009800BD1088624E1669A5308A232D29654D
:101A4000A501BE138962C60E646994493912859155
:101A5000980C519800BF0C849B550E64512D4A146C
:101A600000C010B7E2550EE470350993AC3428A9D4
:101A70001AC110B7E2659AC3D5244CB2D2A0A46AA9
:101A800000C211B7E25D9AE4689C26619295062532
:101A90005503C312B7E25D9225391AA7499864A588
:101AA0004149D500C410A7E25592A3719A844956C2
:101AB0001A94540DC510B7E25D9AA471350993AC20
:101AC0003428A91AC61289A2DEB0C9499C0C4A94CE
:101AD0000E6116668300C70DA61BCE90846AC7648C
:101AE000084309C80DB5E34D9A03C770188B8300EE
:101AF000C90CB5E35D1D3886C3581C04CA0DB5E397
:101B00005596C4C3180E637110CB0CA5E34D79181C
:101B1000C3612C0E02CC09B2E2449425FD00CD092C
:101B2000B2E38C96F40B00CE09B3E24C63D42F00E1
:101B3000CF09A3E2441246FD02D0118722CE909530
:101B4000C2414AC2244CB2688800D112B623561250
:101B50002539A26D4AA444522225DA26D20EB62394
:101B6000569C434312FA980C0900D30DB623661D08
:101B70001A92D0C7644800D40EB6235698E4D09089
:101B8000843E264302D50FB623561225393424A1AC
:101B90008FC99000D60EA6234E94234312FA980CB8
:101BA0000900D70A55A64596D42AB500D812A61F13
:101BB0006E3224D99448891229D1960C490AD90C3D
:101BC000B623569C23A11F932101DA0CB623661D70
:101BD00009FD980C0900DB0DB6235698E448E8C7C8
:101BE000644800DC0CA6234E9403A11F932101DD61
:101BF00010B7E2659A6369924559254CD2B806DE62
:101C00000D85E345180E49A60D4A1802DF0B8462C4
:101C10008D12594A2E0900E00E95624D9A036BB45D
:101C20004449142901E10E95625596236BB4444949
:101C3000142901E20E95625596C46BB444491429E7
:101C400001E30D95624D77608D9628892225E40C7D
:101C500085624D798D9628892225E50F95625596E6
:101C600064D11A2D5112454A00E60E6722C622465B
:101C7000C930445954B100E70C845A8D1269A54407
:101C80008B1400E80C94624D182BD1B0458902E901
:101C90000C9462551D50A2618B1205EA0D94624DA1
:101CA00094C44A346C51A200EB0C846245122BD1CF
:101CB000B0458902EC0892A14494253DED0892A21A
:101CC0008C96F402EE0993A14C63D40B00EF0983C8
:101CD000A1441246BD00F00D95A24D3848D1A0B9DF
:101CE000250B00F10A94624DA2A44BE429F20C9555
:101CF000A24D9A234BE6962C00F30B95A25D1D593D
:101D000032B76401F40D95A25596E4C092B9250B43
:101D100000F50C95A255D20E2C995BB200F60B85FE
:101D2000A24D1D5832B76401F70A55A6550E0C3A5C
:101D30001001F80D67A1D552929292544B9209F975
:101D40000A94624D98469E9201FA0A94625D944606
:101D50009E9201FB0A94624D94A491A764FC0A84AC
:101D6000624592469E9201FD10B559659603511247
:101D700025A524D3C24803FE0DA59A45583169DA3A
:101D8000A4286108FF10A5594D1D8892282925997E
:101D900016461A0000000004FFFF00004C2011242A
:101DA0001FBECFEFD8E0DEBFCDBF11E0A0E0B1E0B5
:101DB000E8EAFCE402C005900D92A03EB107D9F715
:101DC00027E0A0EEB1E001C01D92A637B207E1F70F
:101DD0001EE0CFECDEE004C02197FE010E946D23DF
:101DE000CE3CD107C9F70E94E0210C9452260C94F6
:101DF0000000662329F06A3019F0862F90E00895DC
:101E00008FEF9FEF08950F93CF93DF93DC01ED9158
:101E1000FC915089362F3770E0E8F0E002C0F5956C
:101E2000E7953A95E2F73E2FA52FB0E0FC01C0AD53
:101E3000D1AD669566956695E62FF0E0549FE00D6E
:101E4000F11D1124EC0FFD1FEC01C758DF4F0111EC
:101E500016C08881823018F49081932B90838881FA
:101E6000813019F0908193279083369511F4319643
:101E700030E8215071F7DF91CF910F91089588815B
:101E8000823018F49081932B90838881813019F0EF
:101E9000908193279083EA0FFB1F215081F7EBCFAE
:101EA00080E0089580E00895CF93DF93C3EFD6E0FC
:101EB0008FAFEAADFBAD0190F081E02D87EF96E0AA
:101EC0000995EAADFBAD0280F381E02D87EF96E046
:101ED000DF91CF91099482E08093700708953FB716
:101EE000F89480918C0290918D02A0918E02B09115
:101EF0008F0226B5A89B05C02F3F19F00196A11DA2
:101F0000B11D3FBFBA2FA92F982F8827BC01CD0143
:101F1000620F711D811D911D42E0660F771F881FA2
:101F2000991F4A95D1F70895833081F028F48130C4
:101F300099F08230A9F008958730A9F08830C9F06F
:101F40008430B1F4809180008F7D03C08091800047
:101F50008F7780938000089584B58F7784BD08952E
:101F600084B58F7DFBCF8091B0008F778093B000D8
:101F700008958091B0008F7DF9CF1F93CF93DF93A9
:101F8000282F30E0F901EB50FB4E8491F901EF511D
:101F9000FB4ED491F901E353FB4EC491CC23A9F03D
:101FA000162F81110E94940FEC2FF0E0EE0FFF1F0F
:101FB000ED53FB4EA591B4918FB7F894EC911111AC
:101FC00008C0D095DE23DC938FBFDF91CF911F91A6
:101FD0000895DE2BF8CFCF93DF9390E0FC01EF5113
:101FE000FB4E249183539B4EFC0184918823D1F0B6
:101FF00090E0880F991FFC01E754FB4EA591B49126
:10200000FC01ED53FB4EC591D491623071F49FB742
:10201000F8943C91822F809583238C93E8812E2B1A
:1020200028839FBFDF91CF9108958FB7F894EC91EB
:102030002E2B2C938FBFF6CFAF92BF92CF92DF9211
:10204000EF92FF920F931F93CF93DF9300D000D0B6
:102050001F92CDB7DEB78C01DC01DA96AC90DA972F
:10206000DB96EC90DB97ED91FC91B188FE2CD12CA6
:10207000C12CD801ED91FC9111978089D8962D91B2
:102080003C911C82FD828B83B8E08B9FC0011124A0
:102090008C9DA0018D9D500D9C9D500D1124240FF1
:1020A000351F3A832983D8011496ED91FC919E0146
:1020B0002F5F3F4F41E06FE0C8010995F3948F2DEA
:1020C0008E198A1528F4BFEFCB1ADB0AFB1488F2AD
:1020D0000F900F900F900F900F90DF91CF911F9165
:1020E0000F91FF90EF90DF90CF90BF90AF90089549
:1020F000DC011A96ED91FC9130E020E009940F93F9
:10210000FC01EB5BFF4F308131965081451730F475
:10211000301738F0041728F080E013C03017D0F3E0
:10212000FBCFFC01ED5BFF4F30818C5B9F4FFC01CF
:102130008081681740F481E0321718F081E026179B
:1021400058F70F9108953217C8F3E6CF9A01DC01D2
:102150001896ED91FC91462F67E10994CF93DF9398
:102160001F92CDB7DEB76983AE014F5F5F4F61E06D
:102170000E94A6100F90DF91CF910895CF92DF9229
:10218000EF92FF920F931F93CF93DF93EC01142FE5
:1021900079016631C1F130F4643149F06531A9F05B
:1021A00080E040C0673109F446C06A31C8F7E8856D
:1021B000F9859701412FCE01DF91CF911F910F91AA
:1021C000FF90EF90DF90CF90099468EF0E94AE10DF
:1021D00041E06CE2CE010E947810612F607FCE0159
:1021E0000E94AE1041E06CE2CE010E947810612F97
:1021F0006295607FCE010E94AE1041E06CE2CE019C
:102200000E9478100EC068EF0E94AE10612F607FB0
:10221000CE010E94AE10612F6295607FCE010E94B8
:10222000AE1081E0DF91CF911F910F91FF90EF9061
:10223000DF90CF9008956AEF0E94AE1041E06CE20B
:10224000CE010E947810DE2CCF2C012F083008F52B
:10225000012F069506950695D12E88EF089FD00C84
:102260001124E8E00E9F800111240E0D1F1DDD20BA
:1022700021F2F801F1908F016F2D607FCE010E9455
:10228000AE106F2D6295607FCE010E94AE10DA9481
:10229000EECFA7E7B2E0ED2DFC2D9F01285F3F4F69
:1022A0008191982F907F9C938295807F11968C933B
:1022B00011971296E217F30799F7DE2ECF2E0850EA
:1022C00047E752E060E1CE010E94A610BFCF0F9316
:1022D000DC01DE963C91DE97431BD496ED91FC9198
:1022E00009950F9108952F923F924F925F926F92AE
:1022F0007F928F929F92AF92BF92CF92DF92EF9296
:10230000FF920F931F93CF93DF93EC014C0183E473
:10231000880E911CF4011082329720805E01F4E453
:10232000AF0EB11CF50120823FAC6E01F5E4CF0E7B
:10233000D11CF6013082359740807E01F6E4EF0E25
:10234000F11CF701408234961081329760803196FB
:10235000708032975080012F262D472D652DCE019C
:102360000E947F10CD58DF4F811114C01882DF9179
:10237000CF911F910F91FF90EF90DF90CF90BF9082
:10238000AF909F908F907F906F905F904F903F9015
:102390002F90089581E08883552011F0F401508238
:1023A000621410F4F5016082371410F4F6017082A3
:1023B0001415E8F6F7011083DACFCF93DF93FC0111
:1023C000A081B18182AD982F990F990F990F95AF88
:1023D00050969C915097903208F09FE1990F990F79
:1023E000990F94AF23AD922F990F990F990F96AF34
:1023F00051963C915197682F620F7727771F3617B8
:10240000170614F4832F821B97AFEF01C05CDF4FD8
:10241000880F880F880F890F8883219680EF888323
:1024200054968D919C915597813F910508F488832E
:10243000EE5BFF4F56968C918083DF91CF9108958C
:10244000DC011696ED91FC9130E020E040E069E17E
:102450000994DC011696ED91FC9130E020E040E01B
:1024600068E109949A01DC011696ED91FC91462FE2
:1024700067E10994EF92FF920F931F93CF93DF933D
:102480001F92CDB7DEB77C018B01D8016C9167310B
:1024900029F150F46531A0F40F90DF91CF911F9195
:1024A0000F91FF90EF9008956A3118F16E3FA1F7F8
:1024B000F8014181498369E2C7010E9478100BC08D
:1024C000F80141814983D7011696ED91FC9130E0E6
:1024D00020E0C70109950E5F1F4FD7CFF80181811A
:1024E0008983AE014F5F5F4F61E0C7010E943212E6
:1024F000F2CF0F5F1F4FD7011696ED91FC9130E0A0
:1025000020E040E0C7010995C0CF462FDC011696B8
:10251000ED91FC9130E020E065E10994DC01149636
:10252000ED91FC9130E020E040E060E10994AF9251
:10253000BF92CF92DF92EF92FF920F931F93CF93B0
:10254000DF93EC01693089F489E491E09983888311
:102550001C8A81E0DF91CF911F910F91FF90EF9046
:10256000DF90CF90BF90AF90089579016B3009F460
:1025700040C06F3009F444C080E06A3059F7EA8502
:10258000FB8530E020E040E068E2CE010995EE8175
:10259000FF8130E020E040E064E1CE01099541E0B8
:1025A0006BE4CE010E947810E881F981448169E2F0
:1025B000CE010E94781040E06BE4CE010E947810BA
:1025C000E881F981448169E2CE010E94781041E0FE
:1025D0006BE4CE010E947810E881F981458169E2BF
:1025E000CE010E94781066E371E0CE010E943A129B
:1025F000B0CF6FE271E04423C1F364E271E0F5CF44
:10260000F9010481000F000F000F138116950032AD
:1026100010F00052185FCE010E942912F701A0802D
:10262000B1806EE3CE010E9485126EE3CE010E945E
:102630008512D12C1068602F6D0D6068CE010E944C
:102640008512612FCE010E948512F701C280A5017B
:102650006C2DCE010E943212AC0CB11CD394F8E068
:10266000DF12E9CFCE010E94201273CF213039F062
:1026700020F0223031F0840F0895860F0895841BD6
:102680000895861B0895213039F020F0223031F072
:10269000861B0895840F0895860F0895841B08955E
:1026A000DC0118964C911897ED91FC9111972491AB
:1026B00030E0042E02C0359527950A94E2F7842F66
:1026C000860F883068F031961196FC93EE93E49172
:1026D00098E0941B01C0EE0F9A95EAF72E2B8850D4
:1026E00018968C938FEF9FEF01C0880F6A95EAF7D9
:1026F000809582230895FC01E60FF11D849190E0FE
:10270000982F88273196E4918E0F911D0895CF92CE
:10271000DF92EF92FF920F931F93CF93DF936C01A1
:102720002BE4C20ED11CD6012D913C911197261796
:10273000370709F4A2C0EB017C016D937C93FB0188
:1027400084918701045A1F4FD8018C933196E491EC
:102750001196EC931197FB013296E4911296EC934B
:102760001297FB013396E4911396EC931397FB01B8
:102770003496E4911496EC931497FB013596E4910A
:102780001596EC931597FB013696E4911696EC930B
:102790001697FB013796E4911796EC931797FB0178
:1027A0003896E4911896EC931897FB013996E491CA
:1027B0001996EC931997FB013A96E4911A96EC93CB
:1027C0001A97FB013B96E4911B96EC931B97FB0138
:1027D0003C96E4911C96EC931C97FB013D96E4918A
:1027E0001D96EC931D97FB013E96E4911E96EC938B
:1027F0001E97FB013F96E4911F96EC931F97FB01F8
:102800007096E4915096EC9361E1CE010E947B13A7
:10281000F801928B818B63E1CE010E947B13D8017A
:1028200054969C938E93539765E1CE010E947B133F
:10283000F801968B858BD6018D919C911197892BF0
:10284000E1F03D968081E701CB58DF4F88833196D8
:1028500040819B964C933A969081992371F09130E8
:10286000A9F43997908189170CF49883F701E459FA
:10287000FF4F808184170CF48C93DF91CF911F91CF
:102880000F91FF90EF90DF90CF900895F701EA59F4
:10289000FF4F308132962081082E000C990B622F59
:1028A000022E000C770B630F711D37FD7A9586178A
:1028B000970714F4320F38832417FCF62C93DDCFDE
:1028C0000F93DC01802FFD01ED58FF4F908199237C
:1028D000E9F12223D9F1223020F0023079F56F5F3F
:1028E000621B082F0170FD0180FD32C0EB5BFF4FC2
:1028F0008081481758F131968081481738F5329712
:10290000908131978081260F2617F0F46917D8F44B
:102910002FEF290F8217D0F4681708F4682F2917B2
:1029200008F4922F961BD696ED91FC91D7970480D0
:10293000F581E02D292FCD01099508C0033089F6D6
:102940004F5F421BCECF682F691720F30F91089578
:10295000ED5BFF4F80816817C8F33196808168175F
:10296000A8F73296908131978081240F241778F44C
:10297000491760F42FEF290F821740F7481708F422
:10298000482F291708F4922F941BCDCF482F4917B1
:10299000E8F6F2CF5F926F927F928F929F92AF9202
:1029A000BF92CF92DF92EF92FF920F931F93CF933C
:1029B000DF935C01162F642EEC01C15BDF4FDC80DE
:1029C000ED804C0189E7880E911CFE80FD18C12E18
:1029D000F11608F4CF2C5B800C85202F4E2D6D2D29
:1029E0008A810E943613782E202F4E2D6D2D852D35
:1029F0000E944313482F662071F08A85F40180837A
:102A00002C2D672DC5010E9460141F1548F01F1959
:102A1000E394D12CDACF89858111F7CF8B85EECF66
:102A20001D0D1C83ED82DF91CF911F910F91FF90BF
:102A3000EF90DF90CF90BF90AF909F908F907F905E
:102A40006F905F9008956F927F928F929F92AF9256
:102A5000BF92CF92DF92EF92FF920F931F93CF938B
:102A6000DF93EC01062F142F7901FC01E55AFF4F8B
:102A70008081813009F445C0D0F1823009F44BC027
:102A8000833009F452C0FE01EF5AFF4F00833196A4
:102A9000108337978081918147962FEFE216F104DA
:102AA00011F008F0E6C0E1E6EE16F10408F447C0C4
:102AB000FE01E159FF4F20813181820F931F9C015C
:102AC0002F5F3F4FF9014491411142C0712C872D76
:102AD000DF91CF911F910F91FF90EF90DF90CF90FA
:102AE000BF90AF909F908F907F906F900895FE0160
:102AF000E35BFF4F0190F081E02DCE010995180FA7
:102B0000C2CFFE01E35BFF4F0190F081E02DCE01CB
:102B10000995081BB8CFFE01E35BFF4F0190F081E0
:102B2000E02DCE010995181BAECFFE01E35BFF4FF0
:102B30000190F081E02DCE010995080FA4CFF1E4BA
:102B4000EF16F10408F4BBCFFE01E359FF4FB3CFFA
:102B5000FC0144914E151F0409F086C002960097AF
:102B600009F4B4CF7E01FFE4EF0EF11CF70191836D
:102B70008083108671966081C7010E945013F7010F
:102B8000868372966081C7010E945013A82EF701B8
:102B900087836E01F9E7CF0ED11CF6019081F70112
:102BA000928781E0911180E0F7018387FE01EE5961
:102BB000FF4FB0806B2DC7010E945013882EFE017D
:102BC000ED59FF4F1081612FC7010E945013982EBD
:102BD000FE01EC59FF4F0081602FC7010E94501386
:102BE000015041E050E09A0101C0220F0A95EAF736
:102BF000782E721AF701068110160CF068CFBA947D
:102C0000CA0101C0880FBA94EAF7881AB4849A0CF2
:102C1000115001C0440F1A95EAF7F42FF9199F2EAD
:102C20002B2D4F2F682DF70182810E943613182F0C
:102C3000F70182832B2D492D682D83810E94431338
:102C4000F7018383F1E0BF1609F47CC0BF1608F4D6
:102C50003FC022E0B21609F47BC093E0B91609F434
:102C600082C0082F212F38C0F9012491820F911DB5
:102C700026CFFE01EF58FF4F00811181080F191F69
:102C8000680160E0C6010E947B13080F191F62E013
:102C9000C6010E947B13F4E0CF0ED11C8E159F0558
:102CA00080F3F801849190E0982F88273196E49181
:102CB0008E2B009709F40ACFE816F90619F4C8011B
:102CC00003964DCFF8013296E4910E0F111DE9CF16
:102CD000202F210F082F0A0D482F612FCE010E94AF
:102CE0007F10882309F4F3CEF701148215828E0138
:102CF000025A1F4F4E01FFE58F0E911CF8016081B3
:102D0000C7010E945013682EF4016081C7010E9420
:102D10005013B82E40E0662DCE010E94CA1441E047
:102D20006B2DCE010E94CA1461E0C7010E945013AE
:102D30008111F0CFF70185818A1504F38285F601B0
:102D40008083C5CEBA1821E0210F080F1B0DC4CF18
:102D500091E0392F301B21E0210F9A1901E0080F73
:102D6000890F130FB9CF212F2A0D982F901B01E047
:102D7000080F81E0890FB0CFAF92BF92DF92EF9240
:102D8000FF920F931F93CF93DF93EC01162F042F25
:102D9000188E7901D12C5C012BE5A20EB11CF70134
:102DA00061917F01EA81FB81CE0109958F3F9807F0
:102DB000E9F08E3F2FEF920791F39C01402F612F96
:102DC000CE010E942315F5019081913049F030F039
:102DD000923041F0933041F0D80EE1CF180FFCCF84
:102DE000080FFACF181BF8CF081BF6CF8D2DDF91F7
:102DF000CF911F910F91FF90EF90DF90BF90AF9018
:102E000008958F929F92AF92BF92CF92DF92EF92EE
:102E1000FF921F93CF93DF93EC016C32B0F46A32D0
:102E2000E8F5683241F1693209F445C080E0603468
:102E3000B0F16F73FE01E60FF11D868D8F3F71F1CA
:102E4000603108F06EC0642F13C06D3209F457C0B2
:102E500068F384EB860F823048F76F73C60FD11D7D
:102E60008E8D41115AC061E00E94EB0F60E08E8DA3
:102E70000E94BD0F13C07C012EE1E20EF11CD0E0D8
:102E8000F70181917F018F3F31F061E0D03108F08F
:102E900062E00E94EB0FDF5FD63191F781E0DF91B6
:102EA000CF911F91FF90EF90DF90CF90BF90AF90A8
:102EB0009F908F900895C42ED12CF12CE12C0E946C
:102EC0006F0F4B015C01C114D104E104F10431F333
:102ED0000E946F0F681979098A099B09683E73403F
:102EE0008105910580F3F1E0CF1AD108E108F108DE
:102EF00028EE820E23E0921EA11CB11CE4CF85E0D7
:102F000090E0433010F082E090E0880F991F880F26
:102F1000991F05970197F1F7C1CF62E00E94EB0F6F
:102F2000BDCF282F30E0F901EB50FB4E8491F90121
:102F3000EF51FB4EF490F901E353FB4E1491112332
:102F400079F081110E94940FE12FF0E0EE0FFF1F46
:102F5000E155FB4EA591B491EC91FE2281E009F47C
:102F600080E0898F9BCF08958FEF9FEF08958FEFBB
:102F70009FEF08958091750290E091958195910958
:102F8000089520912B02260F3327331F213231055C
:102F9000ECF420914F02FC0190E080E0243069F0D5
:102FA00082E00895A0912B022191AC01455F5D4F15
:102FB000A40FB52FB11D2C930196861798F380911D
:102FC0002B02680F60932B0280E0089581E0089542
:102FD000CF93DF93CB01EA01642F0E94C117CE018A
:102FE000DF91CF910895CF93DF931F92CDB7DEB7D6
:102FF000698361E0CE0101960E94C11781E090E0F3
:103000000F90DF91CF9108950F931F93CF93DF938C
:10301000EC018B018A819B81DC01ED91FC91019097
:10302000F081E02D09951D830C83DF91CF911F91D5
:103030000F910895DC0112968D919C91009739F0C3
:10304000DC01ED91FC910190F081E02D099408954F
:10305000DC011296ED91FC910480F581E02D8481D4
:103060009581DC01ED91FC910280F381E02D0994C2
:10307000DC011296ED91FC9113976930710579F09E
:103080006B30710541F10480F581E02D84819581DB
:10309000DC01ED91FC910190F081E02D099490818B
:1030A000992359F0915090832281338186E0989F33
:1030B000200D311D11243583248314960D90BC916D
:1030C000A02D0480F581E02D8281938113969C933D
:1030D0008E9312970895908121812150330B92177E
:1030E00013065CF79F5FDFCFEF92FF920F931F9362
:1030F000CF93DF937C018B01EB01249668E071E1B3
:10310000CE010E94871321E530E040E365E0CE0167
:103110000E942315D7011296ED91FC9180818111B7
:1031200012C089EF9EE0F8019783868327EB31E098
:103130004EE26EE4CE01DF91CF911F910F91FF908F
:10314000EF900C94BC1689EF9EE0D80117969C93E3
:103150008E9316972AEB31E0EBCF6D307105E9F4D1
:10316000DC011396ED91FC91808181110BC0A1814E
:10317000B28181E08C9311968C93119712968C9367
:1031800080830895813049F4A181B2811C92119607
:103190001C92119712961C9210820895CF93DF9380
:1031A000DC011296CD91DC9113971496ED91FC9170
:1031B0001597888584838A8583838E81828316967A
:1031C0008D919C918130910561F030F082309105B4
:1031D00061F0DF91CF9108951682158280E1878397
:1031E000F8CF9683858380E2FACF9683858380E348
:1031F000F6CFCF93DF93DC011296ED91FC911397FC
:10320000248135812115310591F414960D90BC91DE
:10321000A02D818514968C931497838513968C9397
:103220001397878112968C93DF91CF910895213067
:103230003105D1F7DF91CF910C94CE18FC01908528
:103240008285891730F49683918783878681878367
:1032500008958683F9CF0F931F93CF93DF93EC01EB
:103260006130710509F45AC03CF4672B59F1DF91C4
:10327000CF911F910F9108956230710509F471C0CB
:103280006D307105A1F70A811B81C8010E941E19CA
:10329000D80118968C911897882329F01296ED91F1
:1032A000FC9181E08183F8018285882329F00280E6
:1032B000F381E02D81E08283D80115961C921E9245
:1032C000149720C0EA81FB819285108581E0903FB0
:1032D00008F080E021E0103F08F020E04E815F819F
:1032E00041305105B9F0A8F042305105A9F092875C
:1032F000CF010E941E198A819B81DC0118961C93C4
:103300000E941E19CE01DF91CF911F910F910C9455
:10331000CE18980F120FEBCF980FE9CFEA81FB81FF
:103320009285108581E0911101C080E021E01111AA
:1033300001C020E04E815F814130510571F060F0A5
:103340004230510561F09287CF010E941E198A8197
:103350009B81FC011087D4CF981B121BF4CF981BC4
:10336000F2CF8E819F818130910559F028F002972C
:1033700049F61F821E82C6CF81E090E09F838E8334
:10338000C1CF7F836E83BECFFC0184819581892B61
:1033900051F58781882311F08150878381858823A7
:1033A00011F0815081878385882311F081508387B4
:1033B0008185811104C0A281B38111961C928385FD
:1033C000811104C0A281B38112961C928781811160
:1033D0000AC081E090E0958384830280F381E02D30
:1033E0001082118212820895FC0194819F5F948360
:1033F0000895CF92DF92EF92FF920F931F93CF9396
:10340000DF936C01EB017B01E40EF51E10E000E0A0
:10341000CE15DF0561F06991D601ED91FC91019027
:10342000F081E02DC6010995080F191FF1CFC801E1
:10343000DF91CF911F910F91FF90EF90DF90CF9090
:103440000895CF92DF92EF92FF920F931F93CF9345
:10345000DF93EC016C0124E0C20ED11CFC01E158A9
:10346000FF4F0190F081E02DC60109958E3FEFEFEF
:103470009E07C8F48E010E571F4F7E01F1E8EF0E34
:10348000F11C9C01F8014081F7016081C6010E9496
:103490002315C15ADF4F98819130A9F078F092300E
:1034A000A1F09330B9F081E090E0DF91CF911F91CE
:1034B0000F91FF90EF90DF90CF900895F7019081EA
:1034C000890F8083F0CFF801FACFF7019081981B24
:1034D000892FF7CFF801FACF089590E080E00895A2
:1034E0005F926F927F928F929F92AF92BF92CF9294
:1034F000DF92EF92FF920F931F93CF93DF93CDB79D
:10350000DEB72A970FB6F894DEBF0FBECDBF3C01E1
:103510006B01FC0117817B01F4E0EF0EF11C30E13F
:10352000B32EB10E0B2D2EE7412F6CE4C7010E9484
:103530007F10882351F000E022E3412F6CE4C701A3
:103540000E9460141F5FB112F6CF65E77DE0C701EE
:103550000E94871321E530E040E365E0C7010E9447
:10356000231568E670E0C7010E9487131F928AE561
:10357000582E5F929EEB892E91E0992E9F928F920A
:103580008E010F5F1F4F1F930F930E947A2329EF25
:10359000A22E2EE0B22EF601B782A68298014EE24C
:1035A00066E2C7010E94BC161F925F929F928F92A3
:1035B0001F930F930E947A23F601B782A682980187
:1035C0004EE366E2C7010E94BC16F30182811F929E
:1035D0008F9383EC91E09F938F931F930F930E949F
:1035E0007A23F601B782A68298014EE16EE4C70104
:1035F0000E94BC16F30184811F928F938AEC91E0A4
:103600009F938F931F930F930E947A23F601B782A3
:10361000A68298014EE26EE4C7010E94BC16F30137
:1036200083811F928F9381ED91E09F938F931F93DE
:103630000F930E947A23F601B782A68298014EE387
:103640006EE4C7010E94BC160FB6F894DEBF0FBE31
:10365000CDBF2A960FB6F894DEBF0FBECDBFDF9167
:10366000CF911F910F91FF90EF90DF90CF90BF907F
:10367000AF909F908F907F906F905F9008958F9202
:103680009F92AF92BF92EF92FF920F931F93CF93AF
:10369000DF93CDB7DEB7A1970FB6F894DEBF0FBEAC
:1036A000CDBF7C01FA01CB0119A2223008F42AE037
:1036B0008E010F5D1F4F822E912CB12CA12CBF01CA
:1036C000A50194010E944B23F901CA016A3074F5E7
:1036D000605DD8016E938D01232B242B252B79F768
:1036E00090E080E0109789F0FD0101900020E9F75B
:1036F0003197AF014A1B5B0BD701ED91FC91028022
:10370000F381E02DB801C7010995A1960FB6F89491
:10371000DEBF0FBECDBFDF91CF911F910F91FF9004
:10372000EF90BF90AF909F908F900895695CD1CF3C
:10373000FC01A081B18150962C9182AD38E0839F2D
:10374000C0011124289FA001299F500D112470E071
:1037500060E080AD91AD0C9473230F931F93CF93D2
:10376000DF93EC01683109F46EC058F46431F9F06C
:10377000F901673181F080E0DF91CF911F910F91C6
:103780000895693109F49CC06032A9F76AE4CE015A
:103790000E94781056C0442309F453C081918EBD15
:1037A00000000DB407FEFDCF8EB54150F4CFE88187
:1037B000F9818C859D85AE85BF85892B8A2B8B2BC6
:1037C00041F480859185A285B3858C879D87AE87DE
:1037D000BF87418169E4CE010E947810CFB7F89489
:1037E00080917602811127C0E7EDF4E18491EBEE40
:1037F000F4E19491E82FF0E0EE0FFF1FE754FB4E49
:10380000A591B491EC91E92321F461E08AE00E9452
:10381000BD0F61E08AE00E94EB0F8CB580618CBD2A
:103820008CB580648CBD61E08DE00E94EB0F61E09F
:103830008BE00E94EB0F809176028F5F809376027F
:10384000CFBF81E099CFE881F981E485E15090E034
:10385000E33020F4F0E0EF5DFE4F90810C851D8594
:103860002E853F8540E052E16AE770E080E0041772
:1038700015072607370740F47695679557954795BE
:103880008F5F8630A1F787E09C709065282F269582
:10389000922B809581709CBD8DBDE881F98140811E
:1038A00069E4CE010E947810A881B981EA85FB8580
:1038B00030E020E012964C916CE2CE010995C1CF28
:1038C000A881B981EA85FB8530E020E013964C9110
:1038D0006CE20995E881F981418169E458CF1F9331
:1038E000CF93DF9385ED8093BC0080910702909188
:1038F0000802A0910902B0910A020796A11DB11D0C
:1039000023E0B695A795979587952A95D1F72091AD
:10391000BC0024FD03C010924F0252C04091070228
:10392000509108026091090270910A02452B462BC2
:10393000472B69F30097A105B10541F025E32A95CE
:10394000F1F700000197A109B109E1CF80910602CA
:10395000C1E0C0930502882399F1D091B80010917D
:10396000BA008091BC008A7B8093BC0060E082E159
:103970000E94BD0F60E083E10E94BD0F10924F02D4
:10398000C09351021092500261E082E10E94BD0F8B
:1039900061E083E10E94BD0F8091B9008E7F80932A
:1039A000B9008091B9008D7F8093B90088E480933D
:1039B000B80085E48093BC001093BA00D093B8009F
:1039C000DF91CF911F910895CF92DF92EF92FF92F6
:1039D000CF93DF937C01EB01FB01E45AFF4F81E0C1
:1039E000808369E075E1CE0104960E948713FE0191
:1039F000EF57FF4F89E18083319689E08083F7019B
:103A0000C480D5800D2C000CEE08FF082AE0B70119
:103A1000A601F7FE10C0E881F9810190F081E02D48
:103A20006DE2CE01099544275527BA014C195D096D
:103A30006E097F092AE0CE01DF91CF91FF90EF90D0
:103A4000DF90CF900C943F1B1F920F920FB60F92F6
:103A500011242F933F938F939F93AF93BF938091A4
:103A6000880290918902A0918A02B0918B023091D4
:103A7000870223E0230F2D3758F50196A11DB11DB4
:103A8000209387028093880290938902A0938A02F0
:103A9000B0938B0280918C0290918D02A0918E0246
:103AA000B0918F020196A11DB11D80938C0290935D
:103AB0008D02A0938E02B0938F02BF91AF919F9120
:103AC0008F913F912F910F900FBE0F901F901895DF
:103AD00026E8230F0296A11DB11DD2CF1F920F928F
:103AE0000FB60F9211242F933F934F935F936F93D1
:103AF0007F938F939F93AF93BF93EF93FF938091A7
:103B0000B900887F803609F44AC0F0F5883209F49C
:103B1000A5C018F5803109F499C0B8F4882309F4D8
:103B2000F5C0883009F492C0FF91EF91BF91AF9139
:103B30009F918F917F916F915F914F913F912F91C5
:103B40000F900FBE0F901F901895883109F486C012
:103B5000803251F780934E0214C0803409F49BC028
:103B600040F48033B9F38833F9F680934E0285EC44
:103B7000AEC0803509F483C0883509F494C0883418
:103B800099F60E946F1CD0CF883909F48AC038F5A5
:103B9000883729F050F4883611F0803729F683E011
:103BA00080934F0210924D0255C0883809F479C0B5
:103BB000803919F0803809F0B7CF80914D028032FA
:103BC00008F06FC0E0914D0281E08E0F80934D02AE
:103BD0008091BB00F0E0E35DFD4F80833BC0803B04
:103BE00039F0D0F4803A09F477C0883A09F09CCFD4
:103BF00084E080934F0210922C0210922B02F0E08E
:103C0000E0E0099580912B0281110FC081E0809343
:103C10002B0210920B0209C0803C09F4A8CF883C0B
:103C200009F4A5CF883B09F07FCFE0912C0281E019
:103C30008E0F80932C02F0E0E55FFD4F8081809332
:103C4000BB0090912C0280912B0229C080917402BC
:103C50008093BB0085EC8093BC0066CF909173028B
:103C600080917202981758F5E091730281E08E0FEF
:103C700080937302F0E0EE5AFD4F8081E9CFE0912E
:103C8000730281E08E0F809373028091BB00F0E09D
:103C9000EE5AFD4F808390917302809172029817C3
:103CA000C8F285E8D8CFE091730281E08E0F80934F
:103CB00073028091BB00F0E0EE5AFD4F808380914B
:103CC000510281115ECF81E08093500284EA80939B
:103CD000BC0010924F0228CF85EC8093BC0010925C
:103CE0004F0280914D02803230F4E0914D02F0E0BD
:103CF000E35DFD4F108260914D0270E08DE292E035
:103D0000F0E0E0E0099510924D020ECF10924E02C5
:103D100038CF1F920F920FB60F9211242F933F931B
:103D20004F935F936F937F938F939F93AF93BF93C3
:103D3000EF93FF9386B1887380939B0690E09C017C
:103D400045E0359527954A95E1F720939D0653E088
:103D5000959587955A95E1F7837080939E06E0913B
:103D60009F068E17E1F094E0899F900111242E5E4A
:103D70003E4FE20FF32FF11D90819093A0068093A8
:103D80009F0670E060E0913021F09F3F41F461E0D8
:103D900070E08091990690919A060E940418909183
:103DA0009D0680919C06891779F090939C0620913E
:103DB000990630919A0663E070E0913011F062E06C
:103DC00070E0C9010E940418FF91EF91BF91AF917B
:103DD0009F918F917F916F915F914F913F912F9123
:103DE0000F900FBE0F901F9018951F920F920FB655
:103DF0000F9211242F933F934F935F936F937F9371
:103E00008F939F93AF93BF93EF93FF93809104029F
:103E10008F5F80930402803809F043C0909179004D
:103E20009F778091A506891B8093A1068E5F8530C0
:103E300008F048C08091A6068F5F8093A6069091F7
:103E4000A3068091A6062091A506853009F0292FAA
:103E50002093A406291719F1ECE0F1E08191382FA5
:103E6000321B42E0430F453090F181E0E231F80728
:103E7000A9F73093A10680E08093A4068093A20660
:103E80009F37F1F5853199F128F5882399F164E0A0
:103E900070E0873029F18091A4068093A3061092E8
:103EA0000402FF91EF91BF91AF919F918F917F910C
:103EB0006F915F914F913F912F910F900FBE0F9097
:103EC0001F9018959093A5061092A606B8CF309330
:103ED000A106D2CF893289F06CE070E08835D9F63E
:103EE0008091A7069091A8060E940418D4CF66E09E
:103EF00070E0F6CF68E070E0F3CF6AE070E0F0CFFA
:103F0000953179F038F4992379F065E070E09730D5
:103F100039F3C1CF993259F06DE070E0983501F373
:103F2000BACF67E070E0DCCF69E070E0D9CF6BE03A
:103F300070E0D6CF1F920F920FB60F9211242F93DD
:103F40003F934F938F939F93AF93BF93EF93FF93C1
:103F500090E026E080919206981718F5E09190067F
:103F6000F0919106929FE00DF11D112480818F5FE9
:103F700080833481831309C01082A181B2818C9126
:103F80003381832B8C939F5FE5CF35818313FBCFE8
:103F9000A181B2813C9181E04381411180E0832382
:103FA000F1CFFF91EF91BF91AF919F918F914F9181
:103FB0003F912F910F900FBE0F901F9018951F9259
:103FC0000F920FB60F9211242F933F934F935F934D
:103FD0006F937F938F939F93AF93BF93EF93FF93D1
:103FE000F8948091EE069091EF060196803D27E0CF
:103FF0009207B1F09093EF068093EE067894FF91CC
:10400000EF91BF91AF919F918F917F916F915F9150
:104010004F913F912F910F900FBE0F901F901895C9
:104020001092EF061092EE068091EC069091ED064C
:10403000009721F3DC01ED91FC910190F081E02DDE
:104040000995DCCFEF92FF921F93CF93DF937C0112
:10405000EB01FB01E45AFF4F11E0108369E075E1C9
:10406000CE0104960E948713FE01EF57FF4F108385
:10407000319689E08083F701448150E070E060E090
:104080002AE0CE01DF91CF911F91FF90EF900C9429
:104090003F1B02970C942220CF93DF931092F606D9
:1040A0001092F50689EF9EE0909373078093720754
:1040B000109274071092750710920F0783EA91E02F
:1040C0009093F4068093F3061092F8061092F70688
:1040D00010920C0710920307109204071092050724
:1040E000109206078FEF80930D0780931107E5E18B
:1040F000F7E08BE297E0CFEFC1938E179F07E1F7D0
:1041000087E992E19093FC068093FB068EEB90E1A9
:104110009093FE068093FD068DEA9BE19093000745
:104120008093FF0681E097E1909302078093010757
:1041300030E020E040E069E087EF96E00E949712CF
:10414000109243071092420783E09FE090932C0760
:1041500080932B0780E992E09093300780932F079C
:1041600088E0809331071092320710924F07109227
:104170006F07D1E0D0937007D093710781EB91E086
:1041800090932E0780932D0787EF96E00E94DD1114
:1041900010923E0710924007C0933F07C09341071B
:1041A000E0912D07F0912E070280F381E02D87EF3B
:1041B00096E0099582E59FE0909345078093440738
:1041C000109252078CE080931E07C093200720EFC7
:1041D00036E01092F0061092F1061092F20610925C
:1041E000ED061092EC061092EF061092EE0685E9AD
:1041F00091E09093E8068093E7068DE991E0909333
:10420000EA068093E9061092EB068FE891E090931E
:10421000DC068093DB063093DE062093DD061092E9
:10422000E1061092E2061092E3061092E506109263
:10423000E6061092E40681E090E09093E006809319
:10424000DF0689E891E09093D4068093D30610921C
:10425000D5061092D7061092D6061092D906109263
:10426000D80680E18093DA0681E891E09093CC064D
:104270008093CB068BED96E09093CE068093CD068F
:1042800083ED96E09093D0068093CF061092D206ED
:104290001092D10688EC96E01092C8063093CA06B8
:1042A0002093C9062BE731E03093C5062093C4065E
:1042B0009093C7068093C60623E731E03093C0068B
:1042C0002093BF061092C1069093C3068093C20646
:1042D00020E031E03093BC062093BB0682E080935F
:1042E000BA061092B9063093BE062093BD062FEA97
:1042F00031E03093B6062093B5062BE631E03093DB
:10430000B0062093AF0629EB36E03093B206209337
:10431000B10625EB36E03093B4062093B306209126
:104320000201309103013093B8062093B70629EAC1
:1043300036E045E651E05093AA064093A9064FEABD
:1043400056E05093AC064093AB063093A8062093FA
:10435000A7061092A4061092A3061092A50610922A
:10436000A6061092A1061092A20630939A062093F8
:10437000990610929B0610929C0610929D06109230
:104380009F0610929E061092A00625E230E0309320
:104390009506209394068093960684E6809397066C
:1043A0001092930680E58093980683E996E09093B7
:1043B000910680939006D0939206DF91CF91089555
:1043C000CF93DF9300D01F92CDB7DEB7789484B53A
:1043D000826084BD84B5816084BD85B5826085BD01
:1043E00085B5816085BD80916E00816080936E008F
:1043F0001092810080918100826080938100809181
:104400008100816080938100809180008160809331
:1044100080008091B10084608093B1008091B000F1
:1044200081608093B00080917A00846080937A00EC
:1044300080917A00826080937A0080917A00816016
:1044400080937A0080917A00806880937A0010923D
:10445000C1001092B0001092B1001092B20083E13E
:104460008093B30082E08093B0008093700085E079
:104470008093B10080E036E0909192068917C8F4ED
:10448000E0919006F0919106839FE00DF11D1124BB
:10449000A181B2819E912381922B9C93A181B281B3
:1044A0002C9191E04381411190E092239C938F5F86
:1044B000E3CF8BED96E09093ED068093EC0610929F
:1044C00080001092810010928500109284008CE789
:1044D00090E09093890080938800809181008860AB
:1044E000809381008091810083608093810080911E
:1044F0006F00826080936F0087B117B880E6809369
:104500007C008FEE80937A0087B117B888B18863FA
:1045100088B986B1887380939B0690E09C0145E042
:10452000359527954A95E1F720939C0654E095959B
:1045300087955A95E1F780939F0680916800826085
:104540008093680080916C00886380936C00E09198
:10455000FB06F091FC0630E020E040E06AE087EFE7
:1045600096E0099580917107882321F087EF96E006
:104570000E94981B80E00E94540F87EF96E00E94F3
:104580001C101091320780913107180FE091F70647
:10459000F091F8068189181708F473C087EF96E048
:1045A0000E948E1280E00E94540FE091FB06F09171
:1045B000FC0630E020E040E06BE087EF96E00995F4
:1045C000789408ED11E0CE0101967C0189EFC82EA8
:1045D0008EE0D82E90E0A92E90E0B92E8FEA96E0DA
:1045E0000E94281887EF96E00E94981B0E946B0F8C
:1045F00063EF76E089EA96E00E94E41C63EF76E0E0
:1046000087EE96E00E94222063EF76E085EB96E04D
:104610000E941A1869E075E187EF96E00E948713FF
:104620008091F2061F928F938091F1061F928F93D3
:104630008091F0061F928F931F930F93FF92EF923A
:104640000E947A23D092FA06C092F906970149E0B7
:1046500060E587EF96E00E94BC1687EF96E00E9427
:104660001C1087EF96E00E948E120FB6F894DEBF02
:104670000FBECDBFA114B10409F4B0CF0E94000059
:10468000ADCF80917107882321F087EF96E00E94DB
:10469000981B812F70CFA1E21A2EAA1BBB1BFD0114
:1046A0000DC0AA1FBB1FEE1FFF1FA217B307E40711
:1046B000F50720F0A21BB30BE40BF50B661F771F69
:1046C000881F991F1A9469F7609570958095909549
:1046D0009B01AC01BD01CF010895EE0FFF1F0590B6
:1046E000F491E02D0994DC0101C06D9341505040DC
:1046F000E0F70895AEE0B0E0E0E8F3E20C9429269C
:104700000D891E8986E08C831A8309838FEF9FE7CA
:104710009E838D83AE01475E5F4F6F89788DCE019A
:1047200001960E949D232F813885020F131FF801E7
:1047300010822E96E4E00C944526ABE0B0E0E3EA6C
:10474000F3E20C941B267C013B018A01FC011782D9
:104750001682838181FFC8C1CE0101965C01F701F9
:104760009381F30193FD859193FF81913F0188230C
:1047700009F453C1853239F493FD859193FF8191FA
:104780003F01853229F4B70190E00E948D25E7CFE3
:10479000912C212C312CFFE1F31538F08B3211F1E3
:1047A00090F4803209F1833229F137FC3CC020EDCE
:1047B000280F2A3050F536FE20C08AE0989E200D42
:1047C0001124922E06C08D3291F0803371F76894D7
:1047D00030F8F30193FD859193FF81913F018111A1
:1047E000DACF21C0689431F8689432F8F2CF689437
:1047F00033F8EFCF689434F8ECCFEAE02E9E200D2A
:104800001124222E689435F8E4CF8E3229F436FC38
:1048100004C1689436F8DDCF8C3619F4689437F803
:10482000D8CF8836B1F2982F9F7D95549330E0F021
:104830008336A1F18337C1F1833509F063C02801C4
:10484000F2E04F0E511CF801C080D180692D70E05C
:1048500036FC02C06FEF7FEFC6010E9477254C0146
:10486000689437F882010AC00C5F1F4FFFE3F98399
:1048700088248394912C6501E89437F833FE2DC089
:10488000522C8114910471F5552009F468CFB701B9
:1048900080E290E00E948D255A94F6CFF801808145
:1048A00089830E5F1F4FE4CF2801F2E04F0E511CA9
:1048B000F801C080D180692D70E036FC02C06FEF36
:1048C0007FEFC6010E9482254C018201D5CFB7013E
:1048D00080E290E00E948D252A942814190409F0A2
:1048E000B0F7CECFF60137FC859137FE81916F018D
:1048F000B70190E00E948D2551105A94F1E08F1A73
:104900009108BFCF843619F0893609F077C0F801D5
:1049100037FE6BC060817181828193810C5F1F4F74
:10492000F32DFF763F2E97FF09C0909580957095E7
:1049300061957F4F8F4F9F4F689437F82AE030E0A2
:10494000A5010E94BD25C82ECA188C2C432C36FE0A
:104950000CC0E89440F8C91440F434FE05C032FCA1
:1049600003C0F32DFE7E4F2E892C44FE95C0FE0120
:10497000EC0DF11D8081803309F087C0242D297E44
:10498000422E842D8870582E43FC95C040FE8FC067
:104990009C2C821418F42C0C922C981844FE91C074
:1049A000B70180E390E00E948D2542FE09C088E7B0
:1049B00090E041FE02C088E590E0B7010E948D259D
:1049C000C91408F48AC0CA94D12C9FEFC91AD90A15
:1049D000CA0CDB1CF60182916F01B70190E00E94C6
:1049E0008D25AC14BD04B1F74FCF60817181072EC6
:1049F000000C880B990B0E5F1F4F92CFD32CE894BD
:104A0000D4F82AE030E0853739F1232D297FD22EE2
:104A10008F3601F148F48835A9F0F7018681978136
:104A20002B96E2E10C943726803749F08837A9F7B6
:104A3000D4FE02C06894D2F820E130E00DC0689442
:104A4000D4F8F6CF34FE03C0822F8660D82E20E142
:104A500032E002C028E030E0F801D7FE0FC06081EC
:104A60007181828193810C5F1F4FA5010E94BD253A
:104A7000C82ECA183D2CE89437F867CF6081718141
:104A800090E080E00E5F1F4FF0CF42FC02C08394A5
:104A900078CF8394839475CF842D867809F471CF71
:104AA000F6CFB70180E290E00E948D2583948214B6
:104AB000C0F3512C73CF522C5818821408F46ECFC7
:104AC000F8CF842D867809F47BCF8BE241FE80E21B
:104AD00047FC8DE2B70190E071CFB70180E390E031
:104AE0000E948D259A946CCF8FEF9FEF99CFFC0198
:104AF0000590615070400110D8F7809590958E0F09
:104B00009F1F0895FC016150704001900110D8F77B
:104B1000809590958E0F9F1F08950F931F93CF93AD
:104B2000DF93182F092FEB018B8181FD09C01FEF47
:104B30000FEF812F902FDF91CF911F910F9108954B
:104B400082FF14C02E813F818C819D8128173907F7
:104B50003CF4E881F981CF01019699838883108321
:104B60008E819F8101969F838E83E3CFE885F985AF
:104B7000812F0995892BA1F3DACFFA01AA272830D2
:104B800051F1203181F1E8946F936E7F6E5F7F4F1A
:104B90008F4F9F4FAF4FB1E03ED0B4E03CD0670F96
:104BA000781F891F9A1FA11D680F791F8A1F911DE9
:104BB000A11D6A0F711D811D911DA11D20D009F439
:104BC00068943F912AE0269F11243019305D31937B
:104BD000DEF6CF010895462F4770405D4193B3E064
:104BE0000FD0C9F7F6CF462F4F70405D4A3318F00B
:104BF000495D31FD4052419302D0A9F7EACFB4E0BC
:104C0000A6959795879577956795BA95C9F7009773
:104C10006105710508959B01AC010A2E0694579514
:104C2000479537952795BA95C9F7620F731F841F6B
:104C3000951FA01D08952F923F924F925F926F9201
:104C40007F928F929F92AF92BF92CF92DF92EF921C
:104C5000FF920F931F93CF93DF93CDB7DEB7CA1B9D
:104C6000DB0B0FB6F894DEBF0FBECDBF09942A88C8
:104C7000398848885F846E847D848C849B84AA8470
:104C8000B984C884DF80EE80FD800C811B81AA81FD
:104C9000B981CE0FD11D0FB6F894DEBF0FBECDBFC8
:084CA000ED010895F894FFCF27
:104CA800DB06D306CB06C806C406BF0607150029CF
:104CB800587F00000000000000FF00000001000015
:104CC8000004080C18153815081534150119FF18B3
:104CD8001538150C19FFFE6418FE0A153815081545
:104CE8000615021501FE0419FF0100050501061449
:104CF8008C40420F0003041E28100800008000406A
:104D08000000000000E41C0000000038182818000B
:104D1800000000AD18B31700000000741800000070
:104D2800002B19F91800000000701A00000000C4D8
:104D38001900000000F4192220FEFF00004920009D
:104D4800000000211AF9196D1A6C1A000000001AE7
:104D580018DD11731167114F4E004F464600256448
:104D6800252500543A2025647300473A20256473AA
:104D780000423A20256473002564256425640000F8
:00000001FF
