:100000000C94FC0C0C94240D0C94240D0C94240DD5
:100010000C94240D0C94240D0C94240D0C94240D9C
:100020000C94240D0C94240D0C94240D0C94A21A01
:100030000C94240D0C94240D0C94240D0C94240D7C
:100040000C943D190C94240D0C94240D0C94240D47
:100050000C94240D0C94240D0C94240D0C94240D5C
:100060000C9487190C94240DBF00030204040204AD
:10007000050B0DFFFE08FE08FE015502BF087620A5
:100080000500E604210681E3C4252207233B45A29F
:1000900004231076A2559225D12025C92025591276
:1000A000012410A59E55B654946C4BA244A96C1122
:1000B00000251188628ED492293910E740A225517B
:1000C0004901260D86238E16B56951A2259129274F
:1000D0000621BA8400280BA31A551225515B9405FA
:1000E000290CA31B451665514B9444002A0733364F
:1000F00045D2012B0A55A655180D5218012C07326E
:10010000DA4CA2002D06132EC5002E0611E3440082
:100110002F0A83E254256A892200300A85A2CD92F3
:10012000F9962C00310782A3CDD207320C85A2CDDF
:10013000928525290B0701330C85A2CD9285911A52
:100140006AC902340E85A25D262551524A062D4CFD
:1001500000350C85A2CD9084E11A6AC902360C855F
:10016000A2CD92894392D99205370B85A2C520660C
:10017000C52CAC01380C85A2CD9269C992D99205E3
:10018000390C85A2CD92D99221D492053A0661E329
:1001900044183B0982DA4C0E250A003C0753A75548
:1001A000522B3D08346AC5100E013E0853A7455630
:1001B00029013F0C84A38D1265512D0722004016A2
:1001C0009ADEDE20A651A4245249C92225AA448AD7
:1001D00096638306410E87E25D9C26619295062513
:1001E0005503420D85E3C59064DAA064B64101432E
:1001F0000C8623CE90846AC7644800440D8623C6CB
:10020000106549E82D192200450A85E3C5311CC651
:10021000E220460A85A3C5311C92B011470C862303
:10022000CE90846A6D149341480A862346681C0662
:10023000D131490681E3C4414A0984625D6F52A20B
:10024000004B0D85E3452625A5A9122599164C08D6
:1002500084A345D6B7214D10876346BA0DD95251B4
:100260002A52244552014E0F862386B629911249FF
:100270008994689B004F0B8623CE90843E264302D0
:10028000500C85E3C59064DAA0848D005112971F4D
:10029000CE1085499884499844494D1A7420520CCF
:1002A00085E3C59064DAA0646E01530C85E3CD92BA
:1002B000A9ABA6250B0054098562C520857D025592
:1002C0000A862346E8C7644800560F87E245AA26F7
:1002D00059944559254CD20C571089624696699518
:1002E000A82F6DC52CCC2200580D85E345A625B559
:1002F0004A94D4B400590E87E2459A645156099342
:1003000034AE015A0B85E3C52066C5AC38085B08DE
:10031000A2DBC4D22F025C0A83E24494456D5100F3
:100320005D08A2DA84D22F035E0A55AE5598255196
:10033000520B5F06169AC501600622FE4414610C3A
:100340006562C51A2D5112454A00620C85A24558B6
:100350003169DAA42800630A64628D1269A5440138
:10036000640A85A265C5B4991425650B64628D1273
:100370000D5B942800660A842295124D5927006768
:100380000C859A8D6933294A982C00680A85A24504
:100390005831696E01690781A244320C6A09A29939
:1003A0004C96F4A2006B0C846245565212292949DE
:1003B000016C0681A2C4416D0E6722C6A24491144D
:1003C00049911449056E0965A24562D2DC026F0AA3
:1003D00065A2CD92B9250B00700C859A4562D2B406
:1003E0004951C210710A859A8D6933294A58720998
:1003F000632245B2444D00730B64628D1225A294B2
:100400002800740A83224D942C519300750864626D
:1004100045E42919760C65A245A625A5240B2300E1
:10042000770E672246144995A6A496844904780A53
:1004300065A24596D42A352D790E85594D944449A7
:1004400029C9B430D2007A0A6462C590456D430070
:100450007B0AA3DA541255B2A82D7C07A1DBC44352
:10046000007D0BA3DA4416D592A825027E0726EE5E
:100470008D6401A00500E604A10781DB44320CA2D3
:100480000E859F5DB45494288992CA9401A30C856B
:10049000A29554C9B6B0A42800A40C64664594285B
:1004A0009194285100A50D85A245664B2A83140D11
:1004B0005204A608A1DBC4100D01A70FA59ACD9286
:1004C0008D4B3444C9B8250B00A80613FE4412A96D
:1004D0000E7763D65689142593945A3601AA085389
:1004E0002EC5A46403AB0A55A255D25B922501AC7C
:1004F0000735EBC52016AD06132EC500AE0D77638C
:10050000D656491693D22D9B00AF0613FEC400B0F9
:100510000944328D12498902B10C75A255180D5249
:1005200098038300B20743F2CC5219B30843F2C4D4
:10053000922D00B40622FE8C02B50A845A45E46965
:10054000D83200B615A69ACD3028C9922C919225A2
:100550005992255992250900B70612EE8400B80673
:1005600022DACC00B90642F2CC52BA09532EC59019
:100570000CD900BB0B55A245922559D21300BC13D0
:1005800089624E966961944639908591160D51980D
:1005900000BD1088624E1669A5308A232D2965A5F5
:1005A00001BE138962C60E64699449391285919817
:1005B0000C519800BF0C849B550E64512D4A1400B9
:1005C000C010B7E2550EE470350993AC3428A91A6F
:1005D000C110B7E2659AC3D5244CB2D2A0A46A0078
:1005E000C211B7E25D9AE4689C2661929506255592
:1005F00003C312B7E25D9225391AA7499864A54151
:1006000049D500C410A7E25592A3719A8449561A9D
:1006100094540DC510B7E25D9AA471350993AC34BA
:1006200028A91AC61289A2DEB0C9499C0C4A940EA8
:100630006116668300C70DA61BCE90846AC7640846
:100640004309C80DB5E34D9A03C770188B8300C9E1
:100650000CB5E35D1D3886C3581C04CA0DB5E355BF
:1006600096C4C3180E637110CB0CA5E34D7918C363
:10067000612C0E02CC09B2E2449425FD00CD09B2F2
:10068000E38C96F40B00CE09B3E24C63D42F00CF79
:1006900009A3E2441246FD02D0118722CE9095C2F2
:1006A000414AC2244CB2688800D112B623561225A2
:1006B00039A26D4AA444522225DA26D20EB6235618
:1006C0009C434312FA980C0900D30DB623661D1AF9
:1006D00092D0C7644800D40EB6235698E4D09084D4
:1006E0003E264302D50FB623561225393424A18F56
:1006F000C99000D60EA6234E94234312FA980C09F3
:1007000000D70A55A64596D42AB500D812A61F6E62
:100710003224D99448891229D1960C490AD90CB6A9
:1007200023569C23A11F932101DA0CB623661D09D1
:10073000FD980C0900DB0DB6235698E448E8C76421
:100740004800DC0CA6234E9403A11F932101DD1069
:10075000B7E2659A6369924559254CD2B806DE0D19
:1007600085E345180E49A60D4A1802DF0B84628DF9
:1007700012594A2E0900E00E95624D9A036BB4445B
:1007800049142901E10E95625596236BB44449142E
:100790002901E20E95625596C46BB44449142901AF
:1007A000E30D95624D77608D9628892225E40C85AE
:1007B000624D798D9628892225E50F9562559664BC
:1007C000D11A2D5112454A00E60E6722C62246C9AB
:1007D00030445954B100E70C845A8D1269A5448BFA
:1007E0001400E80C94624D182BD1B0458902E90C35
:1007F0009462551D50A2618B1205EA0D94624D94CE
:10080000C44A346C51A200EB0C846245122BD1B067
:10081000458902EC0892A14494253DED0892A28CF2
:1008200096F402EE0993A14C63D40B00EF0983A167
:10083000441246BD00F00D95A24D3848D1A0B9250F
:100840000B00F10A94624DA2A44BE429F20C95A28C
:100850004D9A234BE6962C00F30B95A25D1D593261
:10086000B76401F40D95A25596E4C092B9250B002A
:10087000F50C95A255D20E2C995BB200F60B85A211
:100880004D1D5832B76401F70A55A6550E0C3A10A3
:1008900001F80D67A1D552929292544B9209F90A30
:1008A00094624D98469E9201FA0A94625D94469E27
:1008B0009201FB0A94624D94A491A764FC0A84629D
:1008C0004592469E9201FD10B55965960351122539
:1008D000A524D3C24803FE0DA59A45583169DAA470
:1008E000286108FF10A5594D1D88922829259916C1
:1008F000461A0000000004FFFF0000BF00030304CD
:10090000050305060F14FFFC0CFC0CFD01EB042D88
:100910000CF0200500184B2109C20C4D1C2C690459
:10092000220A458A51485824A100231BC908D349EB
:100930008412A14474881C4212A14474881C42127F
:10094000A1442891012414E7FAD2052B0749841207
:1009500023728B5022074931062521CD085D49833A
:10096000B4A048141449C2A43840148786E4801007
:10097000392212861463C4A808002616CA0A5951DF
:100980008D22A1484A9E499A2AB2916C76888D069A
:100990002707428A495802280CF4DA4C49264AFAB9
:1009A0009B6824290EF4D84C88463291FE229988FF
:1009B000002A0B55784DA5A48C26B1002B0D880A72
:1009C000D589D50E0799580D002C0952DA485022C6
:1009D00012002D0724384B1C022E06220A49102F24
:1009E0000FC408CB25896221512C248AA501300F20
:1009F000C80853D12CA3221F4B131B0900310AC571
:100A00000A53C60E35FD01320FC80853D12CA3225C
:100A1000513ADCF170103312C80853D12CA3A274E0
:100A20004624174B131B09003413C808530E6912D0
:100A30009944A48B4C723848C52A003511C8085314
:100A40003989A535536C2C2E4D6C24003612C808FC
:100A500053D12CA3B26474191589A5898D04370F5D
:100A6000C808533C48C552B154AC2A56043813C880
:100A70000853D12CA3A24424A35946C5D2C446028C
:100A80003912C80853D12CA322B134394DC4A589D9
:100A90008D043A08820C4BD021043B0BB2DC4AD0C7
:100AA00021948804003C0D880A550B49A4E91C4098
:100AB000260B3D0B681A553CC8910E07013E0D8868
:100AC0000A5588D901D311A318003F10C70AD5547D
:100AD0000E329A543854954395004023EDEA605AFB
:100AE0008732392414AB906421594CA426528B8947
:100AF000944821519A482687CEE48022004119CBA0
:100B00000859CE21734059229D0C65B225A9E820D1
:100B100039D8017480004214C90A579C0E1161959E
:100B200078A01C22C22AF14039014317CA0AD915FC
:100B30004FB389B40E9043E49039442A998D8E25A1
:100B4000004415CA0A59180F21E1442A919659AB5D
:100B500012E1E4103202450EC80A553C90952F1759
:100B6000B1F2E120460DC80A553C90952F17B1CE41
:100B7000004717CA0AD9154FB389B40E904384377A
:100B80008A54321B1D621401480CCA0A5988391F45
:100B90001EC67C164907C20A497C184A0CC70AD3EC
:100BA000EA571AED20A9004B19CB0A594827C291E0
:100BB0006C261A4AA665AB68289B0947D28978003B
:100BC0004C0BC80A5588F5CF8783004D19CB0A5BBB
:100BD0004C5D6F87982516A1A85054489110694420
:100BE0001AD162024E15CA0A594C8D468A8C2223AC
:100BF0008948229A842621BA0E4F16CB0ADB556FFC
:100C00004B52C9B40EA003AA13A96836BBD6005034
:100C100014C90A579C0E116195F14039C9017280BF
:100C20001C20075119DBFADA556F4B52C9B40EA0DC
:100C3000036A2189A834A25DEFA010005219CA0AE4
:100C4000591C420789542295082787D021249C48A3
:100C5000255289B43A5312C90A57D52EB3AAD95A84
:100C600007546B935B09005419CA08553C18E510EA
:100C700039440E9143E41039440E9143E4102100AD
:100C8000550DCA0A5988F9E7E2E41033015619CA2A
:100C9000085788C912A1482812CA444291502425F5
:100CA000D30172881000571ECE085F088544215179
:100CB00045A62422299164925044482292A842B128
:100CC000502C94015814C90A57486B13998AB03AAA
:100CD0009E162532955955005919CA0857888B1305
:100CE000A14C241449C974801C2287C82172881021
:100CF000005A0FC80A553C48A7AAC3A9EAF47010C5
:100D00005B0BF4DA4C1C46FA4F87005C0DC4084BB1
:100D1000C462B234599A2C035D0BF4D84C1C42FACD
:100D20004F87015E0D785AD589A53491162151005F
:100D30005F0719D8521C04600833AC4D846401610C
:100D400011980AD3942E32E9C83292C824A7C90058
:100D50006211C80A5588B58C2EA32263E930918CA4
:100D600000630E980A53D12CA3B2F2686223016487
:100D70000FC80A556BB21C4645C6D2E43411650F44
:100D8000980A55D12CC2C3C13C9AD84800660DC4FC
:100D90000A4D4926924344A42F006713D8CA544DE4
:100DA00024875191B134394DC4A5898D04680DC88B
:100DB0000A5588B5500E34221F056909C20A4990A8
:100DC0000E07026A0B03CBCA284AF42F17006B14D4
:100DD000C80A5388B595269251CD34118926328997
:100DE0006C006C07C20A497C186D169C0A5D482885
:100DF00093C32134A2C968329A8C26A3C9680A6EAB
:100E00000C980A554828071A918F026F0E980A55B8
:100E1000D12CA32263696223017012D8CA544846B8
:100E2000975191B17498484662CD007110D8CA5458
:100E30004D24875191B134394DC43A720B950A4D06
:100E4000480E2399DE00730E970AD3540E3263B511
:100E500076905400740DB40ACD8824878848A791F1
:100E600000750B980A5508F9ED40A108760F98080F
:100E70005308891291DE8854B10C0077159C085BE9
:100E8000C864341591BE506487E0682A128B6400F0
:100E9000780F970A53C86812A5DAAC2451A30979D0
:100EA00015D8C85208891299442493C82432EA54A8
:100EB000AC3895027A0C9708513CCE86C2D9EC70BA
:100EC0007B0EF4DA4C4926225D64229D46027C07A3
:100ED00001CB483C087D0EF4DA4C88467A9388743E
:100EE0009988007E0A383AD5CC446A1300A00500E0
:100EF000184BA10AC2DA4CD022918301A213B8F890
:100F0000D206699689292691498294898D1805A36C
:100F100013C808D30D4B32894C2207488B6271F8F5
:100F20007008A40F772A534426918A8C4D52894C1D
:100F300002A511C808530889129136AAD028348A0C
:100F4000D500A60701CD4A9C0EA714F8D852D14C63
:100F50009A891659D1243192454A361200A808259B
:100F6000A84D482802A920CC0859924733B12844FB
:100F70008A2849467180280E9888249210292407CF
:100F8000C446632200AA0C755ACD889226A110B5DA
:100F900000AB0E682853A98824226D22994800AC22
:100FA000085828553C8835AD0724384B1C02AE1C28
:100FB000CC0859924733B128528A2849469A881357
:100FC0002549442924968DC64400AF0615A84D1422
:100FD000B00B547ACF48424A110900B10FB80AD574
:100FE00089D50E0799581D783808B20C7558CD4C24
:100FF000241491D26100B30C7558CD4CD444428A6C
:101000006402B40833AA4D454600B50DC8DA540849
:10101000F9ED7090909501B620F8D8D21C48115285
:101020008414214548A15130140C0543C15030149B
:101030000C0543C1500400B706224A4B10B80B45BB
:10104000C84C052521C90400B908745A4D1D463AFB
:10105000BA0B7558CD4C24B389645CBB0F682A5316
:1010600088642299488B48221201BC1FCD0A5D0971
:1010700065C4204D2C8B03446AA2D04C22218722C8
:1010800052896AC82615862500BD1CCC085D0963F7
:1010900034192D2C128BE20089642689284A148386
:1010A0006AD2584956BE20CD08DD4C6312995816B5
:1010B00096C901A29044CB6814214B22E288AAC4AD
:1010C00018154A2500BF11C7DA5449E55045E150CB
:1010D0002AA31D241500C01E0B09D9C56172601C0E
:1010E000790E9903CA12E96428932D494507C9C1AD
:1010F0000EA00304C11E0B0959C74172481CC31C32
:1011000032079425D2C950265B928A0E92831D40E5
:101110000708C21F0B09D9C64173402C8E3887CCF3
:10112000016589743294C996A4A283E46007D00152
:1011300002C31DFB08594EA29139E21C32079425C7
:10114000D2C950265B928A0E92831D400708C41DA7
:10115000FB0859C9843239DA1C32079425D2C950A8
:10116000265B928A0E92831D400708C5210B095900
:10117000CA21A138201487C84173C81C509648273B
:1011800043996C492A3A480E76001D20C61DCE08A8
:10119000DF1D68079A440E11C92122394474929DBB
:1011A000EE80B3502C3C0C0F01C71D0ACBD8154F55
:1011B000B389B40E9043E49039442A998D8E7540DA
:1011C0001C240E896700C814080B55C50172481C01
:1011D000783890952F17B1F2E120C913080BD58606
:1011E000A571E8E14056BE5CC4CA878300CA1408F2
:1011F0000B558687B138E870202B5F2E62E5C3411E
:1012000000CB12F80AD588B4830E07B2F2E5225655
:101210003E1C04CC0B03094984644189FE07CD0BB5
:10122000030B4945A612FD2F00CE0D050949C52621
:10123000B1B04CFF1300CF0DF606498848728850B4
:10124000FF1300D019CC0859990F41E14C2A931E85
:101250008487A0483A92CA84B343D008D11AFA0AC4
:10126000D94D829139786A3452641419494412D1A3
:10127000243409D17500D21B0B0B5BC66172601C54
:10128000B17A5B924AA675001D509D4845B3D9B509
:1012900006D31C0B0BDB03E22039248E5ABD2D49EB
:1012A00025D33A800EA84EA4A2D9EC5A03D41C0B25
:1012B0000BDBC64173402C8E56BD2D4925D33A8099
:1012C0000EA84EA4A2D9EC5A03D51BFB0A5B4EA272
:1012D00091395AF5B624954CEB003AA03A918A66BA
:1012E000B36B0D00D61BFB0ADB89A4223952F5B67D
:1012F00024954CEB003AA03A918A66B36B0D00D767
:10130000129908D54423B3C95A755A9BAC4DA21102
:1013100000D81CCB0ADB954287D050249CCC2434C7
:10132000114946914D8622E1E8100AD500D9130AE9
:101330000BD9C54172581C41CC3F1727879809002B
:10134000DA130A0B59C72172401C45CC3F17278777
:10135000980900DB120A0BD9C621E3581C2AE69F24
:101360008B9343CC04DC11FA0A59298AE45031FFEB
:101370005C9C1C622600DD1E0A0957C72172401CB6
:10138000455C9C086522A1484AA603E41039440E36
:1013900091438400DE14C90A57C801A74344586525
:1013A0003C504E72801C2007DF14C80AD5942E32A0
:1013B000894C22194928425E28921100E016D80A69
:1013C00053C50172481C5ABAC8A423CB4822939C27
:1013D0002603E114D80AD386A57170E922938E2CD6
:1013E00023894C729A0CE215D80AD38587B138B09C
:1013F0007491494796914426394D06E315C80A531E
:101400004D429139B07491494796914426394D0621
:10141000E414C80AD3A849E4C0D245261D5946128F
:1014200099E43419E516D80AD34943C1505458BA3F
:10143000C8A423CB4822939C2603E6179D0ADF54B9
:1014400048878A4C283C480E879058443A1C424CA6
:1014500000E713D8CA52D12CA3B2F26862A3C60126
:10146000C2907006E814D80A55C50172481C4CB3E6
:10147000080F07F368622301E913D80AD586A5711E
:10148000049A4578389847131B0900EA13D80A557F
:101490008687B1389066111E0EE6D1C44602EB1362
:1014A000C80A55496412399066111E0EE6D1C44629
:1014B00002EC0BD3084984644189FE00ED0BD30A8A
:1014C0004945A612FD0500EE0CD50849C526B1B068
:1014D0004C7F02EF0BC5084948286299FE04F011C1
:1014E000C80AD5884BE5996554642C4D6C2400F1ED
:1014F00010C80A554D4291394C4239D0887C14F2BB
:1015000013D80A55C50172481C4CB38C8A8CA58926
:101510008D04F312D80A5586A571149A6554642C6B
:101520004D6C2400F413D80AD58587B13894661918
:1015300015194B131B0900F513C80A554D42913973
:1015400094661915194B131B0900F612C80AD5A881
:1015500049E4509A6554642C4D6C2400F70E880AB7
:10156000D589E5C0C3410E14CB00F812980A555135
:10157000228751C92231950E93080900F910D80A23
:1015800055C50172481C28E4B7038522FA0FD80A12
:101590005586A571B090DF0E148A00FB10D80AD5CD
:1015A0008587B1384CC86F070A4500FC0FC80AD5BB
:1015B000A849E43021BF1D281401FD1918C9D2869D
:1015C000A571A8902891494432894C22A34EC58A1E
:1015D000532900FE1308CB5488B58C2EA32263E94F
:1015E00030918CC49A01FF1A08C9524964123948D3
:1015F0004894C824229944269151A762C5A9140091
:1016000000000004FFFF000000000000230026008F
:10161000290000000000240027002A00000000002C
:10162000250028002B00040404040404040402021E
:101630000202020203030303030301020408102051
:10164000408001020408102001020408102000005C
:101650000008000201000003040700000000000071
:1016600000001200050506060504072020000020E2
:1016700000200000500000037640501C08110C09A7
:101680004C0609424082109020042408010942427D
:10169000042121829010410882101241088920847F
:1016A0004410422208211184900842480421648891
:1016B0002024441012220809118484084240821018
:1016C000902004240881C92100413B1C07198C4942
:1016D0003320441C08F10A42B483102B21445A08D9
:1016E000FE2304810851089110A210E4204429111E
:1016F000C210672084215240085334E2108D38050F
:10170000266521024228E00711FC844E6C23231831
:10171000B94A65A61321083DA951CB4A18C28E5675
:10172000B8E1850F041F1CF9C0FF010443382007EE
:1017300019DC8CCB4C2742CF30462B54B10A5628AB
:10174000C2118A7044222081084820021288800435
:101750002220810848200212E580474020FC0791A2
:1017600060482300440D1846190C1004FFFF7F0841
:101770000145281746190C023BD0421E30710B6BF5
:10178000D4832233914A7CE003859848641ED4A810
:101790008525EE80851C68600146221846199C8CC0
:1017A000C72C2741472AD4B0842D7CE00F50C112AA
:1017B000B64115E940C959CC33120047451F1619E7
:1017C000EC821734C1096C68832A56910C65A023FA
:1017D0001D263949518C4296B2886634C1115DF09C
:1017E000C2131CE188663464294B518C629293A029
:1017F000231DC950862A56C1863634C1092E780168
:10180000483E1F06190C821738511BB16215CA9445
:101810004E2839895195156946235CE1095EE884B3
:10182000139AD188A52C44314A494E628E742043C4
:1018300019A958851ADAC00427B4E0050E00492713
:101840001C06190C9099480532CE69CF8AD284289B
:1018500063116C6461373282190B51695A517B9C58
:101860000319A9CC004A281C06190C82A948063A7B
:10187000EE69D19A12852C83916C6C610BD9C0886A
:10188000652834A5683DCD710C546432114B0B189A
:1018900046190CFEFF7F40024C35184811AC886990
:1018A0004404A297848214211004FD578C4204A2A0
:1018B00010A508842344C18A51A8A218C6385072C2
:1018C00016F38C495032C82C27410822004D4A207B
:1018D00008115C9717AD2A5D081F6A0E810C47201E
:1018E0000212888004222081084820021288800485
:1018F00022188208A520222D88480B41102314C4E9
:1019000084053161415852029394C02844308C2898
:101910008A552EA2090C004E3E200811CC90EA40B8
:10192000A951CB4AD8D10A4794108D454462218FE2
:10193000588A139893214C59ABA62C849D262CC50C
:10194000110B79C422A2A1848870453B58B216D5E8
:1019500024E85484014F55200811DC064EDA853600
:10196000C8300D62BC831C0D2108818E31A0540843
:101970004815015A44808850880091A15084201451
:101980002108450842118250642814110A11A0450B
:10199000044815014A85808EB11082B4831CCF2083
:1019A0000634C8400B4EEA0304005029184811DCE5
:1019B000064A9A8534C50322083E2208880C012273
:1019C000F4C81020220808C141241ED2340B4AAAB0
:1019D000030200511A108811DC06465A8532A5030D
:1019E0007DE0FF0084907428D32A18A90D00000020
:1019F00004FFFF0000009F1B11241FBECFEFD8E0A3
:101A0000DEBFCDBF11E0A0E0B1E0E8EDF1E402C03F
:101A100005900D92AE38B107D9F726E0AEE8B1E0F7
:101A200001C01D92AB3FB207E1F71CE0CCEFDCE058
:101A300004C02197FE010E94051ECB3FD107C9F7C4
:101A40000E94AA1C0C94EA200C940000662329F042
:101A50006A3019F0862F90E008958FEF9FEF089578
:101A60000F93CF93DF93DC01ED91FC915089362FDA
:101A70003770E0E8F0E002C0F595E7953A95E2F7B7
:101A80003E2FA52FB0E0FC01C0ADD1AD66956695A7
:101A90006695E62FF0E0549FE00DF11D1124EC0F48
:101AA000FD1FEC01C758DF4F011116C0888182303D
:101AB00018F49081932B90838881813019F0908164
:101AC00093279083369511F4319630E8215071F7C1
:101AD000DF91CF910F9108958881823018F4908121
:101AE000932B90838881813019F090819327908384
:101AF000EA0FFB1F215081F7EBCF80E0089580E0D3
:101B00000895CF93DF93C8E7D6E08FAFEAADFBAD82
:101B10000190F081E02D8CE796E00995EAADFBADF0
:101B20000280F381E02D8CE796E0DF91CF9109945C
:101B30000F931F93CF938C01C0E080914C06C81780
:101B400090F4EC2FF0E0EE0FFF1FEF5BF94F818177
:101B50009281DC01ED91FC910190F081E02DB801C2
:101B60000995CF5FEACFCF911F910F91089582E041
:101B70008093F50608953FB7F894809135029091CF
:101B80003602A0913702B091380226B5A89B05C055
:101B90002F3F19F00196A11DB11D3FBFBA2FA92FEC
:101BA000982F8827BC01CD01620F711D811D911DE9
:101BB00042E0660F771F881F991F4A95D1F7089555
:101BC000833081F028F4813099F08230A9F00895B3
:101BD0008730A9F08830C9F08430B1F4809180005A
:101BE0008F7D03C0809180008F778093800008955F
:101BF00084B58F7784BD089584B58F7DFBCF8091A8
:101C0000B0008F778093B00008958091B0008F7DF1
:101C1000F9CF1F93CF93DF93282F30E0F901E25BD8
:101C2000F94E8491F901E65CF94ED491F901EA5D2F
:101C3000F94EC491CC23A9F0162F81110E94E00D1A
:101C4000EC2FF0E0EE0FFF1FE45EF94EA591B4918A
:101C50008FB7F894EC91111108C0D095DE23DC9376
:101C60008FBFDF91CF911F910895DE2BF8CFCF93D7
:101C7000DF9390E0FC01E65CF94E24918A5D994E79
:101C8000FC0184918823D1F090E0880F991FFC011A
:101C9000EE5EF94EA591B491FC01E45EF94EC5915A
:101CA000D491623071F49FB7F8943C91822F809563
:101CB00083238C93E8812E2B28839FBFDF91CF91C4
:101CC00008958FB7F894EC912E2B2C938FBFF6CFFD
:101CD000CF93DF93FC01E55BFF4F20813181232B04
:101CE000F1F07E962081DC01AB58BF4F2C933196EA
:101CF00050813C965083EC01CC58DF4F3881332320
:101D000071F0313079F42997388123170CF43C9322
:101D100084599F4FDC018C9185170CF48083DF91EF
:101D2000CF910895EC01CA59DF4F488188599F4FE0
:101D3000EC013881822F220F990B632F032E000CA8
:101D4000770B640F711D47FD7A958617970714F47A
:101D5000430F4C9335171CF73083E1CF213039F016
:101D600020F0223031F0840F0895860F0895841BEF
:101D70000895861B0895213039F020F0223031F08B
:101D8000861B0895840F0895860F0895841B089577
:101D9000DC0118964C911897ED91FC9111972491C4
:101DA00030E0042E02C0359527950A94E2F7842F7F
:101DB000860F883068F031961196FC93EE93E4918B
:101DC00098E0941B01C0EE0F9A95EAF72E2B8850ED
:101DD00018968C938FEF9FEF01C0880F6A95EAF7F2
:101DE000809582230895FC01E60FF11D849190E017
:101DF000982F88273196E4918E0F911D08950F93A7
:101E00001F93CF93DF93EC018B01FB0184918883B7
:101E10003196E491E983FB013296E491EA83FB0178
:101E20003396E491EB83FB013496E491EC83FB0160
:101E30003596E491ED83FB013696E491EE83FB0148
:101E40003796E491EF83FB013896E491E887FB0134
:101E50003996E491E987FB013A96E491EA87FB0120
:101E60003B96E491EB87FB013C96E491EC87FB0108
:101E70003D96E491ED87FB013E96E491EE87FB01F0
:101E80003F96E491EF87FB017096E491E88B61E166
:101E9000C8010E94F30E9A8B898B63E1C8010E94EE
:101EA000F30E9C8B8B8B65E1C8010E94F30E9E8B19
:101EB0008D8BDF91CF911F910F9108950F93DC01CE
:101EC000802FFD01ED58FF4F90819923E9F12223E6
:101ED000D9F1223020F0023079F56F5F621B082FB4
:101EE0000170FD0180FD32C0EB5BFF4F8081481720
:101EF00058F131968081481738F5329790813197A3
:101F00008081260F2617F0F46917D8F42FEF290FD8
:101F10008217D0F4681708F4682F291708F4922F55
:101F2000961BD696ED91FC91D7970480F581E02D14
:101F3000292FCD01099508C0033089F64F5F421B58
:101F4000CECF682F691720F30F910895ED5BFF4FF7
:101F500080816817C8F3319680816817A8F7329698
:101F6000908131978081240F241778F4491760F409
:101F70002FEF290F821740F7481708F4482F291729
:101F800008F4922F941BCDCF482F4917E8F6F2CFD3
:101F90005F926F927F928F929F92AF92BF92CF92F9
:101FA000DF92EF92FF920F931F93CF93DF935C0129
:101FB000162F642EEC01C15BDF4FDC80ED804C01FD
:101FC00089E7880E911CFE80FD18C12EF11608F4D9
:101FD000CF2C5B800C85202F4E2D6D2D8A810E9489
:101FE000AE0E782E202F4E2D6D2D852D0E94BB0E0E
:101FF000482F662071F08A85F40180832C2D672D8F
:10200000C5010E945E0F1F1548F01F19E394D12CE3
:10201000DACF89858111F7CF8B85EECF1D0D1C831B
:10202000ED82DF91CF911F910F91FF90EF90DF90A4
:10203000CF90BF90AF909F908F907F906F905F9068
:102040000895DC011A96ED91FC9130E020E00994AE
:102050000F93FC01EB5BFF4F3081319650814517A8
:1020600030F4301738F0041728F080E013C0301730
:10207000D0F3FBCFFC01ED5BFF4F30818C5B9F4FBA
:10208000FC018081681740F481E0321718F081E08C
:10209000261758F70F9108953217C8F3E6CF6F92BD
:1020A0007F928F929F92AF92BF92CF92DF92EF92E8
:1020B000FF920F931F93CF93DF93EC01062F142F02
:1020C0007901FC01E55AFF4F8081813009F445C058
:1020D000D0F1823009F44BC0833009F452C0FE01C4
:1020E000EF5AFF4F0083319610833797808191819B
:1020F00047962FEFE216F10411F008F0E6C0E1E692
:10210000EE16F10408F447C0FE01E159FF4F2081AB
:102110003181820F931F9C012F5F3F4FF901449142
:10212000411142C0712C872DDF91CF911F910F91EA
:10213000FF90EF90DF90CF90BF90AF909F908F90E7
:102140007F906F900895FE01E35BFF4F0190F08157
:10215000E02DCE010995180FC2CFFE01E35BFF4FC2
:102160000190F081E02DCE010995081BB8CFFE014A
:10217000E35BFF4F0190F081E02DCE010995181B24
:10218000AECFFE01E35BFF4F0190F081E02DCE0169
:102190000995080FA4CFF1E4EF16F10408F4BBCFC2
:1021A000FE01E359FF4FB3CFFC0144914E151F04CC
:1021B00009F086C00296009709F4B4CF7E01FFE4CF
:1021C000EF0EF11CF7019183808310867196608178
:1021D000C7010E94C80EF701868372966081C7010D
:1021E0000E94C80EA82EF70187836E01F9E7CF0E73
:1021F000D11CF6019081F701928781E0911180E076
:10220000F7018387FE01EE59FF4FB0806B2DC701A8
:102210000E94C80E882EFE01ED59FF4F1081612FDC
:10222000C7010E94C80E982EFE01EC59FF4F008195
:10223000602FC7010E94C80E015041E050E09A0192
:1022400001C0220F0A95EAF7782E721AF70106816B
:1022500010160CF068CFBA94CA0101C0880FBA9466
:10226000EAF7881AB4849A0C115001C0440F1A95E9
:10227000EAF7F42FF9199F2E2B2D4F2F682DF70118
:1022800082810E94AE0E182FF70182832B2D492DDB
:10229000682D83810E94BB0EF7018383F1E0BF1696
:1022A00009F47CC0BF1608F43FC022E0B21609F45E
:1022B0007BC093E0B91609F482C0082F212F38C0E3
:1022C000F9012491820F911D26CFFE01EF58FF4F97
:1022D00000811181080F191F680160E0C6010E948A
:1022E000F30E080F191F62E0C6010E94F30EF4E01E
:1022F000CF0ED11C8E159F0580F3F801849190E0DC
:10230000982F88273196E4918E2B009709F40ACFF5
:10231000E816F90619F4C80103964DCFF801329674
:10232000E4910E0F111DE9CF202F210F082F0A0D68
:10233000482F612FCE010E942810882309F4F3CE84
:10234000F701148215828E01025A1F4F4E01FFE5DC
:102350008F0E911CF8016081C7010E94C80E682E83
:10236000F4016081C7010E94C80EB82E40E0662DBE
:10237000CE010E94C80F41E06B2DCE010E94C80F14
:1023800061E0C7010E94C80E8111F0CFF70185817D
:102390008A1504F38285F6018083C5CEBA1821E040
:1023A000210F080F1B0DC4CF91E0392F301B21E006
:1023B000210F9A1901E0080F890F130FB9CF212FB0
:1023C0002A0D982F901B01E0080F81E0890FB0CFF4
:1023D000AF92BF92DF92EF92FF920F931F93CF9332
:1023E000DF938C01D62FDC0158961C927A01D12CF8
:1023F000CEE45C01BBE5AB0EB11CF70161917F013E
:10240000D8011296ED91FC91C80109958F3F98076C
:10241000E9F08E3FEFEF9E0781F39C014D2F6C2F6B
:10242000C8010E944F10D5019C91913049F030F0C5
:10243000923041F0933041F0D80EDFCFC80FFCCF7F
:10244000D80FFACFC81BF8CFD81BF6CF8D2DDF9150
:10245000CF911F910F91FF90EF90DF90BF90AF90C1
:102460000895DC011696ED91FC9130E020E040E00B
:1024700069E10994DC011696ED91FC9130E020E0D1
:1024800040E068E109949A01DC011696ED91FC9117
:10249000462F67E10994EF92FF920F931F93CF931A
:1024A000DF931F92CDB7DEB77C018B01D8016C9111
:1024B000673129F150F46531A0F40F90DF91CF918D
:1024C0001F910F91FF90EF9008956A3118F16E3FC0
:1024D000A1F7F8014181498369E2C7010E942110F7
:1024E0000BC0F80141814983D7011696ED91FC910B
:1024F00030E020E0C70109950E5F1F4FD7CFF801EC
:1025000081818983AE014F5F5F4F61E0C7010E9407
:102510004312F2CF0F5F1F4FD7011696ED91FC913A
:1025200030E020E040E0C7010995C0CF462FDC0134
:102530001696ED91FC9130E020E065E10994AF92B0
:10254000BF92CF92DF92EF92FF920F931F93CF93A0
:10255000DF9300D000D01F92CDB7DEB78C01DC0135
:10256000DA96AC90DA97DB96EC90DB97ED91FC91E4
:10257000B188FE2CD12CC12CD801ED91FC91119782
:102580008089D8962D913C911C82FD828B83B8E086
:102590008B9FC00111248C9DA0018D9D500D9C9D91
:1025A000500D1124240F351F3A832983D801149626
:1025B000ED91FC919E012F5F3F4F41E06FE0C8011C
:1025C0000995F3948F2D8E198A1528F4BFEFCB1A35
:1025D000DB0AFB1488F20F900F900F900F900F9072
:1025E000DF91CF911F910F91FF90EF90DF90CF90EF
:1025F000BF90AF900895AF92BF92CF92DF92EF92CB
:10260000FF920F931F93CF93DF93EC01693089F40E
:1026100089E291E0998388831C8A81E0DF91CF91E0
:102620001F910F91FF90EF90DF90CF90BF90AF90F0
:10263000089579016B3009F440C06F3009F444C04B
:1026400080E06A3059F7EA85FB8530E020E040E021
:1026500068E2CE010995EE81FF8130E020E040E0A4
:1026600064E1CE01099541E06BE4CE010E942110A6
:10267000E881F981448169E2CE010E94211040E0A5
:102680006BE4CE010E942110E881F981448169E266
:10269000CE010E94211041E06BE4CE010E94211086
:1026A000E881F981458169E2CE010E94211066E14D
:1026B00071E0CE010E944B12B0CF6FE071E0442375
:1026C000C1F364E071E0F5CFF9010481000F000F60
:1026D000000F13811695003210F00052185FCE01E2
:1026E0000E943A12F701A080B1806EE3CE010E94F1
:1026F00096126EE3CE010E949612D12C1068602FC4
:102700006D0D6068CE010E949612612FCE010E946D
:102710009612F701C280A5016C2DCE010E944312D2
:10272000AC0CB11CD394F8E0DF12E9CFCE010E94CB
:10273000311273CF0F93DC01DE963C91DE97431B81
:10274000D496ED91FC9109950F9108952F923F92A7
:102750004F925F926F927F928F929F92AF92BF92B1
:10276000CF92DF92EF92FF920F931F93CF93DF935D
:10277000EC014C0183E4880E911CF4011082329725
:1027800020805E01F4E4AF0EB11CF50120823FAC65
:102790006E01F5E4CF0ED11CF601308235974080F2
:1027A0007E01F6E4EF0EF11CF701408234961081B1
:1027B000329760803196708032975080012F262D9D
:1027C000472D652DCE010E942810CD58DF4F811175
:1027D00014C01882DF91CF911F910F91FF90EF905D
:1027E000DF90CF90BF90AF909F908F907F906F9031
:1027F0005F904F903F902F90089581E088835520FF
:1028000011F0F4015082621410F4F5016082371463
:1028100010F4F60170821415E8F6F7011083DACF90
:10282000CF93DF93FC01A081B18182AD982F990FE6
:10283000990F990F95AF50969C915097903208F050
:102840009FE1990F990F990F94AF23AD922F990F94
:10285000990F990F96AF51963C915197682F620F3F
:102860007727771F3617170614F4832F821B97AF2D
:10287000EF01C05CDF4F880F880F880F890F8883B6
:10288000219680EF888354968D919C915597813F36
:10289000910508F48883EE5BFF4F56968C918083F8
:1028A000DF91CF9108959A01DC011896ED91FC918A
:1028B000462F67E10994CF93DF931F92CDB7DEB720
:1028C0006983AE014F5F5F4F61E00E9453140F9028
:1028D000DF91CF910895CF92DF92EF92FF920F9305
:1028E0001F93CF93DF93EC01142F79016631C1F16F
:1028F00030F4643149F06531A9F080E040C06731BF
:1029000009F446C06A31C8F7E885F9859701412F77
:10291000CE01DF91CF911F910F91FF90EF90DF904B
:10292000CF90099468EF0E945B1441E06CE2CE0105
:102930000E942110612F607FCE010E945B1441E054
:102940006CE2CE010E942110612F6295607FCE0162
:102950000E945B1441E06CE2CE010E9421100EC087
:1029600068EF0E945B14612F607FCE010E945B14B0
:10297000612F6295607FCE010E945B1481E0DF9140
:10298000CF911F910F91FF90EF90DF90CF9008951E
:102990006AEF0E945B1441E06CE2CE010E942110BC
:1029A000DE2CCF2C012F083008F5012F0695069557
:1029B0000695D12E88EF089FD00C1124E8E00E9FD9
:1029C000800111240E0D1F1DDD2021F2F801F19070
:1029D0008F016F2D607FCE010E945B146F2D629579
:1029E000607FCE010E945B14DA94EECFA4E2B2E0E5
:1029F000ED2DFC2D9F01285F3F4F8191982F907FF7
:102A00009C938295807F11968C9311971296E21772
:102A1000F30799F7DE2ECF2E085044E252E060E132
:102A2000CE010E945314BFCFDC011496ED91FC91AE
:102A300030E020E040E060E109948F929F92AF92F5
:102A4000BF92CF92DF92EF92FF921F93CF93DF93CB
:102A5000EC016C32B0F46A32E8F5683241F1693267
:102A600009F445C080E06034B0F16F73FE01E60FF9
:102A7000F11D868D8F3F71F1603108F06EC0642FBB
:102A800013C06D3209F457C068F384EB860F8230AF
:102A900048F76F73C60FD11D8E8D41115AC061E08A
:102AA0000E94370E60E08E8D0E94090E13C07C01DB
:102AB0002EE1E20EF11CD0E0F70181917F018F3F02
:102AC00031F061E0D03108F062E00E94370EDF5F44
:102AD000D63191F781E0DF91CF911F91FF90EF9078
:102AE000DF90CF90BF90AF909F908F900895C42EAD
:102AF000D12CF12CE12C0E94BB0D4B015C01C114C7
:102B0000D104E104F10431F30E94BB0D6819790985
:102B10008A099B09683E73408105910580F3F1E0C5
:102B2000CF1AD108E108F10828EE820E23E0921EA8
:102B3000A11CB11CE4CF85E090E0433010F082E0AE
:102B400090E0880F991F880F991F05970197F1F75B
:102B5000C1CF62E00E94370EBDCF282F30E0F901CF
:102B6000E25BF94E8491F901E65CF94EF490F901CB
:102B7000EA5DF94E1491112379F081110E94E00D64
:102B8000E12FF0E0EE0FFF1FE85FF94EA591B49141
:102B9000EC91FE2281E009F480E0898F9BCF2091A7
:102BA000D901260F3327331F21323105ECF4209150
:102BB000FD01FC0190E080E0243069F082E008959E
:102BC000A091D9012191AC0147545E4FA40FB52FBC
:102BD000B11D2C930196861798F38091D901680F47
:102BE0006093D90180E0089581E008958FEF9FEF11
:102BF00008958FEF9FEF08958091B20190E0919535
:102C0000819591090895CF93DF93CB01EA01642F59
:102C10000E94CF15CE01DF91CF910895CF93DF931E
:102C20001F92CDB7DEB7698361E0CE0101960E94A5
:102C3000CF1581E090E00F90DF91CF910895CF9371
:102C4000DF93DC011496CD91DC9115971696ED91EA
:102C5000FC911797888584838A8583838E818283FC
:102C600018968D919C918130910561F030F0823001
:102C7000910561F0DF91CF9108951682158280E170
:102C80008783F8CF9683858380E2FACF9683858306
:102C900080E3F6CFFC0190858285891720F4968326
:102CA0008681878308958683FBCF1F93CF93DF931D
:102CB000EC016130710589F16230710509F447C09A
:102CC000672B09F057C0EC81FD819285108581E06A
:102CD000903F08F080E021E0103F08F020E04885B8
:102CE000598541305105A9F098F04230510599F0CD
:102CF0009287CF010E944A168C819D81FC0110872A
:102D00000E944A16CE01DF91CF911F910C941F169D
:102D1000980F120FEDCF980FEBCFEC81FD819285CC
:102D2000108581E0911101C080E021E0111101C006
:102D300020E0488559854130510539F028F042306E
:102D40005105B1F6981BD4CF981B121BD1CF8885A3
:102D500099858130910559F028F0029799F61986E6
:102D60001886D0CF81E090E099878887CBCF79878C
:102D70006887C8CFDF91CF911F910895FC018481AE
:102D80009581892B79F48781815087839185915032
:102D90009187938591509387811104C081E090E0E1
:102DA000958384830895FC0194819F5F94830895A3
:102DB000CF92DF92EF92FF920F931F93CF93DF9307
:102DC0006C01EB017B01E40EF51E10E000E0CE1576
:102DD000DF0561F06991D601ED91FC910190F081E0
:102DE000E02DC6010995080F191FF1CFC801DF9129
:102DF000CF911F910F91FF90EF90DF90CF900895AA
:102E0000CF92DF92EF92FF920F931F93CF93DF93B6
:102E1000EC016C0124E0C20ED11CFC01E158FF4F13
:102E20000190F081E02DC60109958E3FEFEF9E07DE
:102E3000C8F48E010E571F4F7E01F1E8EF0EF11C12
:102E40009C01F8014081F7016081C6010E944F108A
:102E5000C15ADF4F98819130A9F078F09230A1F0FB
:102E60009330B9F081E090E0DF91CF911F910F9105
:102E7000FF90EF90DF90CF900895F7019081890F38
:102E80008083F0CFF801FACFF7019081981B892F4A
:102E9000F7CFF801FACF089590E080E00895FC01A3
:102EA000A081B18150962C9182AD38E0839FC00102
:102EB0001124289FA001299F500D112470E060E08B
:102EC00080AD91AD0C940B1E0F931F93CF93DF93A6
:102ED000EC01683109F46EC058F46431F9F0F9017D
:102EE000673181F080E0DF91CF911F910F910895BC
:102EF000693109F49CC06032A9F76AE4CE010E94EE
:102F0000211056C0442309F453C081918EBD0000A6
:102F10000DB407FEFDCF8EB54150F4CFE881F981A5
:102F20008C859D85AE85BF85892B8A2B8B2B41F4A3
:102F300080859185A285B3858C879D87AE87BF8765
:102F4000418169E4CE010E942110CFB7F8948091AD
:102F50002302811127C0E0E3F6E18491E4E4F6E185
:102F60009491E82FF0E0EE0FFF1FEE5EF94EA59171
:102F7000B491EC91E92321F461E08AE00E94090E0A
:102F800061E08AE00E94370E8CB580618CBD8CB503
:102F900080648CBD61E08DE00E94370E61E08BE0C3
:102FA0000E94370E809123028F5F80932302CFBF50
:102FB00081E099CFE881F981E485E15090E0E33048
:102FC00020F4F0E0EF5FFE4F90810C851D852E858B
:102FD0003F8540E052E16AE770E080E004171507A2
:102FE0002607370740F476956795579547958F5F85
:102FF0008630A1F787E09C709065282F2695922B4C
:10300000809581709CBD8DBDE881F981408169E426
:10301000CE010E942110A881B981EA85FB8530E0AC
:1030200020E012964C916CE2CE010995C1CFA881A7
:10303000B981EA85FB8530E020E013964C916CE283
:103040000995E881F981418169E458CF1F93CF93B5
:10305000DF9385ED8093BC008091B5019091B6011E
:10306000A091B701B091B8010796A11DB11D23E051
:10307000B695A795979587952A95D1F72091BC008D
:1030800024FD03C01092FD0152C04091B501509142
:10309000B6016091B7017091B801452B462B472BC3
:1030A00069F30097A105B10541F025E32A95F1F7F1
:1030B00000000197A109B109E1CF8091B401C1E0FD
:1030C000C093B301882399F1D091B8001091BA0050
:1030D0008091BC008A7B8093BC0060E082E10E940A
:1030E000090E60E083E10E94090E1092FD01C09379
:1030F000FF011092FE0161E082E10E94090E61E091
:1031000083E10E94090E8091B9008E7F8093B900FF
:103110008091B9008D7F8093B90088E48093B800D6
:1031200085E48093BC001093BA00D093B800DF917F
:10313000CF911F9108958F929F92AF92BF92CF929D
:10314000DF92EF92FF920F931F93CF93DF93CDB750
:10315000DEB72A970FB6F894DEBF0FBECDBF5C0175
:103160006B01FC0117817B01F4E0EF0EF11C90E193
:10317000992E910E092D2EE7412F6CE4C7010E9474
:103180002810882351F000E022E3412F6CE4C701AE
:103190000E945E0F1F5F9112F6CFF601E15BFF4FB9
:1031A000808191818B5F984069F08BEF98E09183EB
:1031B0008083BC01C601805A9F4F0E94FF0EC70149
:1031C0000E94680EF50182811F928F938BE791E038
:1031D0009F938F938E010F5F1F4F1F930F930E943A
:1031E000121E86E2882E8DE0982EF6019782868246
:1031F000A8016EE1C7010E94E811F50184811F92C8
:103200008F9381E891E09F938F931F930F930E9478
:10321000121EF60197828682A8016EE2C7010E9403
:10322000E811F50183811F928F9387E891E09F93C6
:103230008F931F930F930E94121EF601978286822E
:10324000A8016EE3C7010E94E8110FB6F894DEBF33
:103250000FBECDBF2A960FB6F894DEBF0FBECDBF0E
:10326000DF91CF911F910F91FF90EF90DF90CF9062
:10327000BF90AF909F908F9008951F920F920FB6BE
:103280000F9211242F933F938F939F93AF93BF93EC
:103290008091390290913A02A0913B02B0913C0298
:1032A0003091340223E0230F2D3758F50196A11DEC
:1032B000B11D209334028093390290933A02A09377
:1032C0003B02B0933C028091350290913602A0916E
:1032D0003702B09138020196A11DB11D80933502CD
:1032E00090933602A0933702B0933802BF91AF910A
:1032F0009F918F913F912F910F900FBE0F901F9034
:10330000189526E8230F0296A11DB11DD2CF1F925A
:103310000F920FB60F9211242F933F934F935F9309
:103320006F937F938F939F93AF93BF93EF93FF938D
:103330008091B900887F803609F44AC0F0F5883260
:1033400009F4A5C018F5803109F499C0B8F48823B0
:1033500009F4F5C0883009F492C0FF91EF91BF9154
:10336000AF919F918F917F916F915F914F913F911D
:103370002F910F900FBE0F901F901895883109F470
:1033800086C0803251F78093FC0114C0803409F468
:103390009BC040F48033B9F38833F9F68093FC0185
:1033A00085ECAEC0803509F483C0883509F494C03B
:1033B000883499F60E942618D0CF883909F48AC03B
:1033C00038F5883729F050F4883611F0803729F61F
:1033D00083E08093FD011092FB0155C0883809F409
:1033E00079C0803919F0803809F0B7CF8091FB019E
:1033F000803208F06FC0E091FB0181E08E0F809376
:10340000FB018091BB00F0E0E552FE4F80833BC0A2
:10341000803B39F0D0F4803A09F477C0883A09F05B
:103420009CCF84E08093FD011092DA011092D901C3
:10343000F0E0E0E009958091D90181110FC081E0B1
:103440008093D9011092B90109C0803C09F4A8CF3A
:10345000883C09F4A5CF883B09F07FCFE091DA01E1
:1034600081E08E0F8093DA01F0E0E754FE4F808117
:103470008093BB009091DA018091D90129C080919D
:1034800022028093BB0085EC8093BC0066CF9091B4
:10349000210280912002981758F5E091210281E0E5
:1034A0008E0F80932102F0E0E050FE4F8081E9CF43
:1034B000E091210281E08E0F809321028091BB0078
:1034C000F0E0E050FE4F8083909121028091200235
:1034D0009817C8F285E8D8CFE091210281E08E0FDD
:1034E000809321028091BB00F0E0E050FE4F80838A
:1034F0008091FF0181115ECF81E08093FE0184EA1B
:103500008093BC001092FD0128CF85EC8093BC0015
:103510001092FD018091FB01803230F4E091FB01BB
:10352000F0E0E552FE4F10826091FB0170E08BED00
:1035300091E0F0E0E0E009951092FB010ECF1092CF
:10354000FC0138CF1F920F920FB60F9211242F93C8
:103550003F934F935F936F937F938F939F93AF931B
:10356000BF93CF93DF93EF93FF93F8948091750609
:10357000909176060196803D27E0920709F441C0BC
:103580009093760680937506C6B1CE73C095D0E051
:10359000CE019595879583709091410691114BC00E
:1035A000813009F041C08093410690E080E00E94A4
:1035B000980D83E0D595C7958A95E1F7C170809104
:1035C0004D06C81751F0C0934D0683E090E0C1113D
:1035D00002C082E090E00E94980D7894FF91EF91F4
:1035E000DF91CF91BF91AF919F918F917F916F911B
:1035F0005F914F913F912F910F900FBE0F901F90B1
:103600001895109276061092750680917306909127
:103610007406009709F4B8CFDC01ED91FC9101909C
:10362000F081E02D0995B0CF823019F680934106E4
:1036300081E090E0BCCF8111BCCF9150923008F076
:10364000B8CF10924106B5CF08958F929F92AF9256
:10365000BF92EF92FF920F931F93CF93DF93CDB75B
:10366000DEB7A1970FB6F894DEBF0FBECDBF7C01C9
:103670008B01FB01E45AFF4F81E080833D978081FD
:1036800091818856904071F088E690E09183808324
:10369000BC01C801805A9F4F0E94FF0EC8010496CA
:1036A0000E94680E81E0F801EF57FF4F808389E0A8
:1036B00031968083D70114962C9130E050E040E0A1
:1036C00019A27E01B1E2EB0EF11C8AE0882E912C4A
:1036D000A12CB12CCA01B901A50194010E94E31DDE
:1036E000605DF70162937F012115310541055105A8
:1036F00089F7309781F001900020E9F73197AF0109
:103700004E195F09D801ED91FC910280F381E02D03
:10371000B701C8010995A1960FB6F894DEBF0FBE98
:10372000CDBFDF91CF911F910F91FF90EF90BF9090
:10373000AF909F908F90089502970C94251BCF9384
:1037400010927B0610927A0686E29DE09093F8062E
:103750008093F7061092F9061092FA0610929406DA
:103760008DE691E0909379068093780610927D061D
:1037700010927C061092910610928806109289068B
:1037800010928A0610928B068FEF80939206809398
:103790009606EAE9F6E080EB96E0CFEFC1938E174C
:1037A0009F07E1F78BEF92E190938106809380066B
:1037B0008BE694E1909383068093820684E697E1FA
:1037C00090938506809384068DE195E1909387061A
:1037D0008093860630E020E040E069E08CE796E0E8
:1037E0000E94FB121092C8061092C70680E39DE06B
:1037F0009093B1068093B00681E492E09093B50671
:103800008093B40688E08093B6061092B7061092B3
:10381000D4061092F40681E08093F5068093F606B4
:1038200085E791E09093B3068093B2068CE796E02B
:103830000E9410141092C3061092C506C093C406CD
:10384000C093C606E091B206F091B3060280F38100
:10385000E02D8CE796E009958FE79DE09093CA06EE
:103860008093C9061092D7068CE08093A306C0937C
:10387000A5061092740610927306109276061092A6
:1038800075068FE591E090936F0680936E0687E64C
:1038900091E090937106809370061092720689E50C
:1038A00091E0909363068093620687E796E0909399
:1038B000650680936406109268061092690610925D
:1038C0006A0610926C0610926D0610926B0681E0EB
:1038D00090E0909367068093660683E591E090936D
:1038E0005B0680935A0610925C0610925E06109258
:1038F0005D061092600610925F0680E1809361067B
:1039000085E491E090935106809350068DE491E018
:10391000909353068093520682E696E09093550664
:10392000809354068AE596E0909357068093560656
:10393000109259061092580610924D0688E796E0AC
:1039400090934F0680934E061092410610924C06BB
:10395000CF910895789484B5826084BD84B58160E8
:1039600084BD85B5826085BD85B5816085BD80914A
:103970006E00816080936E001092810080918100C2
:1039800082608093810080918100816080938100BA
:10399000809180008160809380008091B10084607C
:1039A0008093B1008091B00081608093B0008091DD
:1039B0007A00846080937A0080917A00826080939C
:1039C0007A0080917A00816080937A0080917A00F9
:1039D000806880937A001092C10078948EE696E019
:1039E0009093740680937306109280001092810069
:1039F00010928500109284008CE790E090938900EB
:103A000080938800809181008860809381008091FC
:103A1000810083608093810080916F008260809339
:103A20006F0087B117B888B18E6388B980914C0652
:103A3000853068F4E82FF0E0EE0FFF1FEF5BF94FE1
:103A400020E536E0328321838F5F80934C06E0913E
:103A50008006F091810630E020E040E06AE08CE7EB
:103A600096E009958091F606882321F08CE796E090
:103A70000E944F1780E00E94810D8CE796E00E9423
:103A80009F12C091B7068091B606C80FE0917C06E0
:103A9000F0917D068189C81708F481C08CE796E013
:103AA0000E94141580E00E94810DE0918006F09143
:103AB000810630E020E040E06BE08CE796E009957D
:103AC000C0E0D0E002E616E12FB7F8948091390209
:103AD00090913A02A0913B02B0913C022FBF90938B
:103AE000400280933F028CE796E00E944F170E94AD
:103AF000B70D8091C7069091C8068256964171F025
:103B00001093C8060093C70662E676E188ED96E05A
:103B10000E94FF0E8CE796E00E94680E25E430E0DC
:103B200040E365E08CE796E00E944F1068E776E09E
:103B30008EE696E00E94251B68E776E08AE596E02F
:103B40000E949B188CE796E00E949F128CE796E0FB
:103B50000E9414152FB7F8948091390290913A027F
:103B6000A0913B02B0913C022FBF20913F023091C7
:103B70004002821B930B20913D0230913E02820F46
:103B8000931F883E23E09207A0F490933E02809317
:103B90003D02209709F498CF0E94000095CF8091B4
:103BA000F606882321F08CE796E00E944F178C2FB1
:103BB00062CF10923E0210923D028091000181502E
:103BC00080930001E6CFA1E21A2EAA1BBB1BFD01C8
:103BD0000DC0AA1FBB1FEE1FFF1FA217B307E407EC
:103BE000F50720F0A21BB30BE40BF50B661F771F44
:103BF000881F991F1A9469F7609570958095909524
:103C00009B01AC01BD01CF010895EE0FFF1F059090
:103C1000F491E02D0994DC0101C06D9341505040B6
:103C2000E0F70895AEE0B0E0E8E1FEE10C94C120D9
:103C30000D891E8986E08C831A8309838FEF9FE7A5
:103C40009E838D83AE01475E5F4F6F89788DCE0175
:103C500001960E94351E2F813885020F131FF8012F
:103C600010822E96E4E00C94DD20ABE0B0E0EBE3B4
:103C7000FEE10C94B3207C013B018A01FC01178218
:103C80001682838181FFC8C1CE0101965C01F701D4
:103C90009381F30193FD859193FF81913F018823E7
:103CA00009F453C1853239F493FD859193FF8191D5
:103CB0003F01853229F4B70190E00E942520E7CF2B
:103CC000912C212C312CFFE1F31538F08B3211F1BE
:103CD00090F4803209F1833229F137FC3CC020EDA9
:103CE000280F2A3050F536FE20C08AE0989E200D1D
:103CF0001124922E06C08D3291F0803371F76894B2
:103D000030F8F30193FD859193FF81913F0181117B
:103D1000DACF21C0689431F8689432F8F2CF689411
:103D200033F8EFCF689434F8ECCFEAE02E9E200D04
:103D30001124222E689435F8E4CF8E3229F436FC13
:103D400004C1689436F8DDCF8C3619F4689437F8DE
:103D5000D8CF8836B1F2982F9F7D95549330E0F0FC
:103D60008336A1F18337C1F1833509F063C028019F
:103D7000F2E04F0E511CF801C080D180692D70E037
:103D800036FC02C06FEF7FEFC6010E940F204C018E
:103D9000689437F882010AC00C5F1F4FFFE3F98374
:103DA00088248394912C6501E89437F833FE2DC064
:103DB000522C8114910471F5552009F468CFB70194
:103DC00080E290E00E9425205A94F6CFF80180818D
:103DD00089830E5F1F4FE4CF2801F2E04F0E511C84
:103DE000F801C080D180692D70E036FC02C06FEF11
:103DF0007FEFC6010E941A204C018201D5CFB70186
:103E000080E290E00E9425202A942814190409F0E9
:103E1000B0F7CECFF60137FC859137FE81916F0167
:103E2000B70190E00E94252051105A94F1E08F1ABA
:103E30009108BFCF843619F0893609F077C0F801B0
:103E400037FE6BC060817181828193810C5F1F4F4F
:103E5000F32DFF763F2E97FF09C0909580957095C2
:103E600061957F4F8F4F9F4F689437F82AE030E07D
:103E7000A5010E945520C82ECA188C2C432C36FE52
:103E80000CC0E89440F8C91440F434FE05C032FC7C
:103E900003C0F32DFE7E4F2E892C44FE95C0FE01FB
:103EA000EC0DF11D8081803309F087C0242D297E1F
:103EB000422E842D8870582E43FC95C040FE8FC042
:103EC0009C2C821418F42C0C922C981844FE91C04F
:103ED000B70180E390E00E94252042FE09C088E7F8
:103EE00090E041FE02C088E590E0B7010E942520E5
:103EF000C91408F48AC0CA94D12C9FEFC91AD90AF0
:103F0000CA0CDB1CF60182916F01B70190E00E94A0
:103F10002520AC14BD04B1F74FCF60817181072E0D
:103F2000000C880B990B0E5F1F4F92CFD32CE89497
:103F3000D4F82AE030E0853739F1232D297FD22EBD
:103F40008F3601F148F48835A9F0F7018681978111
:103F50002B96E2E10C94CF20803749F08837A9F7FF
:103F6000D4FE02C06894D2F820E130E00DC068941D
:103F7000D4F8F6CF34FE03C0822F8660D82E20E11D
:103F800032E002C028E030E0F801D7FE0FC06081C7
:103F90007181828193810C5F1F4FA5010E94552082
:103FA000C82ECA183D2CE89437F867CF608171811C
:103FB00090E080E00E5F1F4FF0CF42FC02C0839480
:103FC00078CF8394839475CF842D867809F471CF4C
:103FD000F6CFB70180E290E00E94252083948214FE
:103FE000C0F3512C73CF522C5818821408F46ECFA2
:103FF000F8CF842D867809F47BCF8BE241FE80E2F6
:1040000047FC8DE2B70190E071CFB70180E390E00B
:104010000E9425209A946CCF8FEF9FEF99CFFC01DF
:104020000590615070400110D8F7809590958E0FE3
:104030009F1F0895FC016150704001900110D8F756
:10404000809590958E0F9F1F08950F931F93CF9388
:10405000DF93182F092FEB018B8181FD09C01FEF22
:104060000FEF812F902FDF91CF911F910F91089526
:1040700082FF14C02E813F818C819D8128173907D2
:104080003CF4E881F981CF010196998388831083FC
:104090008E819F8101969F838E83E3CFE885F9858A
:1040A000812F0995892BA1F3DACFFA01AA272830AD
:1040B00051F1203181F1E8946F936E7F6E5F7F4FF5
:1040C0008F4F9F4FAF4FB1E03ED0B4E03CD0670F71
:1040D000781F891F9A1FA11D680F791F8A1F911DC4
:1040E000A11D6A0F711D811D911DA11D20D009F414
:1040F00068943F912AE0269F11243019305D319356
:10410000DEF6CF010895462F4770405D4193B3E03E
:104110000FD0C9F7F6CF462F4F70405D4A3318F0E5
:10412000495D31FD4052419302D0A9F7EACFB4E096
:10413000A6959795879577956795BA95C9F700974E
:104140006105710508959B01AC010A2E06945795EF
:10415000479537952795BA95C9F7620F731F841F46
:10416000951FA01D08952F923F924F925F926F92DC
:104170007F928F929F92AF92BF92CF92DF92EF92F7
:10418000FF920F931F93CF93DF93CDB7DEB7CA1B78
:10419000DB0B0FB6F894DEBF0FBECDBF09942A88A3
:1041A000398848885F846E847D848C849B84AA844B
:1041B000B984C884DF80EE80FD800C811B81AA81D8
:1041C000B981CE0FD11D0FB6F894DEBF0FBECDBFA3
:0841D000ED010895F894FFCF02
:1041D8001E04080C18153815081534150119FF1890
:1041E8001538150C19FFFE6418FE0A153815081540
:1041F8000615021501FE0419FF0100050501061444
:104208008C40420F0003041E281008000080004064
:1042180000000000005516241BFEFF0000241B00B0
:104228000000009B1800000000BE1600000000D32C
:1042380016251BFEFF00009C1B000000000017D87D
:10424800164C174B171014A6139A13543A202564CA
:0E42580000473A20256400423A202564000009
:00000001FF
