:100000000C948B090C94B3090C94B3090C94B309A8
:100010000C94B3090C94B3090C94B3090C94E91C27
:100020000C94B3090C94B3090C94B3090C942D1DD2
:100030000C94B3090C94B3090C94B3090C94B30950
:100040000C94DF1A0C94B3090C94B3090C94B30903
:100050000C94B3090C94441C0C94B3090C94B3098C
:100060000C94291B0C94B30912000505060605041F
:1000700007202000002000200000500000037640F0
:10008000501C08110C094C060942408210902004B3
:100090002408010942420421218290104108821063
:1000A00012410889208444104222082111849008BA
:1000B0004248042164882024441012220809118433
:1000C000840842408210902004240881C921004104
:1000D0003B1C07198C493320441C08F10A42B483A5
:1000E000102B21445A08FE2304810851089110A2C4
:1000F00010E420442911C210672084215240085383
:1001000034E2108D3805266521024228E00711FCF3
:10011000844E6C232318B94A65A61321083DA951C2
:10012000CB4A18C28E56B8E1850F041F1CF9C0FFD8
:1001300001044338200719DC8CCB4C2742CF3046D2
:100140002B54B10A5628C2118A70442220810848D3
:100150002002128880042220810848200212E580B3
:10016000474020FC079160482300440D1846190CB5
:100170001004FFFF7F080145281746190C023BD0E9
:10018000421E30710B6BD4832233914A7CE003858D
:100190009848641ED4A88525EE80851C68600146B9
:1001A000221846199C8CC72C2741472AD4B0842D8D
:1001B0007CE00F50C112B64115E940C959CC331249
:1001C0000047451F1619EC821734C1096C68832A51
:1001D00056910C65A0231D263949518C4296B28850
:1001E0006634C1115DF0C2131CE188663464294B8A
:1001F000518C629293A0231DC950862A56C186361F
:1002000034C1092E7801483E1F06190C8217385157
:100210001BB16215CA944E28398951951569462338
:100220005CE1095EE884139AD188A52C44314A49DF
:100230004E628E74204319A958851ADAC00427B477
:10024000E0050E0049271C06190C9099480532CE8E
:1002500069CF8AD2842863116C6461373282190BAA
:1002600051695A517B9C0319A9CC004A281C0619D4
:100270000C82A948063AEE69D19A12852C83916CBA
:100280006C610BD9C088652834A5683DCD710C54CC
:100290006432114B0B1846190CFEFF7F40024C359F
:1002A000184811AC88694404A29784821421100470
:1002B000FD578C4204A210A508842344C18A51A88A
:1002C000A218C638507216F38C495032C82C2741F8
:1002D0000822004D4A2008115C9717AD2A5D081FBF
:1002E0006A0E810C4720021288800422208108486F
:1002F00020021288800422188208A520222D884816
:100300000B41102314C48405316141585202939467
:10031000C02844308C288A552EA2090C004E3E205D
:100320000811CC90EA40A951CB4AD8D10A47941081
:100330008D454462218F588A139893214C59ABA65E
:100340002C849D262CC5110B79C422A2A18488700F
:10035000453B58B216D524E85484014F5520081166
:10036000DC064EDA8536C8300D62BC831C0D2108D0
:10037000818E31A054084815015A44808850880065
:1003800091A150842014210845084211825064280C
:1003900014110A11A045044815014A85808EB11038
:1003A00082B4831CCF200634C8400B4EEA030400FD
:1003B0005029184811DC064A9A8534C50322083EA4
:1003C0002208880C0122F4C81020220808C1412408
:1003D0001ED2340B4AAA030200511A108811DC06FF
:1003E000465A8532A5037DE0FF0084907428D32A05
:1003F00018A90D00000004FFFF000013000505060A
:10040000060404072020000020002000004A00000D
:10041000038A404A2088087E4227B69191AB58A5AE
:1004200016A298052962618A57A0A215AA60852A9A
:10043000CC07FE00413084870AA188021104210400
:1004400022084208441084108820082110411042DC
:10045000208220844085504481F01100412420886E
:100460000856CC74220421482002128880042220DD
:100470008108F481FF1F5882F7C1950FFC1F4000CF
:10048000421E20860C06FF00F1C1910FFC1F600880
:10049000412842108A10842204F9C01FA00043376B
:1004A0002088089E0656A813218810E2218670072E
:1004B0001A1A8208862082218860892998428C55E0
:1004C000A94A59C94A17BA52A5A805BDC8496D62BB
:1004D0000C653F0A00441A18C8084E06541AB31C8B
:1004E00055902215A640E428F9231FF8FF030C4578
:1004F000651C88088E065522F39C66908219A650CA
:1005000006229291086428E2188B30C62A8AB18AA2
:10051000622C83184238063104518C52086318A5A6
:1005200018C5300C318A61186214C338C420868122
:1005300088410823116311C1210832064314631452
:100540008628C4304CA10C54202319C6585073A0DF
:10055000420D0700462B20880856C4363282D1B29D
:10056000A18D8821FC2708F1850FFC0344C00421DC
:1005700014A2A0C42408FDA1C42428310902004704
:100580002C208808EE811FB6914D18B9884DD5856D
:10059000AEEA72916C6C421666884711627295BA27
:1005A0005E55EA4297AAA2CB3530004835D8C70835
:1005B000564325A61191A7348631CB4910828E541B
:1005C00028420D4BD8C2072C5111BAF204A2348232
:1005D000408A2850320C83946320074ACE5A0E007A
:1005E000493520860C2E56C2100E1190400424105E
:1005F00001094440021190400424100109444002C2
:10060000119040042410010944408230080F7DE01D
:10061000079EE005004A4F20880856886524F4A408
:1006200076986319CA48852B10018953C0C210926D
:1006300028852C0841094250821094200425084145
:100640000942508214B22884244C018B4340021585
:10065000CE40864AD06118944B98428872138CE43D
:10066000431701004B1614C808063F6031F4FF3FE2
:10067000F6014B44042291F880044C1D1A98085E40
:100680008425734C6B98B39E7591BBF52C87358D83
:10069000718425FFBF05004D49DC8709668445A6A6
:1006A0002295C840B62414A608A1200A6184228E8F
:1006B000A0110B492B5292610413188211262C644D
:1006C0002908411042108410E42444190B590243B4
:1006D00030F20C831863380529DE608618A02001EB
:1006E0004E4C1C880846010FB6A0874C5CC31E14F4
:1006F0003595B840E63524504D09905304E398A150
:100700003886188E3144738ED01824300709CBA157
:10071000CE1290C304C434E1388D308C3308F3908A
:10072000C1384628CF098A9302D20C004F1918C746
:100730000C4E06541AB31C55902215A640E4FFC86F
:1007400007FEFF0003501E2088080E5EF8C00F1C35
:1007500018FDFFF0077EE0085E43309AA4969530BE
:10076000841100511DDC87092653A21085A6C640BE
:10077000F653D8D0C207324660F27F59D042030008
:10078000521A1C8808067FE0A2E8FF7FF4031F5876
:1007900044463092890F7CC0080000000004FFFF2F
:1007A00000005F00030304050305060E1100FC0CA6
:1007B000FC0CFD01EB042D05DD200500184B210983
:1007C000C20C4D1C2C6904220A458A51485824A1A8
:1007D00000231BC908D3498412A14474881C421207
:1007E000A14474881C4212A1442891012414E7FA00
:1007F000D2052B0749841223728B502207493106F8
:100800002521CD085D4983B4A048141449C2A438F9
:1008100040148786E48010392212861463C4A80825
:10082000002616CA0A59518D22A1484A9E499A2A81
:10083000B2916C76888D062707428A495802280CA7
:10084000F4DA4C49264AFA9B6824290EF4D84C88DD
:10085000463291FE229988002A0B55784DA5A48C2A
:1008600026B1002B0D880AD589D50E0799580D00A1
:100870002C0952DA48502212002D0724384B1C0252
:100880002E06220A49102F0FC408CB258962215158
:100890002C248AA501300FC80853D12CA3221F4B4A
:1008A000131B0900310AC50A53C60E35FD01320F6C
:1008B000C80853D12CA322513ADCF170103312C86E
:1008C0000853D12CA3A2744624174B131B090034E0
:1008D00013C808530E69129944A48B4C723848C54A
:1008E0002A003511C808533989A535536C2C2E4D73
:1008F0006C24003612C80853D12CA3B264741915A5
:1009000089A5898D04370FC808533C48C552B15496
:10091000AC2A56043813C80853D12CA3A24424A3EC
:100920005946C5D2C446023912C80853D12CA32255
:10093000B134394DC4A5898D043A08820C4BD021BD
:10094000043B0BB2DC4AD021948804003C0D880A99
:10095000550B49A4E91C40260B3D0B681A553CC8B1
:10096000910E07013E0D880A5588D901D311A318AD
:10097000003F10C70AD5540E329A54385495439507
:10098000004023EDEA605A8732392414AB90642189
:10099000594CA426528B89944821519A482687CED7
:1009A000E48022004119CB0859CE21734059229D81
:1009B0000C65B225A9E82039D8017480004214C919
:1009C0000A579C0E11619578A01C22C22AF1403969
:1009D000014317CA0AD9154FB389B40E9043E49066
:1009E00039442A998D8E25004415CA0A59180F21B9
:1009F000E1442A919659AB12E1E4103202450EC847
:100A00000A553C90952F17B1F2E120460DC80A55C2
:100A10003C90952F17B1CE004717CA0AD9154FB38E
:100A200089B40E904384378A54321B1D62140148E6
:100A30000CCA0A5988391F1EC67C164907C20A49C2
:100A40007C184A0CC70AD3EA571AED20A9004B19A3
:100A5000CB0A594827C2916C261A4AA665AB68286A
:100A60009B0947D28978004C0BC80A5588F5CF8777
:100A700083004D19CB0A5B4C5D6F87982516A1A8A2
:100A8000505448911069441AD162024E15CA0A594D
:100A90004C8D468A8C22238948229A842621BA0EBC
:100AA0004F16CB0ADB556F4B52C9B40EA003AA13E5
:100AB000A96836BBD6005014C90A579C0E1161951F
:100AC000F14039C90172801C20075119DBFADA554F
:100AD0006F4B52C9B40EA0036A2189A834A25DEFFE
:100AE000A010005219CA0A591C42078954229508BD
:100AF0002787D021249C48255289B43A5312C90A29
:100B000057D52EB3AAD95A07546B935B09005419D1
:100B1000CA08553C18E51039440E9143E410394495
:100B20000E9143E4102100550DCA0A5988F9E7E2F5
:100B3000E41033015619CA085788C912A14828126F
:100B4000CA444291502425D30172881000571ECE0A
:100B5000085F088544215145A624222991649250BA
:100B600044482292A842B1502C94015814C90A5703
:100B7000486B13998AB03A9E1625329559550059FB
:100B800019CA0857888B13A14C241449C974801CB6
:100B90002287C821728810005A0FC80A553C48A7FE
:100BA000AAC3A9EAF470105B0BF4DA4C1C46FA4FA6
:100BB00087005C0DC4084BC462B234599A2C035DA3
:100BC0000BF4D84C1C42FA4F87015E0D785AD58938
:100BD000A53491162151005F0719D8521C046008F2
:100BE00033AC4D8464016111980AD3942E32E9C864
:100BF0003292C824A7C9006211C80A5588B58C2E44
:100C0000A32263E930918C00630E980A53D12CA380
:100C1000B2F268622301640FC80A556BB21C4645E4
:100C2000C6D2E43411650F980A55D12CC2C3C13C19
:100C30009AD84800660DC40A4D4926924344A42F11
:100C4000006713D8CA544D24875191B134394DC42B
:100C5000A5898D04680DC80A5588B5500E34221F29
:100C6000056909C20A49900E07026A0B03CBCA281C
:100C70004AF42F17006B14C80A5388B59526925171
:100C8000CD3411892632896C006C07C20A497C1860
:100C90006D169C0A5D482893C32134A2C968329A14
:100CA0008C26A3C9680A6E0C980A554828071A9121
:100CB0008F026F0E980A55D12CA32263696223011B
:100CC0007012D8CA544846975191B17498484662F8
:100CD000CD007110D8CA544D24875191B134394D8B
:100CE000C43A720B950A4D480E2399DE00730E9795
:100CF0000AD3540E3263B576905400740DB40ACD05
:100D00008824878848A79100750B980A5508F9ED43
:100D100040A108760F98085308891291DE8854B1D3
:100D20000C0077159C085BC864341591BE5064872D
:100D3000E0682A128B6400780F970A53C86812A5DE
:100D4000DAAC2451A3097915D8C8520889129944FC
:100D50002493C82432EA54AC3895027A0C9708518F
:100D60003CCE86C2D9EC707B0EF4DA4C4926225D6B
:100D700064229D46027C0701CB483C087D0EF4DAD4
:100D80004C88467A9388749988007E0A383AD5CC84
:100D9000446A130000000004FFFF00001300030278
:100DA0000404020205080800000800080000120000
:100DB0000000ED4012888A27AB51340CCA30254A16
:100DC0009428D1B000410D888A35845134FC3B32DF
:100DD0007C08420C688E71D091E183920C0F430F16
:100DE000888A394A99140DCB300DD9BA02440A8643
:100DF0008BA5456965F807450F878A2946B5244BB9
:100E00009A124DCA3600460D888A258BC3344CC3CE
:100E10004F4E00470B888A0FA4EA2AAAC715480D2F
:100E2000768BA50DC9F0900CCB2101490E688E334D
:100E30004C61144661320D07014A0F888A356651AC
:100E40009AA4491A65DA300B4B09858B71F3361C6D
:100E5000044C0A858B151DA4296C024D0C778E97C6
:100E60004EC3900CCAC5724E0E878A158B97641AB2
:100E700094415A92214F09768FA5452DC33F500BBF
:100E8000888AF1EC3CDCC46101510C778E3368E355
:100E9000340C595C035209878A7150BD0E1F000043
:100EA0000004FFFF00005F00030204040204050BBE
:100EB0000BFFFE08FE08FE015502BF03F6200500E9
:100EC000E604210681E3C4252207233B45A204232F
:100ED0001076A2559225D12025C92025591201242A
:100EE00010A59E55B654946C4BA244A96C110025D4
:100EF0001188628ED492293910E740A22551490108
:100F0000260D86238E16B56951A225912927062123
:100F1000BA8400280BA31A551225515B9405290C9D
:100F2000A31B451665514B9444002A07333645D21E
:100F3000012B0A55A655180D5218012C0732DA4C10
:100F4000A2002D06132EC5002E0611E344002F0A21
:100F500083E254256A892200300A85A2CD92F9964F
:100F60002C00310782A3CDD207320C85A2CD928509
:100F700025290B0701330C85A2CD9285911A6AC9E8
:100F800002340E85A25D262551524A062D4C0035AD
:100F90000C85A2CD9084E11A6AC902360C85A2CDD7
:100FA00092894392D99205370B85A2C52066C52C3C
:100FB000AC01380C85A2CD9269C992D99205390C41
:100FC00085A2CD92D99221D492053A0661E34418C4
:100FD0003B0982DA4C0E250A003C0753A755522BD9
:100FE0003D08346AC5100E013E0853A74556290135
:100FF0003F0C84A38D1265512D07220040169ADE06
:10100000DE20A651A4245249C92225AA448A966307
:101010008306410E87E25D9C266192950625550365
:10102000420D85E3C59064DAA064B64101430C86A5
:1010300023CE90846AC7644800440D8623C6106599
:1010400049E82D192200450A85E3C5311CC6E22076
:10105000460A85A3C5311C92B011470C8623CE9059
:10106000846A6D149341480A862346681C06D13170
:10107000490681E3C4414A0984625D6F52A2004B74
:101080000D85E3452625A5A9122599164C0884A3AC
:1010900045D6B7214D10876346BA0DD952512A5211
:1010A000244552014E0F862386B629911249899410
:1010B000689B004F0B8623CE90843E264302500C43
:1010C00085E3C59064DAA0848D005112971FCE107D
:1010D00085499884499844494D1A7420520C85E3F7
:1010E000C59064DAA0646E01530C85E3CD92A9AB80
:1010F000A6250B0054098562C520857D02550A8608
:101100002346E8C7644800560F87E245AA2659944B
:101110004559254CD20C5710896246966995A82FDF
:101120006DC52CCC2200580D85E345A625B54A9403
:10113000D4B400590E87E2459A645156099334AEEF
:10114000015A0B85E3C52066C5AC38085B08A2DBF5
:10115000C4D22F025C0A83E24494456D51005D08BD
:10116000A2DA84D22F035E0A55AE55982551520B50
:101170005F06169AC501600622FE4414610C656282
:10118000C51A2D5112454A00620C85A24558316995
:10119000DAA42800630A64628D1269A54401640A16
:1011A00085A265C5B4991425650B64628D120D5B2B
:1011B000942800660A842295124D592700670C85F1
:1011C0009A8D6933294A982C00680A85A2455831BE
:1011D000696E01690781A244320C6A09A2994C9692
:1011E000F4A2006B0C846245565212292949016C05
:1011F0000681A2C4416D0E6722C6A2449114499192
:101200001449056E0965A24562D2DC026F0A65A227
:10121000CD92B9250B00700C859A4562D2B4495124
:10122000C210710A859A8D6933294A58720963225E
:1012300045B2444D00730B64628D1225A2942800C0
:10124000740A83224D942C5193007508646245E41E
:101250002919760C65A245A625A5240B2300770E37
:10126000672246144995A6A496844904780A65A283
:101270004596D42A352D790E85594D94444929C96E
:10128000B430D2007A0A6462C590456D43007B0A8F
:10129000A3DA541255B2A82D7C07A1DBC443007D0C
:1012A0000BA3DA4416D592A825027E0726EE8D649C
:1012B0000100000004FFFF000000000000230026E2
:1012C00000290000000000240027002A0000000080
:1012D00000250028002B0004040404040404040274
:1012E00002020202020303030303030102040810C3
:1012F0002040800102040810200102040810200090
:1013000000000800020100000304070000000000C4
:1013100000000000CA1D11241FBECFEFD8E0DEBFC1
:10132000CDBF12E0A0E0B1E0EEE6F8E402C0059027
:101330000D92AC32B107D9F727E0ACE2B2E001C0C0
:101340001D92AD3FB207E1F719E0CBE8D9E004C048
:101350002197FE010E945021CA38D107C9F70E9487
:1013600002200C9435240C940000662329F06A3086
:1013700019F0862F90E008958FEF9FEF08950F9357
:10138000CF93DF93DC01ED91FC915089362F3770BC
:10139000E0E8F0E002C0F595E7953A95E2F73E2FD8
:1013A000A52FB0E0FC01C0ADD1AD66956695669500
:1013B000E62FF0E0549FE00DF11D1124EC0FFD1F0E
:1013C000EC01C758DF4F011116C08881823018F434
:1013D0009081932B90838881813019F0908193279D
:1013E0009083369511F4319630E8215071F7DF91F2
:1013F000CF910F9108958881823018F49081932BBA
:1014000090838881813019F0908193279083EA0F2F
:10141000FB1F215081F7EBCF80E0089580E0089515
:10142000CF93DF93CAE7D7E08FAFEAADFBAD019072
:10143000F081E02D8EE797E00995EAADFBAD0280E3
:10144000F381E02D8EE797E0DF91CF91099482E060
:101450008093F70708953FB7F8948091DC0290914C
:10146000DD02A091DE02B091DF0226B5A89B05C087
:101470002F3F19F00196A11DB11D3FBFBA2FA92F13
:10148000982F8827BC01CD01620F711D811D911D10
:1014900042E0660F771F881F991F4A95D1F708957C
:1014A000833081F028F4813099F08230A9F00895DA
:1014B0008730A9F08830C9F08430B1F48091800081
:1014C0008F7D03C0809180008F7780938000089586
:1014D00084B58F7784BD089584B58F7DFBCF8091CF
:1014E000B0008F778093B00008958091B0008F7D19
:1014F000F9CF1F93CF93DF93282F30E0F901E1500C
:10150000FD4E8491F901E551FD4ED491F901E95266
:10151000FD4EC491CC23A9F0162F81110E94500AD0
:10152000EC2FF0E0EE0FFF1FE353FD4EA591B491B9
:101530008FB7F894EC91111108C0D095DE23DC939D
:101540008FBFDF91CF911F910895DE2BF8CFCF93FE
:10155000DF9390E0FC01E551FD4E249189529D4EB0
:10156000FC0184918823D1F090E0880F991FFC0141
:10157000ED53FD4EA591B491FC01E353FD4EC59191
:10158000D491623071F49FB7F8943C91822F80958A
:1015900083238C93E8812E2B28839FBFDF91CF91EB
:1015A00008958FB7F894EC912E2B2C938FBFF6CF24
:1015B000AF92BF92CF92DF92EF92FF920F931F9361
:1015C000CF93DF9300D000D01F92CDB7DEB78C0150
:1015D000DC01DA96AC90DA97DB96EC90DB97ED9134
:1015E000FC91B188FE2CD12CC12CD801ED91FC913D
:1015F00011978089D8962D913C911C82FD828B8316
:10160000B8E08B9FC00111248C9DA0018D9D500DD1
:101610009C9D500D1124240F351F3A832983D80136
:101620001496ED91FC919E012F5F3F4F41E06FE0DA
:10163000C8010995F3948F2D8E198A1528F4BFEFF0
:10164000CB1ADB0AFB1488F20F900F900F900F90CB
:101650000F90DF91CF911F910F91FF90EF90DF904E
:10166000CF90BF90AF900895DC011A96ED91FC9158
:1016700030E020E009940F93FC01EB5BFF4F3081D9
:1016800031965081451730F4301738F0041728F0A0
:1016900080E013C03017D0F3FBCFFC01ED5BFF4FB0
:1016A00030818C5B9F4FFC018081681740F481E0A2
:1016B000321718F081E0261758F70F910895321766
:1016C000C8F3E6CF9A01DC011896ED91FC91462F04
:1016D00067E10994CF93DF931F92CDB7DEB769839B
:1016E000AE014F5F5F4F61E00E94620B0F90DF9190
:1016F000CF910895CF92DF92EF92FF920F931F93B5
:10170000CF93DF93EC01142F79016631C1F130F4EE
:10171000643149F06531A9F080E040C0673109F4D7
:1017200046C06A31C8F7E885F9859701412FCE0197
:10173000DF91CF911F910F91FF90EF90DF90CF90AD
:10174000099468EF0E946A0B41E06CE2CE010E94AE
:10175000340B612F607FCE010E946A0B41E06CE286
:10176000CE010E94340B612F6295607FCE010E94F2
:101770006A0B41E06CE2CE010E94340B0EC068EFB0
:101780000E946A0B612F607FCE010E946A0B612F5D
:101790006295607FCE010E946A0B81E0DF91CF915C
:1017A0001F910F91FF90EF90DF90CF9008956AEF17
:1017B0000E946A0B41E06CE2CE010E94340BDE2CE9
:1017C000CF2C012F083008F5012F069506950695B8
:1017D000D12E88EF089FD00C1124E8E00E9F8001E5
:1017E00011240E0D1F1DDD2021F2F801F1908F0153
:1017F0006F2D607FCE010E946A0B6F2D6295607F16
:10180000CE010E946A0BDA94EECFA7ECB2E0ED2D88
:10181000FC2D9F01285F3F4F8191982F907F9C93D3
:101820008295807F11968C9311971296E217F30799
:1018300099F7DE2ECF2E085047EC52E060E1CE0142
:101840000E94620BBFCF0F93DC01DE963C91DE97C6
:10185000431BD496ED91FC9109950F9108952F9219
:101860003F924F925F926F927F928F929F92AF9230
:10187000BF92CF92DF92EF92FF920F931F93CF937D
:10188000DF93EC014C0183E4880E911CF40110827B
:10189000329720805E01F4E4AF0EB11CF501208286
:1018A0003FAC6E01F5E4CF0ED11CF60130823597C6
:1018B00040807E01F6E4EF0EF11CF7014082349681
:1018C0001081329760803196708032975080012F5E
:1018D000262D472D652DCE010E943B0BCD58DF4FA5
:1018E000811114C01882DF91CF911F910F91FF9049
:1018F000EF90DF90CF90BF90AF909F908F907F90B0
:101900006F905F904F903F902F90089581E0888373
:10191000552011F0F4015082621410F4F501608238
:10192000371410F4F60170821415E8F6F7011083ED
:10193000DACFCF93DF93FC01A081B18182AD982FE4
:10194000990F990F990F95AF50969C91509790329F
:1019500008F09FE1990F990F990F94AF23AD922F43
:10196000990F990F990F96AF51963C915197682F07
:10197000620F7727771F3617170614F4832F821B01
:1019800097AFEF01C05CDF4F880F880F880F890F7A
:101990008883219680EF888354968D919C915597EA
:1019A000813F910508F48883EE5BFF4F56968C913A
:1019B0008083DF91CF910895DC011696ED91FC9123
:1019C00030E020E040E069E10994DC011696ED91F9
:1019D000FC9130E020E040E068E109949A01DC01EC
:1019E0001696ED91FC91462F67E10994EF92FF92D4
:1019F0000F931F93CF93DF931F92CDB7DEB77C0178
:101A00008B01D8016C91673129F150F46531A0F454
:101A10000F90DF91CF911F910F91FF90EF9008955C
:101A20006A3118F16E3FA1F7F8014181498369E2FB
:101A3000C7010E94340B0BC0F80141814983D701D3
:101A40001696ED91FC9130E020E0C70109950E5FFC
:101A50001F4FD7CFF80181818983AE014F5F5F4F60
:101A600061E0C7010E94EE0CF2CF0F5F1F4FD7015C
:101A70001696ED91FC9130E020E040E0C701099519
:101A8000C0CF462FDC011696ED91FC9130E020E0AE
:101A900065E10994DC011496ED91FC9130E020E0C1
:101AA00040E060E10994AF92BF92CF92DF92EF9253
:101AB000FF920F931F93CF93DF93EC01693089F46A
:101AC0008FE491E0998388831C8A81E0DF91CF9134
:101AD0001F910F91FF90EF90DF90CF90BF90AF904C
:101AE000089579016B3009F440C06F3009F444C0A7
:101AF00080E06A3059F7EA85FB8530E020E040E07D
:101B000068E2CE010995EE81FF8130E020E040E0FF
:101B100064E1CE01099541E06BE4CE010E94340BF3
:101B2000E881F981448169E2CE010E94340B40E0F2
:101B30006BE4CE010E94340BE881F981448169E2B3
:101B4000CE010E94340B41E06BE4CE010E94340BC5
:101B5000E881F981458169E2CE010E94340B6CE392
:101B600071E0CE010E94F60CB0CF65E371E0442332
:101B7000C1F36AE271E0F5CFF9010481000F000FB3
:101B8000000F13811695003210F00052185FCE013D
:101B90000E94E50CF701A080B1806EE3CE010E94A7
:101BA000410D6EE3CE010E94410DD12C1068602FD3
:101BB0006D0D6068CE010E94410D612FCE010E9423
:101BC000410DF701C280A5016C2DCE010E94EE0CE3
:101BD000AC0CB11CD394F8E0DF12E9CFCE010E9427
:101BE000DC0C73CF213039F020F0223031F0840F3B
:101BF0000895860F0895841B0895861B089521304B
:101C000039F020F0223031F0861B0895840F0895BA
:101C1000860F0895841B0895DC0118964C9118973F
:101C2000ED91FC911197249130E0042E02C035957E
:101C300027950A94E2F7842F860F883068F0319652
:101C40001196FC93EE93E49198E0941B01C0EE0F83
:101C50009A95EAF72E2B885018968C938FEF9FEF6A
:101C600001C0880F6A95EAF78095822308950F9343
:101C70001F93CF93DF938C01EC01C15BDF4F79831E
:101C800068831886FC01E05AFF4F6081CE010E94F4
:101C90000C0E8E83F801EF59FF4F6081CE010E9438
:101CA0000C0E8F83F801E758FF4F90819A8781E0EF
:101CB000911180E08B87DF91CF911F910F91089553
:101CC000CF93C62F0E940C0EC15021E030E001C01E
:101CD000220FCA95EAF7821BCF910895FC01E60F07
:101CE000F11D849190E0982F88273196E4918E0F12
:101CF000911D0895CF92DF92EF92FF920F931F9361
:101D0000CF93DF936C012BE4C20ED11CD6012D9131
:101D10003C9111972617370709F4A2C0EB017C010B
:101D20006D937C93FB0184918701045A1F4FD80166
:101D30008C933196E4911196EC931197FB013296B6
:101D4000E4911296EC931297FB013396E49113966B
:101D5000EC931397FB013496E4911496EC9314974B
:101D6000FB013596E4911596EC931597FB01369699
:101D7000E4911696EC931697FB013796E49117962B
:101D8000EC931797FB013896E4911896EC9318970B
:101D9000FB013996E4911996EC931997FB013A9659
:101DA000E4911A96EC931A97FB013B96E4911B96EB
:101DB000EC931B97FB013C96E4911C96EC931C97CB
:101DC000FB013D96E4911D96EC931D97FB013E9619
:101DD000E4911E96EC931E97FB013F96E4911F96AB
:101DE000EC931F97FB017096E4915096EC9361E1A0
:101DF000CE010E946E0EF801928B818B63E1CE01C1
:101E00000E946E0ED80154969C938E93539765E171
:101E1000CE010E946E0EF801968B858BD6018D91B6
:101E20009C911197892BE1F03D968081E701CB5879
:101E3000DF4F8883319640819B964C933A969081F0
:101E4000992371F09130A9F43997908189170CF496
:101E50009883F701E459FF4F808184170CF48C9329
:101E6000DF91CF911F910F91FF90EF90DF90CF9076
:101E70000895F701EA59FF4F308132962081082EEC
:101E8000000C990B622F022E000C770B630F711D53
:101E900037FD7A958617970714F4320F3883241785
:101EA000FCF62C93DDCFEF92FF920F931F93CF930D
:101EB000DF93FC01E55BFF4F20813181295E3F4FBD
:101EC0006F3F710509F048F561367105D8F0815909
:101ED0009F4FFC0180819181280F391FC901019614
:101EE000FC014491442309F447C0F9014491461789
:101EF000170671F40196DF91CF911F910F91FF901A
:101F0000EF9008956134710548F383599F4FE1CFF5
:101F1000FC018491280F311DE1CF8B01FC01EF58AA
:101F2000FF4FC081D181C20FD31F7E0160E0C70186
:101F30000E946E0EC80FD91F62E0C7010E946E0E8C
:101F4000F4E0EF0EF11C8017910780F3FE018491FD
:101F500090E0982F88273196E4918E2B009761F0BE
:101F60000817190719F4CE010396C5CFFE01329662
:101F7000E491CE0FD11DEACF90E080E0BCCF2F924C
:101F80003F924F925F926F927F928F929F92AF9209
:101F9000BF92CF92DF92EF92FF920F931F93CF9356
:101FA000DF93EC016C0125E5C20ED11CF601108215
:101FB000188E8B01312C212C7C01FFE4EF0EF11CDB
:101FC0002C0122E6420E511C3C0187E7680E711C71
:101FD0005E01E3E6AE0EB11C4E01F4E68F0E911CDD
:101FE000F80161918F01EA81FB81CE0109958F3F54
:101FF000980721F18E3F2FEF920791F3BC01CE019C
:102000000E94530F0097C1F0BC01CE010E94370E11
:10201000F2016081C7010E94600EF3018083F50127
:102020006081C7010E94600EF4016081C7010E94B7
:10203000600E382E280ED4CF80E0FBCFF6018081D1
:10204000882331F0C958DF4F9881890F280E231853
:10205000822DDF91CF911F910F91FF90EF90DF9034
:10206000CF90BF90AF909F908F907F906F905F9038
:102070004F903F902F9008950F93DC01802FFD012A
:10208000ED58FF4F90819923E9F12223D9F12230B5
:1020900020F0023079F56F5F621B082F0170FD019F
:1020A00080FD32C0EB5BFF4F8081481758F13196BD
:1020B0008081481738F53297908131978081260FBB
:1020C0002617F0F46917D8F42FEF290F8217D0F4F0
:1020D000681708F4682F291708F4922F961BD696D4
:1020E000ED91FC91D7970480F581E02D292FCD014A
:1020F000099508C0033089F64F5F421BCECF682F89
:10210000691720F30F910895ED5BFF4F80816817E9
:10211000C8F3319680816817A8F73296908131977D
:102120008081240F241778F4491760F42FEF290FCA
:10213000821740F7481708F4482F291708F4922F00
:10214000941BCDCF482F4917E8F6F2CFDF92EF92DC
:10215000FF920F931F93CF93DF937C01162FC42F11
:10216000D22ED42FD00F262F2D0D0D2F0E943B0BDA
:10217000882351F000E02D2D4C2F612FC7010E94C4
:102180003C10CF5FDC13F6CFDF91CF911F910F9101
:10219000FF90EF90DF9008955F926F927F928F9201
:1021A0009F92AF92BF92CF92DF92EF92FF920F93E6
:1021B0001F93CF93DF935C01162F642EEC01C15B5C
:1021C000DF4FDC80ED804C0189E7880E911CFE809A
:1021D000FD18C12EF11608F4CF2C5B800C85202F42
:1021E0004E2D6D2D8A810E94F20D782E202F4E2DBE
:1021F0006D2D852D0E94FF0D482F662071F08A8578
:10220000F40180832C2D672DC5010E943C101F1501
:1022100048F01F19E394D12CDACF89858111F7CFCB
:102220008B85EECF1D0D1C83ED82DF91CF911F9129
:102230000F91FF90EF90DF90CF90BF90AF909F9065
:102240008F907F906F905F9008958F929F92AF9242
:10225000BF92CF92DF92EF92FF920F931F93CF9393
:10226000DF93EC01062F142F7901FC01E55AFF4F93
:102270008081813009F46CC008F460C0823009F4B8
:1022800071C0833009F478C0FE01EF5AFF4F00831C
:1022900031961083B701CE010E94530F009709F4C5
:1022A000D5C07E012FE4E20EF11CBC01CE010E94DC
:1022B000370EFE01EA5AFF4FC0803C966081C7018D
:1022C0000E94600E982EFE01ED59FF4F6081C701FC
:1022D0000E94600EB82EFE01EC59FF4F6081C701CD
:1022E0000E94600EA82EF701068110160CF086C021
:1022F000D484BC0CB1942D2D4B2D692D82810E946C
:10230000F20D182FF70182832D2D4B2D692D83811E
:102310000E94FF0D482FF7018383F1E0DF1609F4D7
:102320007BC0DF1698F122E0D21609F47BC083E06F
:10233000D81609F482C0042F212F2CC0FE01E35BC4
:10234000FF4F0190F081E02DCE010995180F9CCF31
:10235000FE01E35BFF4F0190F081E02DCE01099576
:10236000081B92CFFE01E35BFF4F0190F081E02D4F
:10237000CE010995181B88CFFE01E35BFF4F01904A
:10238000F081E02DCE010995080F7ECF202F210F7F
:102390000C2D080F612FCE010E943B0B882371F199
:1023A000F701148215828E01025A1F4F4E01FFE57C
:1023B0008F0E911CF8016081C7010E940C0EB82E8F
:1023C000F4016081C7010E940C0ED82E40E06B2DF5
:1023D000CE010E94CC1041E06D2DCE010E94CC10A8
:1023E00061E0C7010E940C0E8111F0CFF7018581D9
:1023F0008C1504F3C758DF4F828588838A2DDF91BF
:10240000CF911F910F91FF90EF90DF90CF90BF90F1
:10241000AF909F908F900895DC1821E0210F080F56
:102420001D0DB8CF81E0982F901B21E0210F8C1952
:1024300001E0040F480F190FADCF2C2D210F842F71
:10244000801B01E0040F41E0480FA4CF80E0D7CF0C
:10245000AF92BF92DF92EF92FF920F931F93CF93B1
:10246000DF93EC01162F042F188E7901D12C5C011B
:102470002BE5A20EB11CF70161917F01EA81FB817E
:10248000CE0109958F3F9807E9F08E3F2FEF920715
:1024900091F39C01402F612FCE010E942511F5017F
:1024A0009081913049F030F0923041F0933041F01A
:1024B000D80EE1CF180FFCCF080FFACF181BF8CFBA
:1024C000081BF6CF8D2DDF91CF911F910F91FF90BB
:1024D000EF90DF90BF90AF9008958F929F92AF9250
:1024E000BF92CF92DF92EF92FF921F93CF93DF9331
:1024F000EC016C32B0F46A32E8F5683241F16932CD
:1025000009F445C080E06034B0F16F73FE01E60F5E
:10251000F11D868D8F3F71F1603108F06EC0642F20
:1025200013C06D3209F457C068F384EB860F823014
:1025300048F76F73C60FD11D8E8D41115AC061E0EF
:102540000E94A70A60E08E8D0E94790A13C07C0168
:102550002EE1E20EF11CD0E0F70181917F018F3F67
:1025600031F061E0D03108F062E00E94A70ADF5F3D
:10257000D63191F781E0DF91CF911F91FF90EF90DD
:10258000DF90CF90BF90AF909F908F900895C42E12
:10259000D12CF12CE12C0E942B0A4B015C01C114BF
:1025A000D104E104F10431F30E942B0A681979097E
:1025B0008A099B09683E73408105910580F3F1E02B
:1025C000CF1AD108E108F10828EE820E23E0921E0E
:1025D000A11CB11CE4CF85E090E0433010F082E014
:1025E00090E0880F991F880F991F05970197F1F7C1
:1025F000C1CF62E00E94A70ABDCF282F30E0F901C9
:10260000E150FD4E8491F901E551FD4EF490F90140
:10261000E952FD4E1491112379F081110E94500A64
:10262000E12FF0E0EE0FFF1FE754FD4EA591B491AE
:10263000EC91FE2281E009F480E0898F9BCF089520
:102640008FEF9FEF08958FEF9FEF08958091C50260
:1026500090E0919581959109089520917B02260F34
:102660003327331F21323105ECF420919F02FC0106
:1026700090E080E0243069F082E00895A0917B0230
:102680002191AC01455A5D4FA40FB52FB11D2C937C
:102690000196861798F380917B02680F60937B0206
:1026A00080E0089581E00895CF93DF93CB01EA01A4
:1026B000642F0E942D13CE01DF91CF910895CF9307
:1026C000DF931F92CDB7DEB7698361E0CE0101963B
:1026D0000E942D1381E090E00F90DF91CF9108953B
:1026E000FC018481861710F485830895658308951D
:1026F000FC0165838281882321F0828593850C9477
:1027000070130895FC0164838181882321F0808502
:1027100091850C9470130895FC0163838081882354
:1027200021F0868197810C9470130895CF93DF93E5
:10273000EC01188219821A8260E08E819F810E94CA
:10274000701360E0888599850E94701360E08A8527
:102750009B85DF91CF910C9470130F931F93CF93B0
:10276000DF93EC018B018A819B81DC01ED91FC916F
:102770000190F081E02D09951D830C83DF91CF91AD
:102780001F910F91089580E00895DC0112968D91BC
:102790009C91DC01ED91FC910280F381E02D099484
:1027A000DC011696ED91FC9180819181DC01ED9127
:1027B000FC910190F081E02D0994DC011296ED91DD
:1027C000FC910680F781E02D84819581DC01ED91FB
:1027D000FC910480F581E02D0994DC011296ED91C5
:1027E000FC910680F781E02D84819581DC01ED91DB
:1027F000FC910280F381E02D0994CF93DF93EC01EB
:102800008A819B816930710599F06B30710509F4FB
:102810004DC0DC011696ED91FC9184819581DC011F
:10282000ED91FC910190F081E02DDF91CF91099421
:10283000DC01ED91FC910190F081E02D0995811171
:1028400032C0EA81FB818281882369F1E881F981C4
:102850000480F581E02DCE010995EA81FB8182811A
:10286000882359F08150828324813581B6E08B9F83
:10287000200D311D112437832683E881F9810280E0
:10288000F381E02DCE010995EC81FD81AA81BB8108
:1028900016960D90BC91A02D12968D919C919383CC
:1028A000828380E88483DF91CF910895DC01ED91EC
:1028B000FC910190F081E02D09958111F4CFEA811E
:1028C000FB81228183818150990B281719065CF7BF
:1028D000E881F9810480F581E02DCE010995EA8136
:1028E000FB81828123812150330B821713062CF642
:1028F0008F5FB9CF8FEE91E008956115710521F0DA
:102900006130710589F00895DC011296ED91FC911A
:102910000280F381E02D80819181FC016581643624
:1029200090F46F5F0C947013DC011296ED91FC91A2
:102930000280F381E02D80819181FC016581662315
:1029400011F06150EFCF08958AEF91E00895DC0116
:1029500012968D919C91DC01ED91FC910190F0819A
:10296000E02D099421E0FC018281811101C020E069
:10297000822F0895FF920F931F93CF93DF93FC0153
:102980006130710509F462C06D30710519F1672B72
:1029900009F04EC0C381C43608F04AC0CF5FC3837C
:1029A00004811581F801C5836C2F838194810E9475
:1029B0008C136C2FF801838194810E9482136C2FF9
:1029C000F80183819481DF91CF911F910F91FF9046
:1029D0000C947813C481D5818A8181112FC06D81B7
:1029E0008B819C810E948C136D818B819C810E94C4
:1029F00082136D818B819C810E9478130B811C81D5
:102A0000FF24F394F801F082F182F28263818681DF
:102A100097810E947013F8016481808591850E94DE
:102A20007013F8016581828593850E947013FA8284
:102A3000DF91CF911F910F91FF9008958130C1F7E1
:102A40008B819C810E9496131A82F2CFC381CC2382
:102A500079F3C150A4CFDC0119968D919C91DC01D2
:102A6000ED91FC910280F381E02D099480E092E0E9
:102A70000895E5EBF9E0DC011796FC93EE931697C9
:102A800004960C942812CF92DF92EF92FF920F934C
:102A9000CF93DF93DC0112962D913C91232B09F407
:102AA0006BC07B01EC016B01B4E0CB0ED11C66EA7C
:102AB0007EE0C6010E947A0E8C818038B9F4E881EC
:102AC000F9810280F381E02DCE01099525EB39E0F3
:102AD000F70137832683BC01C6010E94BF0F20E89F
:102AE00030E0281B3109359527952C830AE020E832
:102AF00040E060E0C6010E94A610F701EF57FF4FCB
:102B000085E08083319689E08083E881F9810280C5
:102B1000F381E02DCE0109959C0149E06C81C7014C
:102B20000E9439158A819B81DC01ED91FC91019015
:102B3000F081E02DB70109956CE97DE0C6010E94A6
:102B40007A0E8A819B81DC01ED91FC910480F581F4
:102B5000E02D09952FE430E0811102C024E430E03B
:102B600049E068E7C601DF91CF910F91FF90EF90A8
:102B7000DF90CF900C942511DF91CF910F91FF90B2
:102B8000EF90DF90CF9008950F931F93CF93DF9333
:102B90008C01EB0162EA77E0CE0104960E947A0E86
:102BA000D8011296ED91FC910280F381E02D019005
:102BB000F081E02D858190E3843618F084569F5F84
:102BC000FBCF9093510290E38A3018F08A509F5FB8
:102BD000FBCF9093520290E381110FC09093530268
:102BE0001092540221E532E04CE26CE3CE01DF9119
:102BF000CF911F910F910C94391581509F5FECCFAD
:102C0000FC0197858189891730F49587908B828B99
:102C10008585868708958587F9CFCF93DF93EC016B
:102C200088859985892B09F049C08E85882311F004
:102C300081508E878889882311F08150888B8A89FA
:102C4000882311F081508A8B8889811108C0EC811A
:102C5000FD81118260E0808591850E9470138A89D0
:102C6000811108C0EC81FD81128260E0828593852C
:102C70000E9470138E85811121C081E090E09987B8
:102C80008887EC81FD81108260E0868197810E94B7
:102C90007013EC81FD81118260E0808591850E9436
:102CA0007013EC81FD81128260E0828593850E9421
:102CB0007013EE81FF81128211821082DF91CF9119
:102CC00008951F93CF93DF93EC016130710509F4F0
:102CD00073C03CF4672B09F448C0DF91CF911F917A
:102CE00008956230710509F481C06D307105A9F74E
:102CF0000A80DB81C02DCE010E9400166AE58C811E
:102D00009D810E948C136AE58C819D810E948213B3
:102D10006AE58C819D810E947813EC81FD8111E030
:102D200010836381868197810E9470138F85882329
:102D300041F0EC81FD8111836481808591850E9441
:102D400070138989882349F0EC81FD8181E08283B9
:102D50006581828593850E947013EE81FF811282C6
:102D6000D183C08319861886B8CFEA81FB81918907
:102D7000178581E0903F08F080E021E0103F08F0E7
:102D800020E04C815D814130510591F080F042306E
:102D9000510581F0918BCF010E9400168A819B81A1
:102DA000FC011787DF91CF911F910C940016980FAB
:102DB000120FF0CF980FEECFEA81FB819189178532
:102DC00081E0911101C080E021E0111101C020E0FB
:102DD0004C815D814130510539F028F04230510578
:102DE000C9F6981BD7CF981B121BD4CF8C819D811D
:102DF0008130910561F030F0029709F06ECF1D82AD
:102E00001C826BCF81E090E09D838C8366CF7D83B5
:102E10006C8363CFCF92DF92EF92FF920F931F9359
:102E2000CF93DF936C01EB017B01E40EF51E10E004
:102E300000E0CE15DF0561F06991D601ED91FC91BE
:102E40000190F081E02DC6010995080F191FF1CFFF
:102E5000C801DF91CF911F910F91FF90EF90DF900C
:102E6000CF900895CF92DF92EF92FF920F931F932E
:102E7000CF93DF93EC016C0124E0C20ED11CFC0166
:102E8000E158FF4F0190F081E02DC60109958E3F7A
:102E9000EFEF9E07C8F48E010E571F4F7E01F1E839
:102EA000EF0EF11C9C01F8014081F7016081C60121
:102EB0000E942511C15ADF4F98819130A9F078F016
:102EC0009230A1F09330B9F081E090E0DF91CF91A2
:102ED0001F910F91FF90EF90DF90CF900895F70131
:102EE0009081890F8083F0CFF801FACFF7019081AC
:102EF000981B892FF7CFF801FACF089590E080E072
:102F000008958F929F92AF92BF92EF92FF920F938C
:102F10001F93CF93DF93CDB7DEB7A1970FB6F89489
:102F2000DEBF0FBECDBF7C01FA01CB0119A222305A
:102F300008F42AE08E010F5D1F4F822E912CB12CD8
:102F4000A12CBF01A50194010E942E21F901CA0103
:102F50006A3074F5605DD8016E938D01232B242BAC
:102F6000252B79F790E080E0109789F0FD01019022
:102F70000020E9F73197AF014A1B5B0BD701ED91B8
:102F8000FC910280F381E02DB801C7010995A1965B
:102F90000FB6F894DEBF0FBECDBFDF91CF911F916A
:102FA0000F91FF90EF90BF90AF909F908F900895FA
:102FB000695CD1CFFC01A081B18150962C9182AD8A
:102FC00038E0839FC0011124289FA001299F500D44
:102FD000112470E060E080AD91AD0C9456210F9308
:102FE0001F93CF93DF93EC01683109F46EC058F45E
:102FF0006431F9F0F901673181F080E0DF91CF9120
:103000001F910F910895693109F49CC06032A9F7AE
:103010006AE4CE010E94340B56C0442309F453C025
:1030200081918EBD00000DB407FEFDCF8EB54150DD
:10303000F4CFE881F9818C859D85AE85BF85892B8C
:103040008A2B8B2B41F480859185A285B3858C8753
:103050009D87AE87BF87418169E4CE010E94340B12
:10306000CFB7F8948091C602811127C0E1EEF2E15A
:103070008491E5EFF2E19491E82FF0E0EE0FFF1F6D
:10308000ED53FD4EA591B491EC91E92321F461E05B
:103090008AE00E94790A61E08AE00E94A70A8CB562
:1030A00080618CBD8CB580648CBD61E08DE00E9438
:1030B000A70A61E08BE00E94A70A8091C6028F5F99
:1030C0008093C602CFBF81E099CFE881F981E48582
:1030D000E15090E0E33020F4F0E0E95DFE4F9081B4
:1030E0000C851D852E853F8540E052E16AE770E042
:1030F00080E0041715072607370740F47695679593
:10310000579547958F5F8630A1F787E09C70906553
:10311000282F2695922B809581709CBD8DBDE881CE
:10312000F981408169E4CE010E94340BA881B98104
:10313000EA85FB8530E020E012964C916CE2CE01EE
:103140000995C1CFA881B981EA85FB8530E020E0EF
:1031500013964C916CE20995E881F981418169E40B
:1031600058CF1F93CF93DF9385ED8093BC00809160
:10317000570290915802A0915902B0915A020796B5
:10318000A11DB11D23E0B695A795979587952A9522
:10319000D1F72091BC0024FD03C010929F0252C0C1
:1031A00040915702509158026091590270915A0211
:1031B000452B462B472B69F30097A105B10541F03C
:1031C00025E32A95F1F700000197A109B109E1CFA4
:1031D00080915602C1E0C0935502882399F1D091A5
:1031E000B8001091BA008091BC008A7B8093BC002B
:1031F00060E082E10E94790A60E083E10E94790A3E
:1032000010929F02C093A1021092A00261E082E19D
:103210000E94790A61E083E10E94790A8091B900F5
:103220008E7F8093B9008091B9008D7F8093B90023
:1032300088E48093B80085E48093BC001093BA00C2
:10324000D093B800DF91CF911F910895CF92DF9274
:10325000EF92FF92CF93DF937C01EB01FB01E45AE5
:10326000FF4F81E0808366EA7EE0CE0104960E94F3
:103270007A0EFE01EF57FF4F89E18083319689E096
:103280008083F701C480D5800D2C000CEE08FF0868
:103290002AE0B701A601F7FE10C0E881F98101908C
:1032A000F081E02D6DE2CE01099544275527BA0142
:1032B0004C195D096E097F092AE0CE01DF91CF919B
:1032C000FF90EF90DF90CF900C948117EF92FF92D8
:1032D0000F931F93CF93DF937C01EB018B010C5F66
:1032E0001F4F6BEF73E0C8010E947A0E2AE430E0B2
:1032F00044E365E0C8010E94251162EA77E0C80155
:103300000E947A0ED7011296ED91FC9182812DE0F8
:1033100032E0882311F021E132E04CE26CE3CE018F
:103320000E94391566EA7EE0C8010E947A0EFE010D
:10333000EF57FF4F8CE3808331968083D70112963D
:10334000ED91FC91458150E070E060E02AE0CE0113
:10335000DF91CF911F910F91FF90EF900C94811707
:10336000DC011296ED91FC910280F381E02D019039
:10337000F081E02D6581F999FECF80E090E00E9418
:103380001C21F999FECF08958F929F92AF92BF9220
:10339000CF92DF92EF92FF920F931F93CF93DF9321
:1033A000CDB7DEB72A970FB6F894DEBF0FBECDBFFC
:1033B0007C016B01DC011996ED91FC911A978085D7
:1033C00091858130910509F4D9C030F082309105A2
:1033D00009F4D2C0039781F485E4D70118968C9341
:1033E0001897808914968C931497828913968C93DE
:1033F0001397868512968C93D7011B96ED91FC91BD
:103400001C97848195818130910509F4CBC008F423
:10341000C3C08230910509F4CDC04601F4E08F0E9F
:10342000911C68E670E0C4010E947A0ED7011896DC
:103430002C9130E040E365E0C4010E94251162EA6E
:1034400077E0C4010E947A0ED7011996ED91FC91A4
:1034500082851F928F9384E1A82E82E0B82EBF92BE
:10346000AF928E010F5F1F4F1F930F930E945D213C
:1034700098014EE166E2C6010E943915D7011996FE
:10348000ED91FC9183851F928F93BF92AF921F9312
:103490000F930E945D2198014EE266E2C6010E94F0
:1034A0003915D7011996ED91FC9184851F928F9360
:1034B000BF92AF921F930F930E945D2198014EE33C
:1034C00066E2C6010E943915F70182811F928F932F
:1034D00089E192E09F938F931F930F930E945D2148
:1034E00098014EE16EE4C6010E943915D701149689
:1034F0008C911F928F938FE192E09F938F931F93F4
:103500000F930E945D2198014EE26EE4C6010E9475
:103510003915F70183811F928F9385E292E09F9383
:103520008F931F930F930E945D210FB6F894DEBF17
:103530000FBECDBF98014EE36EE4C6010E9439155F
:1035400000E122E3D70117964C916CE4C4010E947C
:10355000A6102A960FB6F894DEBF0FBECDBFDF913E
:10356000CF911F910F91FF90EF90DF90CF90BF9080
:10357000AF909F908F90089584E42FCF8BE418969E
:103580008C931897878514968C931497818913963A
:103590008C93139785852ECFF7011682158280E1D3
:1035A00087833BCF16969C938E93159780E2179650
:1035B0008C9333CFF7019683858380E3F1CF1F92FD
:1035C0000F920FB60F9211242F933F938F939F93D7
:1035D000AF93BF938091D8029091D902A091DA0263
:1035E000B091DB023091D70223E0230F2D3758F53D
:1035F0000196A11DB11D2093D7028093D80290930C
:10360000D902A093DA02B093DB028091DC029091A0
:10361000DD02A091DE02B091DF020196A11DB11D75
:103620008093DC029093DD02A093DE02B093DF0270
:10363000BF91AF919F918F913F912F910F900FBEAE
:103640000F901F90189526E8230F0296A11DB11D1B
:10365000D2CF1F920F920FB60F9211242F933F9348
:103660004F935F936F937F938F939F93AF93BF938A
:10367000EF93FF938091B900887F803609F44AC0A8
:10368000F0F5883209F4A5C018F5803109F499C025
:10369000B8F4882309F4F5C0883009F492C0FF918A
:1036A000EF91BF91AF919F918F917F916F915F91BA
:1036B0004F913F912F910F900FBE0F901F90189533
:1036C000883109F486C0803251F780939E0214C07D
:1036D000803409F49BC040F48033B9F38833F9F6A1
:1036E00080939E0285ECAEC0803509F483C0883596
:1036F00009F494C0883499F60E94B118D0CF883963
:1037000009F48AC038F5883729F050F4883611F06A
:10371000803729F683E080939F0210929D0255C066
:10372000883809F479C0803919F0803809F0B7CFAA
:1037300080919D02803208F06FC0E0919D0281E08F
:103740008E0F80939D028091BB00F0E0E358FD4F07
:1037500080833BC0803B39F0D0F4803A09F477C0D5
:10376000883A09F09CCF84E080939F0210927C02FB
:1037700010927B02F0E0E0E0099580917B028111DC
:103780000FC081E080937B0210925B0209C0803CF5
:1037900009F4A8CF883C09F4A5CF883B09F07FCF76
:1037A000E0917C0281E08E0F80937C02F0E0E55A8C
:1037B000FD4F80818093BB0090917C0280917B02C1
:1037C00029C08091C4028093BB0085EC8093BC002B
:1037D00066CF9091C3028091C202981758F5E0918C
:1037E000C30281E08E0F8093C302F0E0EE55FD4FDF
:1037F0008081E9CFE091C30281E08E0F8093C30204
:103800008091BB00F0E0EE55FD4F80839091C302A4
:103810008091C2029817C8F285E8D8CFE091C30220
:1038200081E08E0F8093C3028091BB00F0E0EE55E3
:10383000FD4F80838091A10281115ECF81E0809352
:10384000A00284EA8093BC0010929F0228CF85ECEE
:103850008093BC0010929F0280919D02803230F4D0
:10386000E0919D02F0E0E358FD4F108260919D02CF
:1038700070E08DE792E0F0E0E0E0099510929D02A3
:103880000ECF10929E0238CF1F920F920FB60F925A
:1038900011242F933F934F935F936F937F938F9355
:1038A0009F93AF93BF93EF93FF93809150028F5FED
:1038B00080935002803809F043C0909179009F773F
:1038C0008091EC06891B8093E8068E5F853008F0B6
:1038D00048C08091ED068F5F8093ED069091EA06D7
:1038E0008091ED062091EC06853009F0292F209378
:1038F000EB06291719F1E1E2F1E08191382F321B33
:1039000042E0430F453090F181E0E732F807A9F734
:103910003093E80680E08093EB068093E9069F37BA
:10392000F1F5853199F128F58823B1F164E070E073
:10393000873029F18091EB068093EA0610925002BD
:10394000FF91EF91BF91AF919F918F917F916F9177
:103950005F914F913F912F910F900FBE0F901F904D
:1039600018959093EC061092ED06B8CF3093E806C8
:10397000D2CF893271F06CE070E08835D9F6809151
:10398000EE069091EF060E94AD13D4CF66E070E092
:10399000F6CF68E070E0F3CF6AE070E0F0CF9531E9
:1039A00079F038F4992391F065E070E0973039F3BD
:1039B000C1CF993241F06DE070E0983501F3BACF94
:1039C00067E070E0DCCF69E070E0D9CF6BE070E0D9
:1039D000D6CF1F920F920FB60F9211242F933F93C1
:1039E0008F939F93EF93FF9390E026E080915E0783
:1039F000981740F5E0915C07F0915D07929FE00D0C
:103A0000F11D112480818F5F808330818481381380
:103A100001C0108230818581381750F08381018088
:103A2000F281E02D30818095832380839F5FDECFFC
:103A300080818111FBCF83810180F281E02D308173
:103A4000832BF3CFFF91EF919F918F913F912F9116
:103A50000F900FBE0F901F9018951F920F920FB6E8
:103A60000F9211242F933F934F935F936F937F9304
:103A70008F939F93AF93BF93EF93FF93A09177079B
:103A8000B0917807109741F0909179079F5F983C2B
:103A900009F463C090937907809184009091850028
:103AA00080FF4AC086B188738093E20690E09C0153
:103AB00045E0359527954A95E1F72093E40653E0D4
:103AC000959587955A95E1F783708093E506E09187
:103AD000E6068E17E1F094E0899F900111242E5E96
:103AE0003E4FE20FF32FF11D90819093E7068093F4
:103AF000E60670E060E0913021F09F3F41F461E024
:103B000070E08091E0069091E1060E94AD139091E3
:103B1000E4068091E306891779F09093E3062091FB
:103B2000E0063091E10663E070E0913011F062E070
:103B300070E0C9010E94AD13FF91EF91BF91AF9169
:103B40009F918F917F916F915F914F913F912F91B5
:103B50000F900FBE0F901F90189510927907ED915E
:103B6000FC9111970190F081E02DCD01099594CF42
:103B700021E0FC0186819781892B09F020E0822FCA
:103B8000089521E0FC0180859185892B09F020E0D2
:103B9000822F08950F931F93CF93DF9310927D0789
:103BA00010927C0785EB99E09093FA078093F907D0
:103BB0001092FB071092FC071092960781EE91E09D
:103BC00090937B0780937A0710927F0710927E076D
:103BD0001092930710928A0710928B0710928C070D
:103BE00010928D078FEF8093940780939807ECE9EC
:103BF000F7E082EB97E0CFEFC1938E179F07E1F7D5
:103C000083E59DE090938307809382078AE79BE09A
:103C100090938507809384078FEE97E190938707B1
:103C2000809386078DE692E19093890780938807B9
:103C300030E020E040E069E08EE797E00E94530D1D
:103C40001092CA071092C9078FEB99E09093B307BF
:103C50008093B20780EE92E09093B7078093B60707
:103C600018E01093B8071092B9071092D607109277
:103C7000F60781E08093F7078093F80789EE91E0DB
:103C80009093B5078093B4078EE797E00E94990C54
:103C90001092C5071092C707C093C607C093C80704
:103CA000E091B407F091B5070280F381E02D8EE733
:103CB00097E009958EE09AE09093CC078093CB072C
:103CC0001092D9078CE08093A507C093A7071092A4
:103CD00078071092770710927907CFE5D7E085E251
:103CE00090E0909361078093600782E08093620781
:103CF00084E68093630710925F07109264072BE2BB
:103D000030E0309367072093660790E4909368074C
:103D1000809369071092650710926A0730936D07C8
:103D200020936C0790E290936E0780936F07109238
:103D30006B071092700730937307209372071093EC
:103D40007407809375071092710710927607D093CD
:103D50005D07C0935C0784E080935E0700E517E091
:103D600085E697E090935707809356078BE697E098
:103D7000909359078093580781E797E090935B07EA
:103D800080935A07109253071092540710925507C8
:103D9000C8010E9496132DE337E083ED91E09093E4
:103DA0003E0780933D078BED91E090934007809311
:103DB0003F07109342070093410787E797E09093EE
:103DC00044078093430710924A0710924B071092C2
:103DD0004C0710924E0710924F0710924D0781E04A
:103DE00090E090934607809345078AE580934707C4
:103DF000809348078093490749EC51E05093380776
:103E00004093370730933A072093390710923C07C5
:103E100010923B074FEB51E050932B0740932A073A
:103E2000309334072093330727E337E03093360786
:103E30002093350710922C0710922E0710922D0711
:103E40001092300710922F0790E19093310724E2EF
:103E500037E049EB51E05093250740932407109237
:103E600026071093280700932707809329078FEAD6
:103E700091E09093210780932007309323072093AC
:103E8000220785EA91E090931B0780931A0710920E
:103E90001C0780E580931D0730931F0720931E07A2
:103EA000D0931707C093160785E197E09093190701
:103EB00080931807F999FECF80E090E00E941421CA
:103EC000682F8FE597E00E94701381E197E02FE95A
:103ED00031E0309312072093110726E137E0309349
:103EE00014072093130725E931E030930E07209340
:103EF0000D079093100780930F072BE831E0309364
:103F00000A072093090790930C0780930B0785E815
:103F100091E0909302078093010780E091E09093F5
:103F200006078093050723E02093040710920307F8
:103F300090930807809307078BE791E09093FD0625
:103F40008093FC06C0E8C093000781E791E090935E
:103F5000F7068093F60681E097E09093F906809348
:103F6000F8068CEF96E09093FB068093FA0680911A
:103F7000040190910501DC01ED91FC910280F38137
:103F8000E02D0995E0910707F09108078281938160
:103F90009093FF068093FE06C093000780EF96E0A3
:103FA0002BE631E03093F1062093F00626EF36E061
:103FB0003093F3062093F2069093EF068093EE067B
:103FC0001092EB062FE72093EA061092EC0610926F
:103FD000ED061092E8061092E9069093E1068093B0
:103FE000E0061092E2061092E3061092E4061092A8
:103FF000E6061092E5061092E706DF91CF911F9139
:104000000F910895789484B5826084BD84B58160F1
:1040100084BD85B5826085BD85B5816085BD809193
:104020006E00816080936E0010928100809181000B
:104030008260809381008091810081608093810003
:10404000809180008160809380008091B1008460C5
:104050008093B1008091B00081608093B000809126
:104060007A00846080937A0080917A0082608093E5
:104070007A0080917A00816080937A0080917A0042
:10408000806880937A001092C1001092B000109264
:10409000B1001092B2008AE08093B30082E0809376
:1040A000B0008093700085E08093B10090E036E02E
:1040B00080915E079817C0F4E0915C07F0915D076E
:1040C000939FE00DF11D11248381A181B2812E9176
:1040D000822B8C9383810180F281E02D2081809559
:1040E000822380839F5FE4CF109280001092810032
:1040F00010928500109284008CE790E090938900E4
:1041000080938800809181008860809381008091F5
:10411000810083608093810080916F008260809332
:104120006F0087B117B880E680937C008FEE809394
:104130007A0087B117B888B1886388B986B1887367
:104140008093E20690E09C0145E0359527954A95DD
:10415000E1F72093E30654E0959587955A95E1F7AA
:104160008093E606E0918207F091830730E020E03B
:1041700040E06AE08EE797E009958091F807882390
:1041800021F08EE797E00E94DA1780E00E94100A83
:104190008EE797E00E94D80AC091B9078091B807CE
:1041A000C80FE0917E07F0917F078189C81790F1D1
:1041B0008EE797E00E944A0D80E00E94100AE0918D
:1041C0008207F091830730E020E040E06BE08EE76B
:1041D00097E009957894C1E000E010E08EE797E061
:1041E0000E94DA170E94270AC093D6076AE777E091
:1041F0008CEF96E00E9443158EE797E00E94D80A64
:104200008EE797E00E944A0D0115110539F30E94CF
:104210000000E4CF8091F807882321F08EE797E033
:104220000E94DA178C2FB2CFF999FECF92BD81BDD3
:10423000F89A992780B50895262FF999FECF92BD57
:1042400081BDF89A019700B4021639F01FBA20BD5B
:104250000FB6F894FA9AF99A0FBE0895A1E21A2EB1
:10426000AA1BBB1BFD010DC0AA1FBB1FEE1FFF1F1A
:10427000A217B307E407F50720F0A21BB30BE40B6A
:10428000F50B661F771F881F991F1A9469F76095B1
:104290007095809590959B01AC01BD01CF0108956B
:1042A000EE0FFF1F0590F491E02D0994DC0101C091
:1042B0006D9341505040E0F70895AEE0B0E0E3E682
:1042C000F1E20C940C240D891E8986E08C831A83FC
:1042D00009838FEF9FE79E838D83AE01475E5F4F1B
:1042E0006F89788DCE0101960E9480212F813885BB
:1042F000020F131FF80110822E96E4E00C9428247C
:10430000ABE0B0E0E6E8F1E20C94FE237C013B0177
:104310008A01FC0117821682838181FFC8C1CE0108
:1043200001965C01F7019381F30193FD859193FF61
:1043300081913F01882309F453C1853239F493FDFB
:10434000859193FF81913F01853229F4B70190E077
:104350000E947023E7CF912C212C312CFFE1F31523
:1043600038F08B3211F190F4803209F1833229F167
:1043700037FC3CC020ED280F2A3050F536FE20C017
:104380008AE0989E200D1124922E06C08D3291F065
:10439000803371F7689430F8F30193FD859193FFB2
:1043A00081913F018111DACF21C0689431F868947E
:1043B00032F8F2CF689433F8EFCF689434F8ECCF4A
:1043C000EAE02E9E200D1124222E689435F8E4CFC9
:1043D0008E3229F436FC04C1689436F8DDCF8C3671
:1043E00019F4689437F8D8CF8836B1F2982F9F7DAA
:1043F00095549330E0F08336A1F18337C1F18335D2
:1044000009F063C02801F2E04F0E511CF801C08092
:10441000D180692D70E036FC02C06FEF7FEFC601DE
:104420000E945A234C01689437F882010AC00C5F3D
:104430001F4FFFE3F98388248394912C6501E8944E
:1044400037F833FE2DC0522C8114910471F555209C
:1044500009F468CFB70180E290E00E9470235A947B
:10446000F6CFF801808189830E5F1F4FE4CF2801CA
:10447000F2E04F0E511CF801C080D180692D70E030
:1044800036FC02C06FEF7FEFC6010E9465234C012E
:104490008201D5CFB70180E290E00E9470232A9478
:1044A0002814190409F0B0F7CECFF60137FC859136
:1044B00037FE81916F01B70190E00E947023511087
:1044C0005A94F1E08F1A9108BFCF843619F08936DB
:1044D00009F077C0F80137FE6BC06081718182817D
:1044E00093810C5F1F4FF32DFF763F2E97FF09C07E
:1044F00090958095709561957F4F8F4F9F4F6894F1
:1045000037F82AE030E0A5010E94A023C82ECA187F
:104510008C2C432C36FE0CC0E89440F8C91440F4AF
:1045200034FE05C032FC03C0F32DFE7E4F2E892CD5
:1045300044FE95C0FE01EC0DF11D8081803309F031
:1045400087C0242D297E422E842D8870582E43FC4E
:1045500095C040FE8FC09C2C821418F42C0C922C19
:10456000981844FE91C0B70180E390E00E94702348
:1045700042FE09C088E790E041FE02C088E590E075
:10458000B7010E947023C91408F48AC0CA94D12CC0
:104590009FEFC91AD90ACA0CDB1CF60182916F0180
:1045A000B70190E00E947023AC14BD04B1F74FCF67
:1045B00060817181072E000C880B990B0E5F1F4FD5
:1045C00092CFD32CE894D4F82AE030E0853739F143
:1045D000232D297FD22E8F3601F148F48835A9F09A
:1045E000F701868197812B96E2E10C941A2480379B
:1045F00049F08837A9F7D4FE02C06894D2F820E1C8
:1046000030E00DC06894D4F8F6CF34FE03C0822F9A
:104610008660D82E20E132E002C028E030E0F801C8
:10462000D7FE0FC060817181828193810C5F1F4F23
:10463000A5010E94A023C82ECA183D2CE89437F883
:1046400067CF6081718190E080E00E5F1F4FF0CFF7
:1046500042FC02C0839478CF8394839475CF842DD9
:10466000867809F471CFF6CFB70180E290E00E941E
:10467000702383948214C0F3512C73CF522C58189A
:10468000821408F46ECFF8CF842D867809F47BCF9E
:104690008BE241FE80E247FC8DE2B70190E071CFF2
:1046A000B70180E390E00E9470239A946CCF8FEF63
:1046B0009FEF99CFFC010590615070400110D8F731
:1046C000809590958E0F9F1F0895FC01615070405A
:1046D00001900110D8F7809590958E0F9F1F089537
:1046E0000F931F93CF93DF93182F092FEB018B812B
:1046F00081FD09C01FEF0FEF812F902FDF91CF9128
:104700001F910F91089582FF14C02E813F818C81EB
:104710009D81281739073CF4E881F981CF01019682
:104720009983888310838E819F8101969F838E83D6
:10473000E3CFE885F985812F0995892BA1F3DACF9D
:10474000FA01AA27283051F1203181F1E8946F93C2
:104750006E7F6E5F7F4F8F4F9F4FAF4FB1E03ED068
:10476000B4E03CD0670F781F891F9A1FA11D680F06
:10477000791F8A1F911DA11D6A0F711D811D911D39
:10478000A11D20D009F468943F912AE0269F1124AE
:104790003019305D3193DEF6CF010895462F477012
:1047A000405D4193B3E00FD0C9F7F6CF462F4F706D
:1047B000405D4A3318F0495D31FD4052419302D0CB
:1047C000A9F7EACFB4E0A695979587957795679571
:1047D000BA95C9F700976105710508959B01AC0171
:1047E0000A2E06945795479537952795BA95C9F798
:1047F000620F731F841F951FA01D08952F923F9273
:104800004F925F926F927F928F929F92AF92BF92E0
:10481000CF92DF92EF92FF920F931F93CF93DF938C
:10482000CDB7DEB7CA1BDB0B0FB6F894DEBF0FBEE9
:10483000CDBF09942A88398848885F846E847D8436
:104840008C849B84AA84B984C884DF80EE80FD8038
:104850000C811B81AA81B981CE0FD11D0FB6F894AE
:0E486000DEBF0FBECDBFED010895F894FFCF6F
:10486E003F072A073707240720071A0711070D07E6
:10487E00090700000000000000FF0000000100001A
:10488E000007152900587F04080C1815381508154F
:10489E0034150119FF181538150C19FFFE6418FE92
:1048AE000A15381508150615021501FE0419FF0123
:1048BE000005050106148C40420F0003041E28104B
:1048CE0008000080004000000000002619000000D3
:1048DE0000FD13ED13DD13000000004315C513C3D7
:1048EE001300000000D013000000007D141F13B051
:1048FE001900000000C4157A14C31300000000C391
:10490E001300000000BA141F131F130000000066EE
:10491E0019A414A71400000000B21400000000C473
:10492E001936152B150000000061161F131F1300FA
:10493E000000000D16C11DFEFF0000B81D00000096
:10494E000032170A177E177D17990C2F0C230C4C6B
:10495E00434420436F6E66696700464F43555300CC
:10496E00422657204558504F53555245004F464604
:10497E00004F4E002564252500543A20256400473B
:0C498E003A20256400423A202564000015
:00000001FF
