:100000000C94FE040C9426050C9426050C942605ED
:100010000C9426050C9426050C9426050C942605B4
:100020000C9426050C9426050C948E110C94FD114D
:100030000C9426050C9426050C9426050C94260594
:100040000C9426050C9426050C9426050C94260584
:100050000C9426050C9426050C9426050C942F145C
:100060000C9426050C9426050C9426050C94260564
:100070000C9426050C9426050C9426050C94260554
:100080000C9426050C9426050C9426050C94260544
:100090000C9479140C9426050C9426050C942605D2
:1000A0000C9426050C9426050C94260500000000EF
:1000B0002300260029002C002F000000000024004F
:1000C00027002A002D003000000000002500280035
:1000D0002B002E0031000404040404030405020272
:1000E00002020403020202020606060606060404D1
:1000F0000202020404040802011040804010204063
:10010000804080080204018040201002011080100D
:10011000204040200000000200090F0000030401FD
:10012000000C0000000000000000000000000000C3
:10013000000000080B000202020000090400000198
:10014000020200000524001001052401010104241D
:10015000020605240600010705810310004009047A
:100160000100020A00000007050202400000070526
:1001700083024000000403090412010002EF02019F
:1001800040032A4080000101020301556E6B6E6F2F
:10019000776E0041726475696E6F204C656F6E6199
:1001A00072646F20455448005F0004030505040590
:1001B000061614FDFC0EFC0EFE028805D70834203E
:1001C0000600602C012111C4253443E2E0C0424402
:1001D00099C4418404002209A56446418217022380
:1001E0001F8B616449424C424C42E660E2604642E9
:1001F0004C42E660E26046424C424C4208002423F6
:1002000049A65B2930AC4622A224A224A422C8E637
:1002100020E420C628A224A422A42242A62C30082E
:1002200000252CEEE17B65464A6422482644482698
:10023000244A26424A24DD8870CC98884854884C49
:1002400090884C508C4C8C92A0A8A950002623D0AA
:10025000258C8B5644524652467242B478A6C64606
:1002600068822468A66A886A8AA6E620E466040092
:100270002708A2642EE16000281205A233474464D7
:10028000446444466F6664668404291105A23341C0
:1002900048664666469F8C888CA8012A12E7E0458E
:1002A0006524C94484C88844C4489211002B0E4A6E
:1002B000215C4950A3830323418D002C0CE4602B67
:1002C00043E22062241B002D0865E034E141002E4A
:1002D0000B84202C43E2204202002F10C6213C490F
:1002E0005190A22045418A8214013014C9255C67CF
:1002F0006862444662C6BF99901199189A01310C00
:10030000C7295C4768A468FFC9013217C9255C8703
:10031000466462C66642666C6A6C6A4A4CD5C141E4
:10032000013319C9255C87466462C66642664C681B
:10033000526E42C6CD84C84C09003419C9255C2FC1
:100340004E6C8A51C44CC848CC48CC44D0C481D4EB
:10035000D854013517C9255CE320E22430A14DCCE7
:10036000DCD8848C9B09919912003618C9255CA7AA
:1003700064858C8DC4D8C408C51A6F26642646844B
:1003800066003712C9255CE141D994989C989CD8A5
:10039000AAB18D003818C9255C674846428AAAE888
:1003A00042C4C824E4A88AAA46860600391AC92588
:1003B0005C674864624662C69B89099289B10919E3
:1003C0001B8991911A003A0F24253443E220424CB4
:1003D000E2204202003B1084653343E220424CE2BB
:1003E0002062241B003C0C4A215C518C8833420E55
:1003F000053D0CC9A45CE1013DCCC101013E0C4AA4
:10040000215C419067449C09023F14C92154A744D0
:10041000E4C66642664CF7106254644200402ACF3C
:100420002184EB6C4C463244A644424409898C0832
:10043000898C08858C88841A11092513222213447B
:1004400092316362074100411ECE1D742F5A769689
:100450003262324430662E662C6AEA40286C286E7E
:10046000446E82AA004222CC2174E16066866468F0
:10047000646864686466E62068C9D4C4D4C4D4C41B
:10048000D4C4D0C4810C004318CC2174A92484C5E1
:1004900098C45821CB0D23E622C66268A46A0044A2
:1004A00023CE2184E1606A88666C646C646E626E3F
:1004B000626E626E626E626E626C646C6488E4602E
:1004C00008004523CB216CE1806268624A622624E1
:1004D0006226246244E868446826682624622C6206
:1004E0004A62E8E000461FCB216CE1806268624A04
:1004F0006226246226246244E868446826682668E6
:10050000709D15004720CD217CA9248684644C640D
:100510004C623062306274D541D8C8D4C8D40C095A
:10052000554904004822CE2184A1A8626C646C6401
:100530006C646C646CE4A0646C646C646C646C6487
:100540006C646CA2A800490BC5254CA16264FF8BAA
:10055000024A15CA1D64AB6C6E9FC84C904C904CFF
:10056000088D880C11014B20CE2184A1A6644A6815
:10057000486A466C446E42D0F06E826C846A86682B
:1005800088668AA2C6004C11CA2164A16C6E7F15D0
:10059000311531243173604D33D1219CC1AC848C31
:1005A000A68A26622862266426622664266226645B
:1005B0002464266622642666226426866626686689
:1005C000266866642868A226A6004E25CE2184816E
:1005D000AA826A862A882AA828054D500849500C04
:1005E0004550505114511451D8CC98485908004FD7
:1005F00018CE2184C98C84666C646C62D00F27C6C7
:1006000046C66648C88C00501ACC2174E140688602
:1006100064886288628862886286E420687287756E
:100620000051204E2283C98C84666C646C62D02F8A
:10063000682646464466246628CA8C8527224B478E
:10064000005223CD2184E1806688646A646A646A0A
:100650006468E6206A6668666886666866686668D2
:10066000C26802005319CA2164872264C590C45429
:100670000499D595995559D5C9444809005413CBC7
:10068000216CE1C064CD8CCC8CCC4CD0E07E570387
:100690005522CE2184A1A8626C642E662E662E6639
:1006A0002E662E662E662E662E662E662E6848CE26
:1006B0000800561FCF1D74C1A8826C662E882A6C54
:1006C0002A6C2A6E2670267222742276783A3C0EA4
:1006D00000572FD41D9CC1C2A482866866682A88F0
:1006E00086266C86266C86268C22822270226422C4
:1006F00070226422908674687468362C382C0C0042
:10070000581DCF218CC3A486688A466E44D0949825
:10071000B4D450844C686A88668CA2C8005917CD3E
:10072000217CC186824A662A88466A268C22B0725B
:10073000740F6F005A1ACC216CE14158D944184506
:10074000141DE1201DAB08B288B1B28383005B0A9F
:1007500004A633C144FF4F085C14C8214C414C4EE1
:100760004C4E4C4E4C4E4C4E4C4E4C005D0A04A22E
:10077000338144FF4F0C5E0F08A14D474C8A8846D9
:10078000440B2122015F0849604BE10101600985AA
:10079000A43E4166910061142A215CE364664268CC
:1007A0008C6662CDC4CCC4089301621ACC1D6481EE
:1007B000722F886846A626A626A626A626A62668FE
:1007C00046246A006310292154A764C4A86CAB882E
:1007D00019191200641ACC216C8F72471423331438
:1007E00053135313531353135323334414046514F3
:1007F0002A215C87686462C8E8E0406E2C6248A6E3
:1008000004006610C8213C87466257433653FBA854
:100810000600671FEB215B5370C468644648464876
:100820006664C848F220E820426A424C6248E60604
:10083000006819CC216C81722F6A4848864686462A
:1008400086468646864686264A0A690BC521346353
:10085000642DC97E516A10471633697B10A2FD9141
:1008600085850809006B18CC216C81724F4A66841B
:1008700046C226C4AE2688466866282A0C6C0AC57D
:1008800021348164FF17056D1A3321A481A2C28629
:10089000A4846468C9D092A125434B86960CAD28E8
:1008A000696E182C216C81A286846468646864680F
:1008B000646864686468A2A4006F102B2164A76850
:1008C0006662CA571333433500701CAC1D636184E4
:1008D0008866646A626A626A626A626A826664825E
:1008E0006872611D00711AAC216387446486626A74
:1008F000626A626A626A626A6486886272C302724B
:100900001028214C814284426244626A4735007358
:1009100014292154852244466228C2E8CAAA4822E2
:10092000A204007412A72144272C4A68C664684FA9
:10093000224642280075172C216CA18464686468E3
:100940006468646864686468844D050176152A1DCE
:100950004CA16462286428662468248A8C4E50085E
:1009600000771E301D7CA1A264626628646628663A
:1009700084246884248A848C844E485048080078F3
:10098000142B2164C1828D0C8554DD5C95048D0C83
:10099000058501791DAB2163A166622A642A66265A
:1009A00068266A226C226E70324A266A226E0E0017
:1009B0007A0F292154E180A686889B22A203027B1C
:1009C0000F05A233474464278A64467623247C07B4
:1009D000C2315CE1077D1005A233414866641B21EA
:1009E00011913D51037E0C6A246565C541C4C80858
:1009F0000000000004FFFF000000941511241FBE3A
:100A0000CFEFDAE0DEBFCDBF11E0A0E0B1E0ECEF68
:100A1000FFE202C005900D92A438B107D9F727E094
:100A2000A4E8B1E001C01D92AC31B207E1F714E0D7
:100A3000CEEFD4E004C02197FE010E94EF17CD3F16
:100A4000D107C9F70E944C160C94FC170C940000B7
:100A5000662329F06A3019F0862F90E008958FEF11
:100A60009FEF08950F93CF93DF93DC01ED91FC91FD
:100A70005089362F3770E0E8F0E002C0F595E79531
:100A80003A95E2F73E2FA52FB0E0FC01C0ADD1AD05
:100A9000669566956695E62FF0E0549FE00DF11D92
:100AA0001124EC0FFD1FEC01C758DF4F011116C0D8
:100AB0008881823018F49081932B908388818130D3
:100AC00019F0908193279083369511F4319630E890
:100AD000215071F7DF91CF910F9108958881823075
:100AE00018F49081932B90838881813019F0908144
:100AF00093279083EA0FFB1F215081F7EBCF80E013
:100B0000089580E00895FC0180914802882311F146
:100B10003FB7F89482E08093E9002091F200822FA1
:100B200090E01816190614F481E090E0882339F05B
:100B3000289844E6409347024091F10040832223E5
:100B400039F02091F200211103C02BE62093E80038
:100B50003FBF08958FEF9FEF08952FB7F89483E07C
:100B60008093E9009091E800892F807295FF04C07E
:100B70009091F20080E4891B2FBF0895CF93DF93FB
:100B80001F92CDB7DEB76983DC01ED91FC91028045
:100B9000F381E02D41E050E0BE016F5F7F4F09958A
:100BA0000F90DF91CF91089583E08093E9008091C9
:100BB000F200882319F08AE38093E80008950E94E8
:100BC000AD0590E00895CF93DF931F92CDB7DEB7C8
:100BD000FC018485958597FD08C02FEF3FEF358791
:100BE00024870F90DF91CF910895CE0101960E9446
:100BF0008305019719F4898190E0F3CF8FEF9FEF80
:100C0000F0CF0F931F93CF93DF931F92CDB7DEB733
:100C10008C01FC018485958597FF0BC0CE01019660
:100C20000E948305019771F4898190E0F80195870E
:100C30008487F801848595850F90DF91CF911F916E
:100C40000F9108958FEF9FEFF1CFFC01848595857B
:100C500097FD0BC09FB7F89482E08093E9008091E4
:100C6000F2009FBF90E0019608959FB7F89482E04C
:100C70008093E9008091F2009FBF90E008958091F9
:100C80003D0281110DC082E08093390284E080939F
:100C90003A0210923C0210923B0281E080933D02A6
:100CA00089E392E0089540913502509136022091F7
:100CB00033023091340242175307B4F49091E800A4
:100CC0009570E1F39091E80092FD19C08093F100D6
:100CD000809135029091360201968F739927892B66
:100CE00019F48EEF8093E8008091350290913602DE
:100CF0000196909336028093350281E0089580E05A
:100D00000895EF92FF920F931F93CF93DF93F82EE6
:100D1000192FE62E042F81E0860F880F0E945306BC
:100D200083E00E945306CF2DD12FEC0EFD2EF11C37
:100D3000CE15DF05B9F007FF13C0FE0184910E94B4
:100D40005306182F80E00E945306812321968111BB
:100D5000EFCFDF91CF911F910F91FF90EF9008950A
:100D60008881EDCF81E0F5CFDF92EF92FF920F9374
:100D70001F93CF93DF93D82E8A01EB017B01E40E02
:100D8000F51ECE15DF0559F0D7FE12C0FE01849185
:100D90000E94530621968111F4CF0FEF1FEFC80177
:100DA000DF91CF911F910F91FF90EF90DF90089509
:100DB0008881EECF0F931F93CF93DF931F92CDB710
:100DC000DEB782E0898342E450E063E371E080E8CB
:100DD0000E94B4060E943F06DC0112960D911C9100
:100DE0000115110589F0D801ED91FC910280F38184
:100DF000E02DBE016F5F7F4FC801099597FD04C0CC
:100E0000F80100851185ECCF89810F90DF91CF919A
:100E10001F910F910895615030F02091F100FC0175
:100E200020830196F8CF289884E68093470208959E
:100E30003FB7F89480912F0290913002A091310237
:100E4000B091320226B5A89B05C02F3F19F001963C
:100E5000A11DB11D3FBFBA2FA92F982F8827BC0114
:100E6000CD01620F711D811D911D42E0660F771F3C
:100E7000881F991F4A95D1F708958F929F92AF923C
:100E8000BF92CF92DF92EF92FF926B017C010E94A2
:100E900018074B015C01C114D104E104F104B9F05D
:100EA0000E941807681979098A099B09683E7340EE
:100EB0008105910580F321E0C21AD108E108F1080B
:100EC00088EE880E83E0981EA11CB11CE4CFFF9031
:100ED000EF90DF90CF90BF90AF909F908F9008954C
:100EE0008F929F92AF92BF92CF92DF92EF92FF923A
:100EF0000F931F93CF93DF936C017B018A01809145
:100F00000B01882309F45CC080914802882309F40E
:100F100057C08091460280FF05C08091E00082604A
:100F20008093E000E801B12C8AEFA82E93E0892E8F
:100F30002AE3922E209711F4BB20D9F10E94AD052F
:100F400081110AC0AA94AA20D9F161E070E080E082
:100F500090E00E943D07EECF8C171D0611F00CF0BB
:100F60008C2F9FB7F8948092E9002091E80025FD2E
:100F700002C09FBFDFCF282F30E0C21BD30BF70189
:100F8000815020F041914093F100FACFE20EF31E20
:100F9000BB2021F09092E800B12CEBCF8091E800CB
:100FA00085FDE7CF9092E800BB24B394209709F326
:100FB000F3CF5D9884E680934502101611063CF04D
:100FC00081E090E0F6019383828310E000E0C801A5
:100FD000DF91CF911F910F91FF90EF90DF90CF9015
:100FE000BF90AF909F908F90089581508F3008F000
:100FF00047C0E82FF0E0E150F84F0C94EF171C08C1
:1010000020080E0814081808400840084008230863
:1010100029082D083108370840083B0880918000D6
:101020008F77809380000895809180008F7DF9CF25
:1010300080918000877FF5CF84B58F7784BD089538
:1010400084B58F7DFBCF809190008F778093900047
:101050000895809190008F7DF9CF80919000877FD7
:10106000F5CF8091C0008F778093C0000895809164
:10107000C0008F7DF9CF8091C200877F8093C2002E
:1010800008951F93CF93DF93282F30E0F901EC5E92
:10109000FE4F8491F901EB50FF4FD491F901EA52D0
:1010A000FF4FC491CC23A9F0162F81110E94F507A0
:1010B000EC2FF0E0EE0FFF1FE853FF4FA591B49126
:1010C0008FB7F894EC91111108C0D095DE23DC9312
:1010D0008FBFDF91CF911F910895DE2BF8CFCF9373
:1010E000DF9390E0FC01EB50FF4F24918A529F4F19
:1010F000FC0184918823D1F090E0880F991FFC01B6
:10110000E654FF4FA591B491FC01E853FF4FC59100
:10111000D491623071F49FB7F8943C91822F8095FE
:1011200083238C93E8812E2B28839FBFDF91CF915F
:1011300008958FB7F894EC912E2B2C938FBFF6CF98
:101140002091E001260F3327331F21323105ECF4C3
:1011500020910402FC0190E080E0243069F082E0FC
:101160000895A091E0012191AC0140545E4FA40F7D
:10117000B52FB11D2C930196861798F38091E0014D
:10118000680F6093E00180E0089581E0089508957C
:101190008FEF9FEF08958FEF9FEF08958091B90132
:1011A00090E09195819591090895CF93DF93CB01BC
:1011B000EA01642F0E94A008CE01DF91CF9108952B
:1011C000CF93DF931F92CDB7DEB7698361E0CE0185
:1011D00001960E94A00881E090E00F90DF91CF91EE
:1011E0000895213039F020F0223031F0840F089535
:1011F000860F0895841B0895861B0895213039F0C9
:1012000020F0223031F0861B0895840F0895860F58
:101210000895841B0895DC0118964C911897ED9160
:10122000FC911197249130E0042E02C0359527954A
:101230000A94E2F7842F860F883068F03196119671
:10124000FC93EE93E49198E0941B01C0EE0F9A9505
:10125000EAF72E2B885018968C938FEF9FEF01C0E2
:10126000880F6A95EAF7809582230895FC01E60FBE
:10127000F11D849190E0982F88273196E4918E0F8C
:10128000911D08950F93DC01802FFD01ED58FF4F54
:1012900090819923E9F12223D9F1223020F0023004
:1012A00079F56F5F621B082F0170FD0180FD32C070
:1012B000EB5BFF4F8081481758F1319680814817CA
:1012C00038F53297908131978081260F2617F0F4F8
:1012D0006917D8F42FEF290F8217D0F4681708F494
:1012E000682F291708F4922F961BD696ED91FC9142
:1012F000D7970480F581E02D292FCD01099508C0ED
:10130000033089F64F5F421BCECF682F691720F359
:101310000F910895ED5BFF4F80816817C8F33196F8
:1013200080816817A8F73296908131978081240FC9
:10133000241778F4491760F42FEF290F821740F72C
:10134000481708F4482F291708F4922F941BCDCF83
:10135000482F4917E8F6F2CF5F926F927F928F92F3
:101360009F92AF92BF92CF92DF92EF92FF920F9334
:101370001F93CF93DF935C01162F642EEC01C15BAA
:10138000DF4FDC80ED804C0189E7880E911CFE80E8
:10139000FD18C12EF11608F4CF2C5B800C85202F90
:1013A0004E2D6D2D8A810E94F108782E202F4E2D12
:1013B0006D2D852D0E94FE08482F662071F08A85CC
:1013C000F40180832C2D672DC5010E9442091F1551
:1013D00048F01F19E394D12CDACF89858111F7CF1A
:1013E0008B85EECF1D0D1C83ED82DF91CF911F9178
:1013F0000F91FF90EF90DF90CF90BF90AF909F90B4
:101400008F907F906F905F900895DC011A96ED9118
:10141000FC9130E020E009940F93FC01EB5BFF4F5F
:10142000308131965081451730F4301738F0041769
:1014300028F080E013C03017D0F3FBCFFC01ED5B48
:10144000FF4F30818C5B9F4FFC018081681740F417
:1014500081E0321718F081E0261758F70F910895B0
:101460003217C8F3E6CF6F927F928F929F92AF921E
:10147000BF92CF92DF92EF92FF920F931F93CF9381
:10148000DF93EC01062F142F7901FC01E55AFF4F81
:101490008081813009F445C0D0F1823009F44BC01D
:1014A000833009F452C0FE01EF5AFF4F008331969A
:1014B000108337978081918147962FEFE216F104D0
:1014C00011F008F0E6C0E1E6EE16F10408F447C0BA
:1014D000FE01E159FF4F20813181820F931F9C0152
:1014E0002F5F3F4FF9014491411142C0712C872D6C
:1014F000DF91CF911F910F91FF90EF90DF90CF90F0
:10150000BF90AF909F908F907F906F900895FE0155
:10151000E35BFF4F0190F081E02DCE010995180F9C
:10152000C2CFFE01E35BFF4F0190F081E02DCE01C1
:101530000995081BB8CFFE01E35BFF4F0190F081D6
:10154000E02DCE010995181BAECFFE01E35BFF4FE6
:101550000190F081E02DCE010995080FA4CFF1E4B0
:10156000EF16F10408F4BBCFFE01E359FF4FB3CFF0
:10157000FC0144914E151F0409F086C002960097A5
:1015800009F4B4CF7E01FFE4EF0EF11CF701918363
:101590008083108671966081C7010E940B09F70154
:1015A000868372966081C7010E940B09A82EF701FD
:1015B00087836E01F9E7CF0ED11CF6019081F70108
:1015C000928781E0911180E0F7018387FE01EE5957
:1015D000FF4FB0806B2DC7010E940B09882EFE01C2
:1015E000ED59FF4F1081612FC7010E940B09982E02
:1015F000FE01EC59FF4F0081602FC7010E940B09CB
:10160000015041E050E09A0101C0220F0A95EAF72B
:10161000782E721AF701068110160CF068CFBA9472
:10162000CA0101C0880FBA94EAF7881AB4849A0CE8
:10163000115001C0440F1A95EAF7F42FF9199F2EA3
:101640002B2D4F2F682DF70182810E94F108182F52
:10165000F70182832B2D492D682D83810E94FE087E
:10166000F7018383F1E0BF1609F47CC0BF1608F4CC
:101670003FC022E0B21609F47BC093E0B91609F42A
:1016800082C0082F212F38C0F9012491820F911DAB
:1016900026CFFE01EF58FF4F00811181080F191F5F
:1016A000680160E0C6010E943609080F191F62E058
:1016B000C6010E943609F4E0CF0ED11C8E159F059D
:1016C00080F3F801849190E0982F88273196E49177
:1016D0008E2B009709F40ACFE816F90619F4C80111
:1016E00003964DCFF8013296E4910E0F111DE9CF0C
:1016F000202F210F082F0A0D482F612FCE010E94A5
:101700000C0A882309F4F3CEF701148215828E01A6
:10171000025A1F4F4E01FFE58F0E911CF8016081A8
:10172000C7010E940B09682EF4016081C7010E9465
:101730000B09B82E40E0662DCE010E94AC0941E0B5
:101740006B2DCE010E94AC0961E0C7010E940B091C
:101750008111F0CFF70185818A1504F38285F601A6
:101760008083C5CEBA1821E0210F080F1B0DC4CF0E
:1017700091E0392F301B21E0210F9A1901E0080F69
:10178000890F130FB9CF212F2A0D982F901B01E03D
:10179000080F81E0890FB0CFEF92FF921F93CF9394
:1017A000DF931092B50687E7E82E81E0F82E10E06F
:1017B000D8E1C0E0F70161917F01E0919F06F091CF
:1017C000A0068DE996E009958F3F9807F1F08E3FCE
:1017D0002FEF920779F39C014D2F6C2F8DE996E046
:1017E0000E94330A9091F806913049F030F092301F
:1017F00041F0933041F0180FDDCFC80FFCCFD80F68
:10180000FACFC81BF8CFD81BF6CF812FDF91CF912D
:101810001F91FF90EF900895DC011696ED91FC91D9
:1018200030E020E040E069E10994DC011696ED919A
:10183000FC9130E020E040E068E109949A01DC018D
:101840001696ED91FC91462F67E10994EF92FF9275
:101850000F931F93CF93DF931F92CDB7DEB77C0119
:101860008B01D8016C91673129F150F46531A0F4F6
:101870000F90DF91CF911F910F91FF90EF900895FE
:101880006A3118F16E3FA1F7F8014181498369E29D
:10189000C7010E94050A0BC0F80141814983D701A5
:1018A0001696ED91FC9130E020E0C70109950E5F9E
:1018B0001F4FD7CFF80181818983AE014F5F5F4F02
:1018C00061E0C7010E941E0CF2CF0F5F1F4FD701CE
:1018D0001696ED91FC9130E020E040E0C7010995BB
:1018E000C0CF462FDC011696ED91FC9130E020E050
:1018F00065E10994CF93DF93EC016BAFEEA9FFA9EB
:101900000190F081E02D0995EEA9FFA90280F381F5
:10191000E02DCE01DF91CF910994AF92BF92CF928B
:10192000DF92EF92FF920F931F93CF93DF9300D03C
:1019300000D01F92CDB7DEB78C01DC01DA96AC90F7
:10194000DA97DB96EC90DB97ED91FC91B188FE2C59
:10195000D12CC12CD801ED91FC9111978089D8969A
:101960002D913C911C82FD828B83B8E08B9FC0013E
:1019700011248C9DA0018D9D500D9C9D500D112416
:10198000240F351F3A832983D8011496ED91FC91D9
:101990009E012F5F3F4F41E06FE0C8010995F3942E
:1019A0008F2D8E198A1528F4BFEFCB1ADB0AFB1492
:1019B00088F20F900F900F900F900F90DF91CF91C2
:1019C0001F910F91FF90EF90DF90CF90BF90AF905D
:1019D0000895AF92BF92CF92DF92EF92FF920F9352
:1019E0001F93CF93DF93EC01693089F484E391E096
:1019F000998388831C8A81E0DF91CF911F910F9199
:101A0000FF90EF90DF90CF90BF90AF900895790155
:101A10006B3009F440C06F3009F444C080E06A3094
:101A200059F7EA85FB8530E020E040E068E2CE012E
:101A30000995EE81FF8130E020E040E064E1CE01D5
:101A4000099541E06BE4CE010E94050AE881F98125
:101A5000448169E2CE010E94050A40E06BE4CE01B8
:101A60000E94050AE881F981448169E2CE010E9461
:101A7000050A41E06BE4CE010E94050AE881F98184
:101A8000458169E2CE010E94050A61E271E0CE0162
:101A90000E94260CB0CF6AE171E04423C1F36FE0ED
:101AA00071E0F5CFF9010481000F000F000F1381E1
:101AB0001695003210F00052185FCE010E94150CEE
:101AC000F701A080B1806EE3CE010E94710C6EE33D
:101AD000CE010E94710CD12C1068602F6D0D6068D2
:101AE000CE010E94710C612FCE010E94710CF70192
:101AF000C280A5016C2DCE010E941E0CAC0CB11C45
:101B0000D394F8E0DF12E9CFCE010E940C0C73CF22
:101B10000F93DC01DE963C91DE97431BD496ED914A
:101B2000FC9109950F9108952F923F924F925F92E9
:101B30006F927F928F929F92AF92BF92CF92DF92DD
:101B4000EF92FF920F931F93CF93DF93EC014C0121
:101B500083E4880E911CF4011082329720805E018C
:101B6000F4E4AF0EB11CF50120823FAC6E01F5E448
:101B7000CF0ED11CF6013082359740807E01F6E40D
:101B8000EF0EF11CF701408234961081329760808D
:101B90003196708032975080012F262D472D652D6C
:101BA000CE010E940C0ACD58DF4F811114C018825B
:101BB000DF91CF911F910F91FF90EF90DF90CF9029
:101BC000BF90AF909F908F907F906F905F904F905D
:101BD0003F902F90089581E08883552011F0F40103
:101BE0005082621410F4F5016082371410F4F6018B
:101BF00070821415E8F6F7011083DACFCF93DF93E4
:101C0000FC01A081B18182AD982F990F990F990F96
:101C100095AF50969C915097903208F09FE1990FA4
:101C2000990F990F94AF23AD922F990F990F990F98
:101C300096AF51963C915197682F620F7727771F87
:101C40003617170614F4832F821B97AFEF01C05C81
:101C5000DF4F880F880F880F890F8883219680EFC8
:101C6000888354968D919C915597813F910508F4F6
:101C70008883EE5BFF4F56968C918083DF91CF91E6
:101C800008959A01DC011896ED91FC91462F67E1C9
:101C90000994CF93DF931F92CDB7DEB76983AE016E
:101CA0004F5F5F4F61E00E94410E0F90DF91CF9137
:101CB0000895CF92DF92EF92FF920F931F93CF93ED
:101CC000DF93EC01142F79016631C1F130F46431F6
:101CD00049F06531A9F080E040C0673109F446C0A1
:101CE0006A31C8F7E885F9859701412FCE01DF9168
:101CF000CF911F910F91FF90EF90DF90CF900994BB
:101D000068EF0E94490E41E06CE2CE010E94050A94
:101D1000612F607FCE010E94490E41E06CE2CE014E
:101D20000E94050A612F6295607FCE010E94490ED4
:101D300041E06CE2CE010E94050A0EC068EF0E94ED
:101D4000490E612F607FCE010E94490E612F62957E
:101D5000607FCE010E94490E81E0DF91CF911F91FB
:101D60000F91FF90EF90DF90CF9008956AEF0E945F
:101D7000490E41E06CE2CE010E94050ADE2CCF2C18
:101D8000012F083008F5012F069506950695D12EEE
:101D900088EF089FD00C1124E8E00E9F80011124E9
:101DA0000E0D1F1DDD2021F2F801F1908F016F2D26
:101DB000607FCE010E94490E6F2D6295607FCE013B
:101DC0000E94490EDA94EECFA9EAB1E0ED2DFC2D88
:101DD0009F01285F3F4F8191982F907F9C93829520
:101DE000807F11968C9311971296E217F30799F75B
:101DF000DE2ECF2E085049EA51E060E1CE010E946C
:101E0000410EBFCF0F931F93CF93DF93EC01862F2B
:101E1000642F8C3208F03AC08A3208F060C08832F1
:101E200009F44BC0893209F460C0803408F475C0ED
:101E3000982F9F73FE01E90FF11D868D8F3F09F4E6
:101E40004EC0903108F436C0282F30E0F901EC5E26
:101E5000FE4F8491F901EB50FF4F0491F901EA52D2
:101E6000FF4F1491112379F081110E94F507E12FA2
:101E7000F0E0EE0FFF1FE455FF4FA591B491EC91F8
:101E80000E2381E009F480E0898F29C08D3299F119
:101E900008F4CBCF94EB980F923008F0C6CF8F7335
:101EA000C80FD11D8E8D411134C061E00E946F08B2
:101EB00060E08E8D0E94410812C08E01025E1F4FAD
:101EC000D0E0F80181918F018F3F31F061E0D03196
:101ED00008F062E00E946F08DF5FD63191F781E081
:101EE000DF91CF911F910F91089570E090E080E015
:101EF0000E943D07F4CF85E090E0433010F082E08F
:101F000090E0880F991F880F991F05970197F1F7A7
:101F1000E6CF62E00E946F08E2CF80E0E1CFCF928F
:101F2000DF92EF92FF920F931F93CF93DF936C0199
:101F3000EB017B01E40EF51E10E000E0CE15DF059D
:101F400061F06991D601ED91FC910190F081E02D55
:101F5000C6010995080F191FF1CFC801DF91CF9174
:101F60001F910F91FF90EF90DF90CF900895CF9247
:101F7000DF92EF92FF920F931F93CF93DF93EC01C9
:101F80006C0124E0C20ED11CFC01E158FF4F01900E
:101F9000F081E02DC60109958E3FEFEF9E07C8F452
:101FA0008E010E571F4F7E01F1E8EF0EF11C9C01D0
:101FB000F8014081F7016081C6010E94330AC15ACD
:101FC000DF4F98819130A9F078F09230A1F09330F2
:101FD000B9F081E090E0DF91CF911F910F91FF90D8
:101FE000EF90DF90CF900895F7019081890F808363
:101FF000F0CFF801FACFF7019081981B892FF7CF26
:10200000F801FACF089590E080E008951F93CF93F0
:10201000DF9385ED8093BC008091BC019091BD0160
:10202000A091BE01B091BF010796A11DB11D23E093
:10203000B695A795979587952A95D1F72091BC00DD
:1020400024FD03C01092040252C04091BC01509183
:10205000BD016091BE017091BF01452B462B472BFE
:1020600069F30097A105B10541F025E32A95F1F741
:1020700000000197A109B109E1CF8091BB01C1E046
:10208000C093BA01882399F1D091B8001091BA0099
:102090008091BC008A7B8093BC0060E082E00E945B
:1020A000410860E083E00E94410810920402C0935E
:1020B00006021092050261E082E00E94410861E0A0
:1020C00083E00E9441088091B9008E7F8093B9001F
:1020D0008091B9008D7F8093B90088E48093B80027
:1020E00085E48093BC001093BA00D093B800DF91D0
:1020F000CF911F910895FC01A081B18150962C9140
:1021000082AD38E0839FC0011124289FA001299F40
:10211000500D112470E060E080AD91AD0C94F51786
:102120001F93CF93DF93EC010E948D0C1BAD8AAD02
:10213000180FE881F9818189181768F0EC81FD8119
:1021400030E020E040E060E1CE01099580E0DF91E1
:10215000CF911F910895FE01E658FF4F808188239B
:1021600019F0CE010E947B10612FCE010E947A0CE3
:1021700081E0EDCFCF93DF93EC01FC01E658FF4FF8
:102180008081882319F0CE010E947B1060E0CE018F
:10219000DF91CF910C947A0C0F931F93CF93DF9321
:1021A000EC01683109F46EC058F46431F9F0F901BA
:1021B000673181F080E0DF91CF911F910F910895F9
:1021C000693109F49CC06032A9F76AE4CE010E942B
:1021D000050A56C0442309F453C081918EBD000006
:1021E0000DB407FEFDCF8EB54150F4CFE881F981E3
:1021F0008C859D85AE85BF85892B8A2B8B2B41F4E1
:1022000080859185A285B3858C879D87AE87BF87A2
:10221000418169E4CE010E94050ACFB7F89480910C
:10222000A801811127C0E7EEF0E08491E6E0F1E03B
:102230009491E82FF0E0EE0FFF1FE654FF4FA591B9
:10224000B491EC91E92321F461E081E10E9441081D
:1022500061E081E10E946F088CB580618CBD8CB516
:1022600080648CBD61E08FE00E946F0861E080E1D6
:102270000E946F088091A8018F5F8093A801CFBF53
:1022800081E099CFE881F981E485E15090E0E33085
:1022900020F4F0E0E45FFE4F90810C851D852E85D3
:1022A0003F8540E052E16AE770E080E004171507DF
:1022B0002607370740F476956795579547958F5FC2
:1022C0008630A1F787E09C709065282F2695922B89
:1022D000809581709CBD8DBDE881F981408169E464
:1022E000CE010E94050AA881B981EA85FB8530E00C
:1022F00020E012964C916CE2CE010995C1CFA881E5
:10230000B981EA85FB8530E020E013964C916CE2C0
:102310000995E881F981418169E458CF1F920F92B4
:102320000FB60F9211248F939F938091E1009091AB
:10233000E100937F9093E10083FF0FC01092E900CA
:1023400091E09093EB001092EC0092E39093ED00FB
:102350001092480298E09093F00082FF22C093E030
:102360009093E9009091F200992319F09AE39093E9
:10237000E80090914502992341F0909145029150D7
:1023800090934502911101C05D9A90914702992363
:1023900041F090914702915090934702911101C0F2
:1023A000289A84FF18C08091E2008E7E816080931D
:1023B000E2008091E1008F7E8093E10080914602EF
:1023C0008E7E8061809346029F918F910F900FBE09
:1023D0000F901F90189580FFF7CF8091E2008E7EBE
:1023E00080618093E2008091E1008E7E8093E10025
:1023F000809146028E7E8160E5CF1F920F920FB6CC
:102400000F921124CF92DF92EF92FF920F931F93BE
:102410002F933F934F935F936F937F938F939F93EC
:10242000AF93BF93EF93FF93CF93DF93CDB7DEB717
:102430006C97DEBFCDBF1092E9008091E80083FF6A
:1024400025C068E0CE0145960E940B0782EF80937D
:10245000E8008D8987FF39C09091E80090FFFCCF9C
:10246000982F907609F034C19E894F89588D2F8915
:10247000F88C911131C0803861F5809138028093D9
:10248000F1001092F1008EEF8093E8006C960FB689
:10249000F894DEBF0FBECDBFDF91CF91FF91EF91DA
:1024A000BF91AF919F918F917F916F915F914F916C
:1024B0003F912F911F910F91FF90EF90DF90CF9060
:1024C0000F900FBE0F901F9018959EEF9093E8000D
:1024D000C7CF1092F100D5CF913059F48111D3CFED
:1024E0004130510581F6809138028D7F809338020A
:1024F000CACF933049F48111C6CF4130510519F646
:10250000809138028260F2CF953041F48091E800EA
:1025100080FFFCCF20682093E300B5CF963009F010
:10252000A9C00B8D1C8D22E01092E900109236029A
:1025300010923502F2122EC0109234021092330221
:102540000E94DA061F8299E09983FA8291E09E83C5
:1025500090EA98879AEF9987209135023091360258
:10256000275F3F4F3C832B838D831092E9001092AD
:10257000360210923502109334020093330249E080
:1025800050E0BE016F5F7F4F80E00E94B4060E9462
:10259000DA0679CF10933402009333020E943F068B
:1025A000DC0112960D911C910115110509F451C120
:1025B000D801ED91FC910480F581E02DBE016B5EA8
:1025C0007F4FC8010995009709F03EC1F8010085C9
:1025D0001185EACFF3E0FF120EC08F89882309F43A
:1025E00040C0823061F440E864E183E991E00E94F8
:1025F0008106811148CF81E28093EB0047CF813083
:1026000029F440E867E08BE891E0F1CF833099F757
:102610000E943F06DC011296ED90FC908E010F5F48
:102620001F4F6801E114F10479F0D701ED91FC919D
:102630000680F781E02DB801C7010995080F111D2B
:10264000F701E084F184EECFD8011C92F6010190ED
:102650000020E9F73197BF016C197D0940E0C60100
:10266000C6CF65E771E0FB01449150E080E80E942D
:10267000B40609CF973009F4BECF983021F481E039
:102680008093F10000CF993009F0FDCE837009F0FE
:10269000B2CFEDE4F1E081E031E096E32191222335
:1026A00071F08093E9003093EB00DF0111972C91DA
:1026B0002093EC009093ED008F5F873079F78EE7E1
:1026C0008093EA001092EA008F8980934802DBCE63
:1026D0008B8D9C8D1092E90010923602109235027B
:1026E0009093340280933302898D811192C08E8938
:1026F0009D89913A49F4813209F07DCF47E050E05D
:1027000064E071E080E0B3CF913209F074CF83329E
:1027100069F48F89988DB0E0A0E0809300019093D8
:102720000101A0930201B0930301ADCE803269F4A0
:102730008091E80082FFFCCF67E084E091E00E9496
:102740000B078BEF8093E8009ECE823209F09BCE80
:102750008F8980930B01EEEFFFE7859194918B3F7A
:102760009C4D51F1E0E0F8E0809104019091050169
:10277000A0910601B0910701803B9440A105B105ED
:10278000F1F480910B0180FD1AC0EE3F8AE0F8075A
:1027900089F587E797E79183808380916000809334
:1027A000370288E19BE00FB6F894A895809360000B
:1027B0000FBE9093600067CEEEEFFAE0D5CF808138
:1027C00091818737974709F05ECEA8958091600088
:1027D0008861809360008091370280936000EE3FB3
:1027E0002AE0F20789F08091FE0A9091FF0A918316
:1027F000808349CE808191818737980751F29093E9
:10280000FF0A8093FE0AC5CF1092FF0A1092FE0ABB
:102810003ACE0E943F06DC0112960D911C910115E3
:10282000110509F4E8CED801ED91FC910190F081F9
:10283000E02DBE016B5E7F4FC8010995811123CE4B
:10284000F80100851185EBCF181619060CF41BCE84
:10285000D2CEF1E0FF12BECE69E771E004CF1F9245
:102860000F920FB60F9211242F933F938F939F9344
:10287000AF93BF9380912B0290912C02A0912D02D7
:10288000B0912E0230912A0223E0230F2D3758F504
:102890000196A11DB11D20932A0280932B029093D3
:1028A0002C02A0932D02B0932E0280912F029091C2
:1028B0003002A0913102B09132020196A11DB11DEA
:1028C00080932F0290933002A0933102B093320292
:1028D000BF91AF919F918F913F912F910F900FBE1C
:1028E0000F901F90189526E8230F0296A11DB11D89
:1028F000D2CF1F920F920FB60F9211242F933F93B6
:102900004F935F936F937F938F939F93AF93BF93F7
:10291000EF93FF938091B900887F803609F44AC015
:10292000F0F5883209F4A5C018F5803109F499C092
:10293000B8F4882309F4F5C0883009F492C0FF91F7
:10294000EF91BF91AF919F918F917F916F915F9127
:102950004F913F912F910F900FBE0F901F901895A0
:10296000883109F486C0803251F78093030214C085
:10297000803409F49BC040F48033B9F38833F9F60E
:102980008093030285ECAEC0803509F483C088359E
:1029900009F494C0883499F60E940610D0CF883983
:1029A00009F48AC038F5883729F050F4883611F0D8
:1029B000803729F683E0809304021092020255C00A
:1029C000883809F479C0803919F0803809F0B7CF18
:1029D00080910202803208F06FC0E091020281E033
:1029E0008E0F809302028091BB00F0E0EE51FE4F0B
:1029F00080833BC0803B39F0D0F4803A09F477C043
:102A0000883A09F09CCF84E0809304021092E1019F
:102A10001092E001F0E0E0E009958091E001811181
:102A20000FC081E08093E0011092C00109C0803C9A
:102A300009F4A8CF883C09F4A5CF883B09F07FCFE3
:102A4000E091E10181E08E0F8093E101F0E0E0543C
:102A5000FE4F80818093BB009091E1018091E00165
:102A600029C0809129028093BB0085EC8093BC0033
:102A700066CF9091280280912702981758F5E0912F
:102A8000280281E08E0F80932802F0E0E95FFD4F7D
:102A90008081E9CFE091280281E08E0F80932802A7
:102AA0008091BB00F0E0E95FFD4F808390912802A8
:102AB000809127029817C8F285E8D8CFE0912802C4
:102AC00081E08E0F809328028091BB00F0E0E95FE7
:102AD000FD4F80838091060281115ECF81E080935B
:102AE000050284EA8093BC001092040228CF85EC92
:102AF0008093BC001092040280910202803230F474
:102B0000E0910202F0E0EE51FE4F1082609102026D
:102B100070E082EE91E0F0E0E0E0099510920202B0
:102B20000ECF1092030238CFCF9310924C02109226
:102B30004B0288EE93E0A0E0B0E080934D029093CA
:102B40004E02A0934F02B093500287E591E090931C
:102B50004A02809349028FEF9FEF90935602809331
:102B6000550210929C0610929B0688E295E0909385
:102B700019078093180710921A0710921B071092DA
:102B8000B50689E691E090939A0680939906109293
:102B90009E0610929D061092B2061092A9061092FF
:102BA000AA061092AB061092AC068FEF8093B30684
:102BB0008093B706EBEBF6E081ED96E0CFEFC193A3
:102BC0008E179F07E1F789EE9CE09093A206809311
:102BD000A10689E59EE09093A4068093A3068CEC61
:102BE00090E19093A6068093A50682E09FE09093E3
:102BF000A8068093A70630E020E040E069E08DE978
:102C000096E00E94E90C1092E9061092E80682E331
:102C100095E09093D2068093D10689E992E0909353
:102C2000D6068093D50688E08093D7061092D80602
:102C30001092F5061092150781E080931607809395
:102C4000170781E791E09093D4068093D3068DE92E
:102C500096E00E94FE0D1092E4061092E606C093E4
:102C6000E506C093E706E091D306F091D406028012
:102C7000F381E02D8DE996E0099581E895E0909348
:102C8000EB068093EA061092F8068CE08093C40667
:102C9000C093C606CF910895789484B5826084BDB0
:102CA00084B5816084BD85B5826085BD85B5816050
:102CB00085BD80916E00816080936E0010928100CE
:102CC0008091810082608093810080918100816089
:102CD000809381008091800081608093800080914A
:102CE0009100826080939100809191008160809337
:102CF0009100809190008160809390008091C1004C
:102D000084608093C1008091C10082608093C10083
:102D10008091C10081608093C1008091C300816077
:102D20008093C3008091C00082608093C000809136
:102D3000C20081608093C20080917A008460809399
:102D40007A0080917A00826080937A0080917A0084
:102D5000816080937A0080917A00806880937A0005
:102D60001092480210923802109246028091D700C9
:102D700081608093D70080EA8093D80089B5806114
:102D800089BD89B5826089BD09B400FEFDCF61E0CF
:102D900070E080E090E00E943D078091D8008F7C39
:102DA00080618093D8008091E000807F8093E00074
:102DB0008091E1008E7E8093E1008DE08093E200BF
:102DC000559A209AE091A106F091A20630E020E009
:102DD00040E06AE08DE996E009958DE996E00E9471
:102DE000BA108DE996E00E9490108111FACF60E050
:102DF0008DE996E00E947A0CE091A106F091A2067E
:102E000030E020E040E06BE08DE996E009956DEA66
:102E1000262E61E0362EC8EAD1E05EEA452E51E06A
:102E2000552E8DE996E00E94BA108FEA682E81E057
:102E3000782E00EB11E091EBE92E91E0F92E22EBD8
:102E4000C22E21E0D22E33EBA32E31E0B32E44EB81
:102E5000842E41E0942E8091E8069091E906885AEC
:102E6000914009F48CC0D093E906C093E806E8EAE3
:102E7000F1E084918093F906E9EAF1E0849180938E
:102E8000FA06EAEAF1E084918093FB06EBEAF1E0CE
:102E900084918093FC06ECEAF1E084918093FD0636
:102EA000F10184918093FE06F20184918093FF06E4
:102EB000F301849180930007F801849180930107C6
:102EC000F701849180930207F601849180930307B0
:102ED000F501849180930407F401849180930507A0
:102EE000E5EBF1E0E491E0930607E6EBF1E0E49135
:102EF000E0930707E7EBF1E0E491E0930807E8EBE4
:102F0000F1E0E491E093090761E188EA91E00E9431
:102F1000360990930B0780930A0763E188EA91E0F2
:102F20000E94360990930D0780930C0765E188EAAB
:102F300091E00E94360990930F0780930E078091CD
:102F4000E8069091E906892BD1F0809106078093DD
:102F50001207409107074093130790911107992397
:102F600071F0913011F590910807891714F490933E
:102F7000120780910907841714F48093130788E2DD
:102F800095E09093A00680939F060E94CC0B8DE95C
:102F900096E00E94901081115ECF80E090E0892B36
:102FA00009F43FCF0E94000038CF309103072091F1
:102FB0000507082E000C990B622F022E000C770BD0
:102FC000630F711D37FD7A95861797071CF4320F32
:102FD0003093120724179CF620931307D0CFEE0FDF
:102FE000FF1F0590F491E02D0994DC0101C06D9361
:0C2FF00041505040E0F70895F894FFCFE6
:102FFC00FFFFFFFF00E100000000000004080C18B8
:10300C00153815081534150119FF181538150C1934
:10301C00FFFE6418FE0A1538150815061502150171
:10302C00FE0419FF010005050106148C40420F0037
:10303C0003041E28100800008000400000C180819D
:10304C0000000000000000BE057007DF05D4052558
:10305C0006E305010600000000B70F8F0F031002F6
:10306C0010FE0D940D880D48656C6C6F20576F72B7
:04307C006C6421005F
:00000001FF
